:020000022000DC
:106000000000012079630200616302006363020003
:10601000656302006763020069630200000000001C
:106020000000000000000000000000006B630200A0
:106030006D630200000000006F63020071630200E4
:10604000099D020073630200F5A2020031C502003F
:10605000736302007363020015A002007363020001
:1060600073630200736302007363020073630200D0
:1060700073630200736302007363020073630200C0
:10608000736302007D800200736302007363020089
:10609000BD80020073630200736302007363020039
:1060A0007363020073630200736302007363020090
:1060B0007363020073630200000000000000000030
:1060C0007363020073630200736302007363020070
:1060D000BDB702007363020073630200000000009A
:1060E00000000000000000000000000000000000B0
:1060F00000000000000000000000000000000000A0
:10610000000000000000000000000000000000008F
:10611000000000000000000000000000000000007F
:10612000000000000000000000000000000000006F
:10613000000000000000000000000000000000005F
:10614000000000000000000000000000000000004F
:10615000000000000000000000000000000000003F
:10616000000000000000000000000000000000002F
:10617000000000000000000000000000000000001F
:10618000000000000000000000000000000000000F
:1061900000000000000000000000000000000000FF
:1061A00000000000000000000000000000000000EF
:1061B00000000000000000000000000000000000DF
:1061C00000000000000000000000000000000000CF
:1061D00000000000000000000000000000000000BF
:1061E00000000000000000000000000000000000AF
:1061F000000000000000000000000000000000009F
:10620000364937480A1A02D0072291438D4635494C
:1062100035480A1A06D00722914381F309880222E1
:1062200082F3148831483249324A00F045F8324846
:106230003249334A00F040F832483349334A00F0DB
:106240003BF833483349344A00F036F83348344990
:10625000344A00F031F834483449354A00F02CF81B
:1062600034483549354A00F027F835483549002289
:1062700000F02DF834483549002200F028F8344861
:106280003449091A082903DB002202600430016046
:10629000314A90471F482049884205D0026804309F
:1062A00003B4904703BCF7E700208646EC46002085
:1062B00000212A4A9047FEE7884207D0521A05D0AB
:1062C000037801300B700131013AF9D170478842EF
:1062D00002D002700130FAE7704700000000012090
:1062E00000E0002000000120000001208C260300B7
:1062F000D0300020EC340020D8630200D8630200C4
:10630000900B03008C260300D0300020D0300020FA
:10631000200C0300200C0300200C0300200C0300C1
:10632000200C0300200C0300200C0300200C0300B1
:106330008C260300A82A0300EC340020EC34002053
:10634000EC340020D83F0020D83F0020D83F002068
:10635000D83F0020D85F0020A16302002DA40200D6
:10636000FEE7FEE7FEE7FEE7FEE7FEE7FEE7FEE705
:10637000FEE7FEE7704700BF1048804710484FF027
:106380000701884385460F4880470F48016841F45C
:1063900070010160BFF34F8FBFF36F8FFFF730BF06
:1063A0000A480B490B4A884207D0521A05D0037895
:1063B00001300B700131013AF9D170477563020069
:1063C00000000120DD95020088ED00E0200C0300B4
:0863D000D0300020D030002085
:1063D80000B585B00190019B002B0AD0074B43F014
:1063E80001030393019B9B010293039B0298984727
:1063F80000E000BF05B05DF804FB00BF300C0300EF
:1064080000B583B00190019B002B0AD04FF47A703D
:10641800FFF7DEFF019B013B0193019B002BF5D1A8
:1064280000E000BF03B05DF804FB08B504F03CFCD5
:1064380000BF08BD00B589B0039002910192019B8D
:10644800002B33D00023079303230693029A079B5C
:106458001344019A1946002004F0D8FB0590079AC6
:10646800059B13440793019A059BD31A0193059B37
:10647800002B13D10F4B1B7883F00103DBB2002BE9
:1064880013D10120FFF7BCFF069B013B0693069B37
:10649800002B03D1074B00221A7007E0054B01229D
:1064A8001A70019B002BD1D100E000BF00BF09B0DA
:1064B8005DF804FBEC34002000B585B00390029130
:1064C800054B00934023054A0299039800F012F8FF
:1064D80000BF05B05DF804FB3D640200F034002005
:1064E80082B0019000BF02B0704782B0019000BF37
:1064F80002B0704700B5A1B00590049103920293D1
:10650800049802F0E6FC039B1593029B1693002364
:10651800179300238DF8603000231993229B1A9358
:1065280000231F930FA91F9B0822049802F0AAFDBD
:1065380008231F93119B1293BDF84030ADF84C30DF
:10654800BDF84230ADF84E3000238DF851309DF83B
:106558003C3003F00303DBB2012B26D10F9BC3F3BE
:1065680095231C939DF83C30C3F3C203DBB28DF82E
:106578005030BDF83C30C3F38313DBB21B931B9B35
:106588009A0009A91F9B049802F07CFD1B9B9B00A5
:106598001F9A13441F9312AA09A915AB0093134617
:1065A8001B9A1C9800F066FF2FE09DF83C3003F022
:1065B8000303DBB2022B28D1BDF83E30C3F38913A5
:1065C8009BB21E939DF83C30C3F3C203DBB28DF837
:1065D80050301E9B082B28BF08231D9307A91F9B1B
:1065E8001D9A049802F04EFD1F9A1D9B13441F9399
:1065F8001E9A1D9BD31A1E9315AB12AA07A81D99A4
:1066080000F0DAFF1E9B002BE3D1049802F070FC27
:1066180000BF21B05DF804FB82B00190019BDB68EC
:1066280001225A7100BF02B07047000000B583B064
:106638004FF0FF330193FFF7F8FE0421084800F0FC
:1066480035FE0190019B002B03DA0649412001F039
:1066580096FD0348FFF7E0FF00BF03B05DF804FBB9
:10666800100C0300480C030000B583B001900091A2
:10667800019B1B681B6800990198984700BF03B0ED
:106688005DF804FB00B583B00190019B1B685B6853
:106698000198984700BF03B05DF804FB00B583B0CC
:1066A8000190019B1B689B680198984700BF03B045
:1066B8005DF804FB82B001900B468DF80330019B16
:1066C800DB689DF803201A7100BF02B0704782B0E2
:1066D8000190019BDB681B79184602B0704782B0B5
:1066E8000190019BDB6801225A7100BF02B070471C
:1066F80082B00190019BDB685B79184602B0704755
:1067080000B585B001900091154BFF229A60144B9B
:1067180000221A60124B00225A60114B0022C3F863
:1067280018240F4B0022C3F814240D4B002283F8C1
:1067380020240C4802F032FB0390039B002B01D06D
:10674800039B08E0084802F0C3FE084A084BD31A26
:10675800DB0802930023184605B05DF804FB00BF70
:1067680098360020A40B0300AC0C0300100C0300A7
:10677800C00B0300024A034BD31ADB0818467047C4
:10678800100C0300C00B030000B587B001900B4646
:106798008DF803309DF80330002B1FD0FFF7EAFF78
:1067A80004900023059313E0059B9B000E4A1344B5
:1067B8000393039B1B881A46019B1B689A4204D1CA
:1067C800019B059A1A60002309E0059B0133059394
:1067D800059A049B9A42E7D3052300E00023184654
:1067E80007B05DF804FB00BFD030002000B585B0CD
:1067F80001900B468DF803309DF8032001AB11463C
:106808001846FFF7C1FF0346002B07D1019BDB00A9
:10681800054A13440393039B1B6800E000231846B2
:1068280005B05DF804FB00BFC00B030084B0019005
:106838000B468DF80330019BDB00174A1344029383
:106848009DF80330013B032B1CD801A252F823F01A
:1068580069680200716802007968020083680200B2
:1068680002238DF80F3011E004238DF80F300DE06E
:10687800029B1B798DF80F3008E0029B5B798DF83D
:106888000F3003E000238DF80F3000BF9DF80F3064
:10689800184604B0704700BFC00B030084B00190D5
:1068A800009100238DF80F30019B1B7803F004033F
:1068B800DBB2002B24D0019B1B78C3F30103DBB2AE
:1068C800012B02D0022B0CD017E0009B1B68019A09
:1068D8001288C2F38312D2B213449A1C009B1A6026
:1068E8000BE0009B1B68019A5288C2F3891292B28E
:1068F80013449A1C009B1A6000BF01238DF80F30C7
:106908009DF80F30184604B07047000000B58BB0F2
:106918000023ADF826303E4801F0FBFC3D4801F06D
:10692800F8FC3D4B5B6804933B4B9B680693049AC9
:10693800069B134002339B00374A134404330893E1
:1069480004AB19460898FFF7A9FF0346002B09D0A6
:10695800049A069B134002339B002F4A13440433C6
:106968000893EDE700BF0023079311E0049B5A1C2E
:106978000492069A1340079A920001A90A442649EC
:1069880002339B000B445B681360079B013307933A
:10699800079B012BEAD99DF80430C3F30103DBB24E
:1069A800012B10D0022B1CD1BDF80A30ADF82630CF
:1069B800BDF80630C3F389139BB203339A08049BCE
:1069C8001344049313E0BDF80A30ADF82630BDF83F
:1069D8000430C3F38313DBB21A46049B13440493B5
:1069E80005E00E494FF4BF7001F0C9FB00BF09482C
:1069F80001F09BFC0590059B002B02D0049B064AE6
:106A08005360BDF8263018460BB05DF804FB00BF94
:106A1800B03A0020AC3A002098360020BC0C0300A5
:106A280000B585B00021074801F0C0FB0390039B27
:106A38000293029B83F310030193019B184605B050
:106A48005DF804FBB43A002000B589B003900291C8
:106A580001920093039B1B0C0793FFF7E1FF06903D
:106A6800FFF788FE0246079B934204D3214940F270
:106A7800A31001F084FB069B1904009B5A1C0A9B77
:106A88001340079A0A431C4902339B000B445A607F
:106A9800009A0A9B134002339B00174A134404339D
:106AA8000593039B03F00703D9B2059A137861F3A2
:106AB800C5031370019B03F00F03D9B2059A13881D
:106AC80061F389131380029BC3F31501059A1368B8
:106AD80061F39F231360059A1378012161F3010381
:106AE8001370059A13786FF38203137000BF09B00F
:106AF8005DF804FBBC0C03009836002000B58BB091
:106B08000390029113468DF80730039B02330893D4
:106B180001238DF81F30002001F0EAFA3E4B1A6875
:106B2800029B1A603C4B9A683B4B59683A4B1B686E
:106B3800CB1A13440133099314E00121374801F0BB
:106B4800ACFBFFF7E3FE05900599344801F0A5FB7F
:106B5800314B9A68304B59682F4B1B68CB1A13443A
:106B680001330993089A099B9A42E6D89DF81F3089
:106B7800002B48D0002304939DF80730002B17D032
:106B88009DF81030012262F301038DF810309DF852
:106B9800103043F004038DF81030039B03F00F030B
:106BA800DAB2BDF8103062F38913ADF8103016E090
:106BB8009DF81030022262F301038DF810309DF821
:106BC800103043F004038DF81030039BC3F309031E
:106BD8009AB2BDF8123062F38F13ADF812300E4B33
:106BE8001A680D4B9B68134002339B000A4A1344F2
:106BF80004330693049A069B1A60074B1A68089B8D
:106C08001344054A1360002001F086FA9DF81F30EE
:106C180018460BB05DF804FB98360020B43A002003
:106C280000B58BB005900491039202931F4B9B68AB
:106C3800079306AB012219460298FFF75FFF034648
:106C4800002B24D0069B023309930023089311E0FC
:106C5800089B9B00039A1A44099B591C09910799A0
:106C68000B401268114902339B000B445A60089B81
:106C780001330893089A029B9A42E9D3069A079B24
:106C880000931346029A04990598FFF7DDFE074B17
:106C980093F82034002B05D000BF00F007F9034615
:106CA800002BFAD100BF0BB05DF804FB983600202A
:106CB80000B583B00190009100230022009901984B
:106CC800FFF7AEFF00BF03B05DF804FB00B587B067
:106CD800039002910192019B059305AA0123029951
:106CE8000398FFF79DFF00BF07B05DF804FB00B5F0
:106CF80087B00390029101920093019B0493009B3B
:106D0800059304AA022302990398FFF789FF00BF9D
:106D180007B05DF804FB00B58BB0039002910192B7
:106D28000093019B0593009B06930C9B07930D9B77
:106D380008930E9B099305AA052302990398FFF768
:106D48006FFF00BF0BB05DF804FB000000B58DB00D
:106D5800039002911346ADF806304B4B9B680B939A
:106D6800BDF8063003339B0805A900221846FFF733
:106D7800C5FE0346002B78D0059B0A93059B02337A
:106D88000593414B9A6805990B9B0B40D31A013325
:106D98009B000993BDF80630099A9A420ED3059ACA
:106DA8000B9B134002339B00374A13440433BDF84E
:106DB80006200299184609F0C1FA17E0059A0B9BBC
:106DC800134002339B00304A13440433099A029952
:106DD800184609F0B3FA029A099BD118BDF80620A3
:106DE800099BD31A1A46294809F0A8FA039B1B0CD9
:106DF8000893FFF715FE0790079B19040A9B5A1C76
:106E08000B9B1340089A0A431F4902339B000B440B
:106E18005A600A9A0B9B134002339B001A4A134488
:106E280004330693039B03F00703D9B2069A137839
:106E380061F3C5031370069A13886FF38F131380D9
:106E4800BDF80630C3F3090399B2069A538861F373
:106E58008F135380069A1378022161F3010313708C
:106E6800069A13786FF382031370074B93F8203454
:106E7800002B05D000BF00F019F80346002BFAD10B
:106E880000BF0DB05DF804FB98360020A436002042
:106E9800054B5A68044B1B689A420CBF0123002318
:106EA800DBB21846704700BF9836002000B599B08D
:106EB800FFF7EEFF0346002B01D00023B5E19A4B04
:106EC8000022C3F81824BFF34F8F974B5B680493D5
:106ED800954B9B681093049A109B134002339B00B8
:106EE800914A1344043311930023179300231693F4
:106EF80000230F9304AB19461198FFF7CFFC034604
:106F0800002B19D0884BD3F81834002B14D1864B9A
:106F18001A68049B9A4205D8834B1B68824A5360BF
:106F2800002382E1049A109B134002339B007E4A9F
:106F3800134404331193DDE70023159311E0049BF8
:106F48005A1C0492109A1340159A920001A90A44F7
:106F5800754902339B000B445B681360159B013332
:106F68001593159B012BEAD99DF8043003F0030310
:106F7800DBB2022B40F09C80BDF80630C3F38913C6
:106F88009BB20D93BDF80630C3F389139BB2502B07
:106F980028BF50239BB20C930C9BC3F309039AB2EE
:106FA800BDF8063062F38F13ADF806300C9B08333A
:106FB8000B939DF80430C3F3C203DBB20F930B9914
:106FC8005A4801F0F6FE1790179B002B00F0D0806E
:106FD800179801F07EFF01A9169B0822179802F066
:106FE80033F8169B08331693049BDA43109B13401F
:106FF80001339B000A930C9A0A9B9A4242D90A9B36
:10700800002B08D0049A109B134002339B00464A79
:107018001344043300E0464B08930A9B002B02D02C
:107028000A9BDBB201E00C9BDBB28DF81F300A9B98
:10703800002B01D03E4B00E0002306930A9B002B57
:1070480006D00C9BDAB20A9BDBB2D31ADBB200E0A3
:1070580000238DF817309DF81F20169B0899179864
:1070680001F0F2FF9DF81F30169A13441693069B01
:10707800002B16D09DF81720169B0699179801F03B
:10708800E3FF0EE0049A109B134002339B00264A4C
:10709800134404330993169B0C9A0999179801F025
:1070A800D3FF0D9B03339A08049B134404935FE0BA
:1070B8009DF8043003F00303DBB2012B58D1BDF86F
:1070C8000430C3F38313DBB2062B28BF0623DAB2DE
:1070D800BDF8043062F38913ADF80430BDF804300C
:1070E800C3F38313DBB202330E939DF80430C3F36A
:1070F800C203DBB20F930E9B9B0019460B4801F0AD
:1071080058FE1790179B002B32D0179801F0E1FE1C
:1071180001A9169B0822179801F096FF169B0833C1
:107128001693002315931AE098360020A40B030049
:10713800A4360020049B5A1C0492109A1340023370
:107148009B003C4A1344191D169B0422179801F012
:107158007BFF169B04331693159B01331593BDF8DB
:107168000430C3F38313DBB21A46159B9342E1D371
:10717800179B002B39D02F4BD3F8103414932D4B79
:10718800D3F81834002B1BD0179801F0B1FE46E055
:1071980000238DF84F301498FFF7AAFA0346002B06
:1071A80002D001238DF84F309DF84F30002B03D0CB
:1071B80017991498FFF758FA149BDB681B68149307
:1071C800149B002BE4D1179801F092FE002000F0E8
:1071D8008FFF184BD3F81834002B02D1049B154AA3
:1071E8005360002000F098FF19E0124BD3F81034D8
:1071F800129306E01298FFF751FA129BDB681B689E
:107208001293129B002BF5D10B4A0C4BD31ADB08B7
:107218001B0443F002030A491846FFF749FDFFF72C
:1072280037FE034683F00103DBB2184619B05DF858
:1072380004FB00BF98360020F80B0300C00B0300C6
:10724800180D030000B585B00023039323E0164B07
:10725800D3F81034029301238DF807300FE0029819
:10726800FFF735FA03461A46039B934203D10023DE
:107278008DF8073006E0029BDB681B680293029BCF
:10728800002BECD19DF80730002B01D0039B07E0C1
:10729800039B01330393039B092BD8DD4FF0FF3386
:1072A800184605B05DF804FB9836002000B585B097
:1072B80001900B468DF80330FFF7C4FF0390039B42
:1072C800B3F1FF3F01D1039B22E0039BDBB21946D8
:1072D8000198FFF7EFF9104BD3F81034002B08D1C1
:1072E8000D4A019BC2F81034019BDB6800221A602A
:1072F8000DE0094BD3F81034DA68019BDB6812689B
:107308001A60054BD3F81034DB68019A1A60039BA6
:10731800184605B05DF804FB9836002000B583B028
:107328000C4BD3F8103401930A4B012283F8202424
:1073380009E00198FFF7D3F90198FFF7A3F9019B3A
:10734800DB681B680193019B002BF2D100BF03B0DF
:107358005DF804FB9836002082B00190009100BFD0
:1073680002B0704710B584B003900291039BDB888C
:10737800002B0AD0039BDB881A461F4B0093134649
:107388001E4A1F49029801F00BF9039B1B7A052B33
:107398002ED0039B5B7A002B12D0039B9B881A4646
:1073A800039B1B7A19461046FFF740FA03461A4614
:1073B800144B53F822301A461349029801F0F0F89A
:1073C800039B1B6819460298FFF7C6FF039B1B7AAD
:1073D8001A460E4B53F82240039B9B8800211846FF
:1073E800FFF704FA034622460949029801F0D8F843
:1073F80000BF04B010BD00BF4C0D03005C0D0300BE
:10740800940D0300EC300020AC0D0300D8300020B0
:10741800B00D030000B585B00390029113468DF8B6
:107428000730039B1B7A052B0FD0039B5B7A002B3D
:1074380006D00D4B1B681A460C49029801F0B0F8AB
:107448000B49029801F0ACF807E09DF80730002BD3
:1074580003D00749029801F0A3F8029801F07EF8DA
:1074680000BF05B05DF804FBEC300020AC0D030054
:10747800BC0D030030B58BB00790069105920493BC
:107488000E9B1B7B8DF827300E9B00221A730E99DA
:107498000498FFF767FF059B062B7FD801A252F8D7
:1074A80023F000BFC9740200D3740200E374020021
:1074B800F7740200157502003D7502006D75020033
:1074C80007990E9801F06CF869E0069B1B681A464C
:1074D80007990E9801F064F861E0069B1A68069B0C
:1074E80004331B6807990E9801F05AF857E0069B79
:1074F8001A68069B04331968069B08331B680093B7
:107508000B4607990E9801F04BF848E0069B19685E
:10751800069B04331868069B08331B68069A0C32CE
:1075280012680192009303460A4607990E9801F0E3
:1075380037F834E0069B1868069B04331C68069BE2
:1075480008331B68069A0C321268069910310968CC
:107558000291019200932346024607990E9801F082
:107568001FF81CE0069B1C68069B04331D68069BDD
:1075780008331B68069A0C3212680699103109689C
:1075880006981430006803900291019200932B46EC
:10759800224607990E9801F003F800E000BF002288
:1075A8000E990498FFF736FF0E9B9DF827201A7353
:1075B80000BF0BB030BD00BF00B587B0039002918B
:1075C80001920093029B082B60D8009B1B7B8DF8CF
:1075D8001330009B00221A7300990198FFF7C2FE2E
:1075E8000023059314E0059A029B9A4209D2039A54
:1075F800059B13441B781A462649009800F0D0FFD3
:1076080003E02549009800F0CBFF059B0133059363
:10761800059B072BE7D92149009800F0C1FF0023FB
:10762800059326E0059A029B9A421BD2039A059B72
:1076380013441B788DF812309DF812307E2B0AD82F
:107648009DF81230184608F08FFD0346002B02D033
:107658009DF8123000E02E231A461149009800F0D8
:107668009FFF03E00F49009800F09AFF059B013344
:107678000593059B072BD5D9012200990198FFF79F
:10768800C9FE009B9DF813201A7300E000BF07B0E5
:107698005DF804FBC00D0300C80D0300CC0D03000A
:1076A800D00D0300D40D030086B00390029101921F
:1076B80001238DF817309DF817301F4A039B13607C
:1076C8001D4A029B53601C4A019B9360039B44F232
:1076D8000102934212D044F20202934221D1019B4B
:1076E800154AD360144BDB681B881A46124B9A6103
:1076F800114BDB685B68104AD36112E0019B0E4AAC
:1077080013610D4B1B699B680B4A53610A4B1B693C
:107718001B68094A9361084B1B695B68064AD36179
:1077280000BF72B600BF9DF81730DBB2002BFAD14C
:1077380062B600BF06B07047BC3A002000B583B0FF
:1077480002900091019244F2010071466A4600F0ED
:1077580003F803B000BD00BF30B58BB007900691A9
:10776800059272B6FFF7DAFD00BFFFF79FFB0346ED
:10777800002BFAD1079B44F20102934215D044F240
:10778800020293423ED1059B09932C4A2C4BD31AF3
:10779800DB081B0443F00100099B5B681A46099B40
:1077A8001B882849FFF7A3FA39E0059B0893234A69
:1077B800234BD31ADB081B0443F00104089B9D6884
:1077C800089B9B68184601F0A1FE03461846089BD3
:1077D8005B681946089B1B68069A02920193009100
:1077E80003462A4618492046FFF795FA134A144BD0
:1077F800D31ADB081B0443F0010314491846FFF7AA
:1078080057FA0CE00D4A0E4BD31ADB081B0443F061
:107818000103069A0E491846FFF758FA00BF0D4BA8
:107828001B6803F00103002B00D000BE059A0699DF
:107838000798FFF739FF00BF0BB030BDF80B030006
:10784800C00B0300D80D0300F40D03001C0E030049
:10785800300E0300F0ED00E082B003468DF80730EB
:107868009DF8073003F01F0205499DF907305B09B1
:10787800012000FA02F241F8232000BF02B070474D
:1078880000E100E082B003468DF807309DF807302C
:1078980003F01F0206499DF907305B09012000FA31
:1078A80002F2203341F8232000BF02B0704700BF26
:1078B80000E100E082B003468DF807309DF80730FC
:1078C80003F01F0206499DF907305B09012000FA01
:1078D80002F2403341F8232000BF02B0704700BFD6
:1078E80000E100E082B003468DF807309DF80730CC
:1078F80003F01F0206499DF907305B09012000FAD1
:1079080002F2603341F8232000BF02B0704700BF85
:1079180000E100E000B585B00190019B002B0AD082
:10792800074B43F001030393019B9B010293039BC5
:107938000298984700E000BF05B05DF804FB00BF5F
:10794800500E030008B50D4B4FF48032C3F84423A2
:107958000A4B4FF48032C3F804231120FFF7C2FF0B
:107968001120FFF779FF054B01221A602F20FFF73E
:10797800D1FF034B01221A7000BF08BD001001405F
:10798800FA3B002008B51120FFF77CFF0E4B4FF49F
:107998008032C3F848230C4B4FF48032C3F80823D5
:1079A800094B01225A602F20FFF7B4FF064B012232
:1079B8009A60064B00221A602F20FFF7ABFF044B9A
:1079C80000221A7000BF08BD00100140EC3B0020E7
:1079D800FA3B0020024BD3F804351846704700BF25
:1079E8000010014082B001900091019A009BD31AC7
:1079F80023F07F43184602B07047000082B0019020
:107A0800034A019BC2F8403500BF02B0704700BF6F
:107A18000010014086B00190284B1B68002B03D151
:107A2800264A019B136045E0019B1A68234B1B689B
:107A38001B689A4210D8214B1B681968019B1A6869
:107A48001E4B1B688A1A1A601C4B1A68019BDA6164
:107A58001A4A019B13602DE0019B1B680393174B87
:107A68001B680593154B1B68049309E0049B1B686E
:107A7800039AD31A0393049B0593049BDB6904932D
:107A8800049B002B04D0049B1B68039A9A42EDD8F0
:107A9800049B002B05D0049B1A68039BD21A049BF5
:107AA8001A60019B039A1A60019B049ADA61059B8C
:107AB800019ADA6100BF06B0704700BFE83B0020BA
:107AC80000B587B001902A4B1B680393284B1B68AD
:107AD8000593059B049308E0049A019B9A4208D0F9
:107AE800049B0593049BDB690493049B002BF3D14F
:107AF80000E000BF049B002B01D1002333E0059A6E
:107B0800049B9A4214D11A4B1B68DB69184A13600C
:107B1800174B1B68002B0BD1164B01229A60164B92
:107B280000221A60154B01221A702F20FFF7F2FE6F
:107B3800049B1B680293049BDA69059BDA61059B29
:107B4800DB690493049B002B05D0049B1A68029BF5
:107B58001A44049B1A60064B1B68039A9A4214BF86
:107B680001230023DBB2184607B05DF804FB00BF11
:107B7800E83B002000100140EC3B0020FB3B0020CC
:107B880008B51120FFF796FE00BF08BD08B5142000
:107B9800FFF790FE00BF08BD00B583B00190019BC0
:107BA8005B69019A92691046984700BF03B05DF877
:107BB80004FB000000B585B02B4B1B68002B4ED092
:107BC80000230193FFF706FF0246284B1B6819465E
:107BD8001046FFF707FF0290234B1B6803931DE035
:107BE800039B1B68029A9A421CD3039B1B68029A48
:107BF800D31A0293039B1B68019A13440193039BB6
:107C08000093039BDB690393009B1B7C002B05D02F
:107C1800009B00221A740098FFF7BEFF039B002BFD
:107C2800DED100E000BF124B1A78124B1B789A4243
:107C38000CD1104B1B780133DAB20E4B1A700D4B76
:107C48001B78022B02D10B4B00221A70094B1B78B0
:107C58001946094A019B42F82130FFF797FF00BFF8
:107C680005B05DF804FB00BFE83B0020EC3B0020BA
:107C7800F83B0020F93B0020F03B002082B0019047
:107C8800184B1A78184B1B789A4223D0154B1B783F
:107C98000133DAB2134B1A70124B1B78022B02D144
:107CA800104B00221A700F4B1B781A460F4B53F8D3
:107CB8002220019B1A60019B1A680D4B1B68134414
:107CC8000B4A13600A4B1B6823F07F43084A136072
:107CD800012303E0019B00221A600023184602B02A
:107CE800704700BFF83B0020F93B0020F03B002024
:107CF800EC3B002088B00390029101920023079387
:107D080038E0204B1B680693069B1B68039A9A422F
:107D180006D2069B1A68039BD21A069B1A602DE0AE
:107D2800069B1B68039AD31A0393069B1B68079A42
:107D380013440793069B00221A60124B1B68059395
:107D4800069BDB690F4A1360069BDB68002B11D08A
:107D5800029A079B134423F07F42069B5A60069BB6
:107D6800DA68069B9A60019B1A68069BDA61019B98
:107D7800059A1A60034B1B68002BC2D100BF08B0DC
:107D8800704700BFE83B002000B589B00190002390
:107D98008DF81F30664B1B680593AAE0019B002BEA
:107DA80005D0019B0693069BDB69019361E0614B5B
:107DB8001B781A4613465B001344DB005D4A1344E4
:107DC800043304935B4B1B780133DAB2594B1A70B6
:107DD800584B1A78574B9B789A4202D1554B002240
:107DE8001A70049B5B680693049B1B78022B04D0D3
:107DF800032B1BD0012B1FD01DE0049B5B6818468A
:107E0800FFF75EFE0346002B02D001238DF81F30DA
:107E1800069B00221A746CE0454B1B680393039B76
:107E280000221A74039BDB69414A1360404B1B68AC
:107E3800002BF1D15DE05CE000BF069B1B7C002BB2
:107E480000D056E0049B9A68069B5A60049BDA6847
:107E5800069B9A60049B1A69069BDA60049B5A6920
:107E6800069B9A61344B1B78002B02D0069B00229C
:107E78005A60069B5A68314B1B68D31A23F07F431C
:107E88002F4A93420ED8069B5A682C4B1B681946FA
:107E98001046FFF7A7FD0246069B9B681A44069BFF
:107EA8001A6017E0254B1A68069B5B68194610464E
:107EB800FFF798FD0290069B9B68029A9A4206D2A9
:107EC800069B9A68029BD21A069B1A6002E0069BE0
:107ED80000221A60069B00225A60069B00229A60C4
:107EE800069B01221A74069B0022DA610698FFF7A6
:107EF80091FD019B002B7FF451AF0E4B1A780D4B6F
:107F08005B789A427FF44AAF9DF81F30002B04D16A
:107F1800074B1B68059A9A4201D0012300E0002311
:107F280003F00103DBB2184609B05DF804FB00BF9B
:107F3800E83B0020DC3A0020FB3B0020EC3B002023
:107F4800FEFF7F0010B588B00190274B1B68002BFF
:107F580044D0254B1B681B680793FFF73BFD069031
:107F6800224B1B68059305990698FFF73BFD0346CE
:107F7800033304931E4B1B7883F00103DBB2002B01
:107F880001D0FFF7DFFC049A079B934238BF1346E2
:107F9800059A13440593059B23F07F4305930598A1
:107FA800FFF72CFDFFF716FD039006990398FFF7DE
:107FB80019FD0346DC1C06990598FFF713FD0346D7
:107FC8009C420DD9FFF706FD03461846FFF716FD3C
:107FD8002F20FFF79FFCFFF7D3FD01E0FFF7D2FC4E
:107FE80000BF08B010BD00BFE83B0020EC3B0020FC
:107FF800FA3B002000B587B00023019300238DF8D9
:108008001730194B1B680493184B1B6803936B4676
:108018001846FFF733FE03468DF80B309DF80B30FA
:10802800002B08D0009B01AA04991846FFF762FEAE
:1080380001238DF81730019B1846FFF7A5FE03466C
:10804800002B02D001238DF817309DF81730002B34
:1080580002D00398FFF776FF054B00221A7000BF85
:1080680007B05DF804FB00BFEC3B0020E83B0020B4
:10807800FB3B002008B50E4B0022C3F840210C4BF7
:108088000022C3F844210A4B0022C3F84821084BB8
:108098000022C3F84C21064B0022C3F80021044BF0
:1080A8000022C3F80421FFF785FD00BF08BD00BF0B
:1080B8000010014008B5FFF79DFF00BF08BD000094
:1080C80072B6034B1B680133014A136000BF704747
:1080D800FC3B0020054B1B68013B044A1360034B23
:1080E8001B68002B00D162B600BF7047FC3B002024
:1080F80000B583B0019000F025F80346012B03D0AA
:108108000449432000F03BF8FFF7DAFF00BF03B053
:108118005DF804FB580E030000B583B003468DF8E4
:10812800073000F00FF80346012B03D00449512013
:1081380000F025F8FFF7CEFF00BF03B05DF804FBA1
:10814800580E030084B0EFF305830193019BC3F33A
:1081580008030393039B002B0DD1EFF314830093C3
:10816800009B0293029B03F00103002B0CBF012329
:108178000023DBB200E00123184604B0704700B5C5
:1081880085B003460091ADF80630BDF80630ADF86D
:108198000830009B039302AB1A46002144F2020008
:1081A800FFF7DAFA00BF05B05DF804FB10B487B03A
:1081B80001900091019B009A53E8004F104643E854
:1081C800000191F0000FF7D1059404900391059BED
:1081D800184607B05DF8044B704710B487B001909B
:1081E8000091019B009A53E8004F44EA020043E8DB
:1081F800000191F0000FF6D1059404900391059BBE
:10820800184607B05DF8044B704710B487B001906A
:108218000091019B009A53E8004F44EA020043E8AA
:10822800000191F0000FF6D1059404900391049B8E
:10823800184607B05DF8044B704710B487B001903A
:108248000091019B009A53E8004F04EA020043E8BA
:10825800000191F0000FF6D1059404900391059B5D
:10826800184607B05DF8044B704710B487B001900A
:108278000091019B009A53E8004F04EA020043E88A
:10828800000191F0000FF6D1059404900391049B2E
:10829800184607B05DF8044B704710B487B00190DA
:1082A8000091019B009A53E8004F04EB020043E859
:1082B800000191F0000FF6D1059404900391049BFE
:1082C800184607B05DF8044B704710B487B00190AA
:1082D8000091019B009A53E8004FA4EB020043E889
:1082E800000191F0000FF6D1059404900391049BCE
:1082F800184607B05DF8044B704700B583B001908D
:1083080001210198FFF769FF0346184603B05DF89D
:1083180004FB00B583B0019001210198FFF775FFB8
:108328000346184603B05DF804FB00B583B001901E
:1083380000210198FFF781FF0346184603B05DF856
:1083480004FB00B583B0019000210198FFF78DFF71
:108358000346184603B05DF804FB000000B583B07F
:1083680001900B468DF80330019B002B03D108497F
:10837800E820FFF704FF019BDA689DF803300199B4
:10838800098A01FB03F31344184603B05DF804FBA4
:10839800B00E030000B583B001900091019B002B43
:1083A80003D10849F520FFF7EAFE009B019AD2683D
:1083B8009B1A019A128AB3FBF2F3DBB2184603B098
:1083C8005DF804FBB00E030000B585B00190019B79
:1083D800002B01D10E234DE0019B1B68002B03D11C
:1083E8002649FF20FFF7CBFE019B5B68002B04D1D9
:1083F80022494FF48070FFF7C2FE019B9B68002B57
:1084080004D11E4940F20110FFF7B9FE019BDB6859
:10841800002B04D119494FF48170FFF7B0FE019B7E
:108428001B8A002B04D1154940F20310FFF7A7FE61
:10843800019B9B681A46019B5B68D31A8DF80F3025
:10844800019B1B68019A52681A6007E0019B1A6831
:108458001368591C11609DF80F201A709DF80F3091
:108468005A1E8DF80F20002BF0D1019B1B680022AB
:108478001A710023184605B05DF804FBB00E03001E
:1084880000B585B00190019B002B04D11C494FF425
:108498009270FFF774FE002303930020FFF728FE75
:1084A800019B1B681A68019B5B689A4220D9019B53
:1084B8001B681A68013A1A601B681B7819460198EC
:1084C800FFF74CFF0390019B9B681A46019B1B68B2
:1084D8001B68D31A8DF80B30019B1B681B799DF81C
:1084E8000B209A4204D9019B1B689DF80B201A7136
:1084F8000020FFF711FE039B184605B05DF804FB4A
:10850800B00E030010B584B001900091019B002BC0
:1085180004D1114940F24710FFF731FE009B002BB0
:1085280004D10D494FF4A470FFF729FE009B039373
:108538000020FFF7DDFD019B1B681C68621C1A60A8
:1085480003990198FFF726FF034623700020FFF7E1
:10855800E3FD00BF04B010BDB00E030000B583B04A
:108568000190019B002B03D10C493120FFF707FE36
:10857800019B9B68002B0CD0019B5B69019A1069D9
:10858800019A1168019A92689847019B00229A60A3
:1085980000E000BF03B05DF804FB00BF040F030058
:1085A8000EB400B584B00190019B002B03D118498B
:1085B8004220FFF7E4FD019B5B69002B03D11449BE
:1085C8004320FFF7DCFD019B1B68002B03D11049FA
:1085D8004420FFF7D4FD019B5B68002B03D10C49B5
:1085E8004520FFF7CCFD059B002B0AD00023039301
:1085F80006AB039303AB1A460599019800F0B0F94E
:1086080000E000BF04B05DF804EB03B0704700BFA2
:10861800040F030000B583B001900B468DF80330BA
:10862800019B1A68019B9B68581C01998860134438
:108638009DF803201A70019B9A68019B5B689A4217
:1086480002D30198FFF78AFF00BF03B05DF804FB6F
:1086580000B587B00390029101920093002305931F
:10866800009B03F00103002B24D00BE0029B013395
:108678000293059B013305939DF81330194603981F
:10868800FFF7C8FF029B1B788DF813309DF8133055
:10869800002BEBD106E0019B013B019320210398BD
:1086A800FFF7B8FF019A059B9A422ED9019B002B30
:1086B800F1D12AE0029B002B0BD0029807F0BCFEF8
:1086C800059006E0019B013B019320210398FFF7E9
:1086D800A1FF019A059B9A420FD9019B002BF1D16A
:1086E8000BE0029B01330293059B013305939DF830
:1086F800133019460398FFF78DFF029B1B788DF8FE
:1087080013309DF81330002BEBD100BF07B05DF894
:1087180004FB000000B589B0039002910192009318
:10872800029B07930123069307E0079A019BB2FB7C
:10873800F3F30793069B01330693079A019B9A422A
:10874800F3D2009A069B9A4201D9009B06930B9B91
:1087580003F00103002B22D10A9B002B1FD00B9B97
:1087680003F00203002B06D0009B002B03D130231B
:108778008DF8173002E020238DF8173008E00A9BA7
:10878800013B0A939DF8173019460398FFF742FFFB
:108798000A9B002B03D0069A0A9B9A42EFD3012327
:1087A8000793009B012B03D9009B013B009309E031
:1087B800029A079BB2FBF3F30493049A019B9A4233
:1087C80000D205E0079B019A02FB03F30793E8E751
:1087D800029A079BB2FBF3F30493049B079A02FBEC
:1087E80003F3029AD31A0293154A049B13441B7885
:1087F80019460398FFF70EFF079A019BB2FBF3F3A4
:108808000793079B002BE3D10B9B03F00103002B7D
:1088180011D00A9B002B0ED006E00A9B013B0A935D
:1088280020210398FFF7F6FE0A9B002B03D0069A37
:108838000A9B9A42F1D300BF09B05DF804FB00BF60
:10884800A00F030000B589B005900491039202932C
:10885800049B002BB8BF5B4206930123079307E0F4
:10886800039B069A92FBF3F30693079B0133079346
:10887800039B069A9A42F3DA029A079B9A4201D915
:10888800029B07930A9B002B0AD0049B002B04DB56
:108898000B9B03F00403002B02D00A9B013B0A93B5
:1088A8000B9B03F00203002B02D0029B002B16D077
:1088B8000B9B03F00103002B11D10A9B002B0ED058
:1088C80006E00A9B013B0A9320210598FFF7A2FEC8
:1088D8000A9B002B03D0079A0A9B9A42F1D3049B68
:1088E800002B07DA049B5B4204932D210598FFF7C0
:1088F80091FE08E00B9B03F00403002B03D02B210F
:108908000598FFF787FE0B9B03F00203002B19D095
:108918000B9B03F00103002B14D1029B002B11D1F8
:108928000A9B002B0ED006E00A9B013B0A933021DC
:108938000598FFF76FFE0A9B002B03D0079A0A9B46
:108948009A42F1D304990B9B01930A9B0093029BD3
:10895800039A0598FFF7DEFE00BF09B05DF804FB37
:1089680000B58FB0059004910392059B002B04D1AC
:10897800C8494FF4A270FFF702FC059B5B69002B06
:1089880004D1C4494FF4A370FFF7F9FB059B1B689A
:10899800002B04D1BF4940F24710FFF7F0FB059BBD
:1089A8005B68002B04D1BB494FF4A470FFF7E7FBC9
:1089B800049B002B00F0ED81049B1B788DF8373069
:1089C800049B013304939DF83730002B00F0D881C5
:1089D8009DF83730252B40F0C78100230A930123E7
:1089E8000C93049B1B788DF837309DF837302D2B6E
:1089F80004D0302B0AD02B2B10D017E00A9B43F061
:108A080001030A93049B0133049312E00A9B43F089
:108A180002030A93049B013304930AE00A9B43F080
:108A280004030A93049B0133049302E000230C938C
:108A380000BF0C9B002BD4D1002309939DF837303D
:108A48002A2B0CD1039B1B68191D039A11601B6804
:108A5800099A13440993049B013304931AE0049B75
:108A68001B788DF837309DF837302F2B12D99DF8A9
:108A78003730392B0ED8049B01330493099A1346D7
:108A88009B0013445B001A469DF837301344303B73
:108A98000993D3E700230B93049B1B788DF8373099
:108AA8009DF837302E2B1DD1049B01330493049B72
:108AB8001B788DF837309DF837302F2B12D99DF859
:108AC8003730392B0ED8049B013304930B9A134685
:108AD8009B0013445B001A469DF837301344303B23
:108AE8000B93E4E7049B1B788DF837309DF83730FB
:108AF8006C2B03D09DF83730682B07D1049B0133CA
:108B08000493049B1B788DF83730EFE79DF83730D6
:108B1800253B532B00F2238101A252F823F000BF1A
:108B28005D8D0200678D0200678D0200678D02006F
:108B3800678D0200678D0200678D0200678D020055
:108B4800678D0200678D0200678D0200678D020045
:108B5800678D0200678D0200678D0200678D020035
:108B6800678D0200678D0200678D0200678D020025
:108B7800678D0200678D0200678D0200678D020015
:108B8800678D0200678D0200678D0200678D020005
:108B9800678D0200678D0200678D0200678D0200F5
:108BA800678D0200678D0200678D0200678D0200E5
:108BB800678D0200678D0200678D0200678D0200D5
:108BC800678D0200678D0200678D0200678D0200C5
:108BD800678D0200678D0200678D0200678D0200B5
:108BE800678D0200678D0200678D0200E98C020024
:108BF800678D0200678D0200678D0200678D020095
:108C0800678D0200678D0200678D0200678D020084
:108C1800678D0200678D0200798C0200A18C02002A
:108C2800678D0200678D0200678D0200678D020064
:108C3800A18C0200678D0200678D0200678D02001B
:108C4800678D0200678D0200678D0200298D020082
:108C5800678D0200678D02000D8D0200678D02008E
:108C6800C58C0200678D0200678D0200E98C020046
:108C7800039B1B68191D039A11601B680C930C9BBE
:108C88008DF81F309DF81F3019460598FFF7C2FC74
:108C980066E000BF500F0300039B1B68191D039A71
:108CA80011601B680C930A9B0193099B00930B9B13
:108CB8000A220C990598FFF7C5FD51E0039B1B6834
:108CC800191D039A11601B680C930C990A9B019358
:108CD800099B00930B9B0A220598FFF71BFD3FE0B9
:108CE800039B1B68191D039A11601B680C930C9950
:108CF8000A9B0193099B00930B9B10220598FFF791
:108D080009FD2DE0039B1B68191D039A11601B6860
:108D180008930A9B099A08990598FFF799FC1FE0A0
:108D2800039B1B68191D039A11601B680C93302163
:108D38000598FFF76FFC78210598FFF76BFC0C99F5
:108D48000023019308230093082310220598FFF7B6
:108D5800E1FC05E025210598FFF75CFC00E000BF79
:108D6800049B0133049305E09DF8373019460598B4
:108D7800FFF750FC049B1B78002B7FF41DAE00E02E
:108D880000BF059B1B7B002B04D00598FFF7E6FB73
:108D980000E000BF0FB05DF804FB00BF00B583B072
:108DA80001900198FFF710FB0346184603B05DF8E1
:108DB80004FB00B58BB001900091019B1B8A043B1A
:108DC8000793009A079B1344DA1C079BB2FBF3F343
:108DD8008DF81B300198FFF753FB0590059B002B7E
:108DE80001D1002338E0059B00221A71059B01225E
:108DF8005A71079B9AB2059BDA80059B09939DF8E7
:108E08001B30013B0493099B019A1A6000230893C5
:108E18001DE00198FFF734FB0390039B002B0ED055
:108E2800059B5B790133DAB2059B5A71099B039A5A
:108E38001A60039B019A1A60039B099304E0059842
:108E480000F00EF8002307E0089B01330893089A06
:108E5800049B9A42DDD3059B18460BB05DF804FBD2
:108E680000B58BB00190019B0793079B5B798DF848
:108E78001B30019B08939DF81B30013B0593002391
:108E8800099305E0089B1B680893099B0133099324
:108E9800099A059B9A42F5D3089B1B680493019B8A
:108EA8000893002309930BE0089B1B680393089918
:108EB8000498FFF727FB039B0893099B0133099349
:108EC8009DF81B30099A9A42EED300BF0BB05DF8AB
:108ED80004FB00B585B00190019B0393039B043309
:108EE80001211846FFF7D9F900BF05B05DF804FB6A
:108EF80000B587B00190019B0593059B04330121C0
:108F08001846FFF7E2F90346039303AB0493049B67
:108F18001B78002B02D10198FFF7A2FF00BF07B012
:108F28005DF804FB00B591B00390029101920093A3
:108F3800039B002B03D14349B620FFF720F9039B7D
:108F48000993039B0F93099BDB881A46099B5B795E
:108F580003FB02F3043B0893009A089B9A4203D34D
:108F68003849C420FFF70BF9099BDB880793009B5E
:108F78001A1D079BB2FBF3F30E93009B0433079A69
:108F8800B3FBF2F2079901FB02F29B1A0D93019BC6
:108F98001A68009B1344089A9A4203D2089A009BC5
:108FA800D31A01E0019B1B680C93019B0C9A1A6071
:108FB80005E00F9B1B680F930E9B013B0E930E9BC6
:108FC800002BF6D100230B93079A0D9BD31A0A9313
:108FD8000A9A0C9B934228BF13460A932AE0029AE6
:108FE8000B9B134406930F9A0D9B1344043305936C
:108FF8009DF84830002B05D00A9A0599069807F085
:109008009DF904E00A9A0699059807F097F9002354
:109018000D930F9B1B680F930C9A0A9BD31A0C9302
:109028000B9A0A9B13440B93079A0C9B934228BFF5
:1090380013460A930C9B002BD1D100BF11B05DF8E9
:1090480004FB00BFB00F030000B589B00590049180
:1090580003920293039B079307AA00230093029BA2
:1090680004990598FFF75EFF079B039A9A4203D07D
:109078000349F620FFF783F800BF09B05DF804FB49
:10908800B00F030000B589B00590049103920293D4
:10909800039B079307AA01230093029B0499059851
:1090A800FFF740FF079B039A9A4204D004494FF404
:1090B8008070FFF764F800BF09B05DF804FB00BFDB
:1090C800B00F030082B003468DF807309DF80730D3
:1090D80003F01F0206499DF907305B09012000FAD9
:1090E80002F2603341F8232000BF02B0704700BF8E
:1090F80000E100E000B585B00020FEF7F9FFF1EED1
:10910800103A0193019B0393039B23F09F0302935F
:10911800029BE1EE103ABFF35F8F2620FFF7D2FFE4
:109128000020FEF7F9FF039B03F00703002B03D091
:1091380003497D20FFF723F800BF05B05DF804FB65
:10914800AC10030008B5FFF7D5FF20BF40BF20BF14
:1091580000BF08BD00B583B001900091019B002BB2
:1091680003D108497720FFF70AF8019B9B68009A0A
:109178009A4202D2009B013300E00023184603B054
:109188005DF804FB0411030084B00190019B1B6887
:109198001B680393019B1B685B680293029A039BFD
:1091A8009A4203D3029A039BD31A06E0019B9A685A
:1091B800039BD21A029B13440133184604B070472C
:1091C80000B585B00190019B002B03D10D498A2081
:1091D800FEF7D5FF019B1B681B680393019B1B6867
:1091E8005B68029302990198FFF7B4FF0246039B5C
:1091F80093420CBF01230023DBB2184605B05DF88B
:1092080004FB00BF0411030010B586B00190009163
:1092180000230593019B002B03D152499520FEF7AB
:10922800AEFF009B002B03D14E499620FEF7A7FF07
:109238000020FEF75DFF0198FFF7C2FF03468DF897
:1092480013309DF8133083F00103DBB2002B03D1F8
:10925800019B1B7C002B7AD1019B1B685B680393E5
:10926800019B1B685A68019B1C6811460198FFF70F
:1092780071FF034663609DF81330002B0AD0019BF1
:109288001B681A68019B1C6811460198FFF762FF6A
:1092980003462360019BDB68013B072B37D801A2FB
:1092A80052F823F0CD920200DD92020017930200DB
:1092B800EF9202001793020017930200179302001F
:1092C80001930200019B5A68039B1344009A127889
:1092D8001A702DE0019B5A68039B5B001344009AA7
:1092E80012881A8024E0019B5A68039B9B00134450
:1092F800009A12681A601BE0019B5A68039BDB0006
:109308001A44009BD3E90034C2E9003410E0019B01
:109318005B681946019BDB68039A02FB03F30B4465
:109328001846019BDB681A46009907F007F800BF4A
:109338000198FFF729FF0290019B1B689B68029A1E
:109348009A4207D9019B1B68029A9A6002E004239B
:10935800059300E000BF0020FEF7DEFE059B1846DF
:1093680006B010BD0411030010B586B00390029139
:1093780013468DF8073000230593039B002B03D178
:109388004249D920FEF7FBFE029B002B03D13F493F
:10939800DA20FEF7F4FE0020FEF7AAFE039800F09C
:1093A80077F8034683F00103DBB2002B65D0039BFB
:1093B8001B681B6804939DF8073083F00103DBB238
:1093C800002B0AD0039B1B681A68039B1C68114674
:1093D8000398FFF7BFFE03462360039BDB68013B4E
:1093E800072B38D801A252F823F000BF15940200C9
:1093F800259402005F940200379402005F940200F3
:109408005F9402005F94020049940200039B5A682B
:10941800049B13441A78029B1A7030E0039B5A6825
:10942800049B5B0013441A88029B1A8027E0039B65
:109438005A68049B9B0013441A68029B1A601EE03A
:10944800039B5A68049BDB001344D3E90034029A57
:10945800C2E9003413E0039B5B681946039BDB6891
:10946800049A02FB03F30B441946039BDB681A4674
:10947800029806F063FF00BF01E005230593002072
:10948800FEF74AFE059B184606B010BD04110300FE
:1094980000B585B00190019B002B04D10B4940F227
:1094A8000A20FEF76CFE019B1B681B680393019B57
:1094B8001B685B680293039A029B9A420CBF0123C4
:1094C8000023DBB2184605B05DF804FB0411030065
:1094D80082B00190019B9B6800229A60019B9B6867
:1094E80000221A61019B9B6800225A61019B9B68BC
:1094F8000022DA60019B9B6800225A60019B9B68EE
:1095080000221A6000BF02B07047000000B585B0A5
:109518000190019800F00EF80390039B002B01D0F6
:10952800039B00E0024B184605B05DF804FB00BF42
:109538005811030086B00190164B0593164B0493FF
:109548001FE0049A059BD31ADB10DA0F13445B1053
:10955800DB00059A13440393039B1B680293029A4A
:10956800019B9A4202D9039B04930AE0029A019B49
:109578009A4203D2039B0833059302E0039B5B687E
:1095880004E0059A049B9A42DBD30023184606B0F0
:10959800704700BF5815030080160300BFF34F8FB4
:1095A800054BDB6803F4E0620349044B1343CB60CB
:1095B800BFF34F8F00BFFDE700ED00E00400FA05A0
:1095C800024B034A1A6000BF704700BF10310020E9
:1095D8000090D00308B500F067F90346002B06D0C9
:1095E8009F4B1B681B0A9F4A03F01F03136000F080
:1095F80087F90346002B02D09B4B9C4A1A6000F067
:109608009BF90346002B06D0994B1B685B0B994AC4
:1096180003F00703136000F0BBF90346002B05D0E5
:10962800954BDB68944A23F08073D36000F0CCF943
:109638000346002B0ED04FF080430022C3F80C21C4
:109648004FF080430022C3F810214FF080430022DE
:10965800C3F8382500F0E4F90346002B02D0874B05
:1096680003221A6000F0F8F90346002B0BD0844B54
:1096780005221A60834B01221A60834B00221A606C
:10968800824B3F221A6000F003FA0346002B76D083
:109698004FF080537E4AD3F80434C2F820354FF097
:1096A80080537B4AD3F80834C2F824354FF08053EE
:1096B800774AD3F80C34C2F828354FF08053744AEF
:1096C800D3F81034C2F82C354FF08053704AD3F8D1
:1096D8001434C2F830354FF080536D4AD3F818343B
:1096E800C2F834354FF08053694AD3F81C34C2F8B5
:1096F80040354FF08053664AD3F82034C2F84435D9
:109708004FF08053624AD3F82434C2F848354FF0FA
:1097180080535F4AD3F82834C2F84C354FF0805351
:109728005B4AD3F82C34C2F850354FF08053584A6E
:10973800D3F83034C2F854354FF08053544AD3F834
:109748003434C2F860354FF08053514AD3F8383476
:10975800C2F864354FF080534D4AD3F83C34C2F810
:1097680068354FF080534A4AD3F84034C2F86C3514
:109778004FF08053464AD3F84434C2F8703500F0AD
:10978800A3F90346002B05D0424B1B68424A03F05D
:109798004F03136000F0C4F90346002B0DD04FF0BF
:1097A8008043D3F8003403F00103002B05D04FF0B9
:1097B80080436FF00102C3F8002400F0DDF903468E
:1097C800002B05D0354B1B68344A43F48063136083
:1097D800334BD3F88830324A43F47003C2F88830E8
:1097E800BFF34F8FBFF36F8F4FF01023D3F80032C2
:1097F800002B05DB4FF01023D3F80432002B2BDAB3
:10980800284B0122C3F8042500BF264BD3F80034A7
:10981800002BFAD04FF010231522C3F8002200BF06
:10982800204BD3F80034002BFAD04FF01023152228
:10983800C3F8042200BF1B4BD3F80034002BFAD026
:10984800184B0022C3F8042500BF164BD3F8003488
:10985800002BFAD0FFF7A2FEFFF7B2FE00BF08BD4B
:10986800240300104035014074C007400DF0ADBA24
:10987800440200103C050040F0ED00E0A005004067
:1098880010560040885600401856004014560040B4
:1098980000C0004058020010E40E00403C17004091
:1098A80000ED00E000E00140124B1B68DBB2062B24
:1098B8001DD1114B1B6803F00F03002B17D10F4B61
:1098C8001B6803F0F003302B01D1012310E00B4B90
:1098D8001B6803F0F003402B01D1012308E0074B7C
:1098E8001B6803F0F003502B01D1012300E0002393
:1098F80018467047E00F00F0E40F00F0E80F00F0A2
:109908000A4B1B68DBB2062B0DD1094B1B6803F011
:109918000F03002B07D1074B1B6803F0F003302B14
:1099280001D1012300E0002318467047E00F00F042
:10993800E40F00F0E80F00F0124B1B68DBB2062BB7
:109948001DD1114B1B6803F00F03002B17D10F4BD0
:109958001B6803F0F003302B01D1012310E00B4BFF
:109968001B6803F0F003402B01D1012308E0074BEB
:109978001B6803F0F003502B01D1012300E0002302
:1099880018467047E00F00F0E40F00F0E80F00F011
:109998000A4B1B68DBB2062B0DD1094B1B6803F081
:1099A8000F03002B07D1074B1B6803F0F003302B84
:1099B80001D1012300E0002318467047E00F00F0B2
:1099C800E40F00F0E80F00F0124B1B68DBB2062B27
:1099D8001DD1114B1B6803F00F03002B17D10F4B40
:1099E8001B6803F0F003302B01D1012310E00B4B6F
:1099F8001B6803F0F003402B01D1012308E0074B5B
:109A08001B6803F0F003502B01D1012300E0002371
:109A180018467047E00F00F0E40F00F0E80F00F080
:109A28000A4B1B68DBB2062B0DD1094B1B6803F0F0
:109A38000F03002B07D1074B1B6803F0F003302BF3
:109A480001D1012300E0002318467047E00F00F021
:109A5800E40F00F0E80F00F00A4B1B68DBB2062B9E
:109A68000DD1094B1B6803F00F03002B07D1074BDF
:109A78001B6803F0F003302B01D1012300E0002321
:109A880018467047E00F00F0E40F00F0E80F00F010
:109A98000A4B1B68DBB2062B0DD1094B1B6803F080
:109AA8000F03002B07D1074B1B6803F0F003502B63
:109AB80001D1012300E0002318467047E00F00F0B1
:109AC800E40F00F0E80F00F0124B1B68DBB2062B26
:109AD8001DD1114B1B6803F00F03002B17D10F4B3F
:109AE8001B6803F0F003302B01D1012310E00B4B6E
:109AF8001B6803F0F003402B01D1012308E0074B5A
:109B08001B6803F0F003502B01D1012300E0002370
:109B180018467047E00F00F0E40F00F0E80F00F07F
:109B2800124B1B68DBB2062B1DD1114B1B6803F0CF
:109B38000F03002B17D10F4B1B6803F0F003302BDA
:109B480001D1012310E00B4B1B6803F0F003402BFD
:109B580001D1012308E0074B1B6803F0F003502BE9
:109B680001D1012300E0002318467047E00F00F000
:109B7800E40F00F0E80F00F0064B1B68062B05D138
:109B8800054B1B68062B01D1012300E00023184672
:109B9800704700BF300100103401001082B00190FE
:109BA8004FF08042019BC2F8043300BF02B07047F7
:109BB80082B001904FF08042019BC2F8083300BF89
:109BC80002B0704782B003468DF807309DF8073021
:109BD80003F1804301221A6000BF02B0704784B0CD
:109BE8000346ADF80630BDF8063003F18043002285
:109BF8001A60BDF8063003F180431B680393039B8A
:109C080000BF04B0704782B00346ADF80630BDF817
:109C1800063003F180431B68002B14BF0123002387
:109C2800DBB2184602B0704784B0124BDB6803936E
:109C3800104A039B43F08073D3600F4B1B68029359
:109C48000D4A029B43F0010313600B4B5B680193C1
:109C580000BF094B5A68019BD31AB3F50A5FF8D3C2
:109C6800054A029B1360034A039BD36000BF04B0FC
:109C7800704700BFF0ED00E0001000E000B585B0CF
:109C88000190019B002B03D10D49A020FEF777FA24
:109C9800002303930B4B1B79002B02D085230393DE
:109CA80008E0084A019B1360064B01221A71054B14
:109CB80000225A71039B184605B05DF804FB00BFEB
:109CC8001C170300003C002008B50B4B1B79002B28
:109CD80003D10A49E620FEF752FA4FF48270FFF7E3
:109CE8007EFF0220FFF75AFFFFF79EFF0820FFF7CD
:109CF80069FF00BF08BD00BF003C00201C1703001F
:109D080008B54FF48070FFF77EFF0346002B14D090
:109D18004FF48070FFF763FF0120FFF749FF114BF5
:109D28005B7983F00103DBB2002B06D00D4B0122D7
:109D38005A710C4B1B68002098474FF48270FFF74C
:109D480062FF0346002B0AD04FF48270FFF747FFEB
:109D58000220FFF72DFF034B1B680120984700BF27
:109D680008BD00BF003C002000B583B00346ADF835
:109D78000630BDF80630184600F026F803461B6882
:109D8800012B0CBF01230023DBB2184603B05DF89A
:109D980004FB00B585B00346ADF80630BDF80630C3
:109DA800184600F011F803461A4600231360BDF860
:109DB8000630184600F008F803461B680393039B17
:109DC80000BF05B05DF804FB82B00346ADF806306D
:109DD800BDF8063003F1804303F5C043184602B0CE
:109DE8007047000082B00190034BD3F80423019B15
:109DF8001340184602B070470060004082B00190DE
:109E0800054A019B03F5A27352F823301B0A03F09D
:109E18001F03184602B070470060004082B00190EE
:109E2800064A019B03F5A27352F823301B0C03F07A
:109E38000303DBB2184602B0704700BF0060004061
:109E480000B583B00190019B1B681F2B04D90549FD
:109E58004FF4F370FEF793F94FF0A043184603B0A0
:109E68005DF804FBA417030000B585B001900B460C
:109E78008DF8033001AB1846FFF7E2FF0390019A13
:109E8800039B02F5E07253F82230019A23F4403123
:109E9800039B02F5E07243F82210019A039B02F536
:109EA800E07253F822309DF8032012041146019AFB
:109EB8001943039B02F5E07243F8221000BF05B076
:109EC8005DF804FB00B585B0019001AB1846FFF7BB
:109ED800B7FF0390019A039B02F5E07253F8223012
:109EE8001B0C03F00303DBB2184605B05DF804FB56
:109EF80082B00190019BD3F81035184602B0704724
:109F080000B587B00390029101924FF0A0430493EB
:109F1800039A029B1344012B04D9124940F21630CC
:109F2800FEF72DF9039B059311E0059B9B0006AAFC
:109F3800134453F8083C1846FFF7DAFF0246019B22
:109F48001A60019B04330193059B01330593039A1F
:109F5800029B1344059A9A42E7D300BF07B05DF805
:109F680004FB00BFA417030084B001900091009B7C
:109F78000393019BDB080293019B03F00703019302
:109F88000122019B02FA03F30399029A0A44127808
:109F98001340184604B0704784B001900091009BAC
:109FA8000393019BDB080293019B03F007030193D2
:109FB800039A029B13441B785AB20121019B01FAB0
:109FC80003F35BB2134359B2039A029B1344CAB218
:109FD8001A7000BF04B0704782B00190044A019B18
:109FE8001344303393F90030184602B0704700BF6D
:109FF800083C002082B00190034A019B52F82330AC
:10A00800184602B0704700BF083C002000B595B064
:10A0180000231093002303934FF48073ADF83A3074
:10A028000123129300230F9321E0BDF83A3018461C
:10A03800FFF79AFE0346002B0ED01298FFF7D2FEC8
:10A048000346002B08D0BDF83A301846FFF7A1FEAA
:10A05800109A129B13431093129B5B001293BDF846
:10A068003A300433ADF83A300F9B01330F930F9B0E
:10A07800072BDAD94FF4BE70FFF776FE0346002BA4
:10A088000DD04FF4BE70FFF784FE109B43F00043E1
:10A09800109303AB1A4601210020FFF731FF109BF4
:10A0A800DBB2002B29D00123129300230F9321E068
:10A0B800129A109B1340002B16D00F98FFF79EFEA4
:10A0C8000D900F98FFF7AAFE03468DF833300F98CE
:10A0D800FFF790FF0B900B9B002B05D09DF83320CA
:10A0E8000B9B11460D989847129B5B0012930F9B90
:10A0F80001330F930F9B072BDAD9109B002B80F2AB
:10A10800EE8000238DF84F30002302930023119333
:10A118000AE0119B9B0014AA13444FF0FF3243F846
:10A128004C2C119B01331193119B002BF1D0002370
:10A138008DF84F3000230F9378E06B4A0F9B134440
:10A14800503393F900308DF82B309DF82B3023F0E5
:10A15800C0030993644A0F9B1344503393F90030AA
:10A16800B3F1FF3F5FD001AB19460998FFF7FCFE3A
:10A178000346002B57D09DF82B309B098DF82330D0
:10A188000998FFF729FF03461846FFF733FF0790A2
:10A19800079B002B03D19DF82330032B43D19DF857
:10A1A8002330032B04D102AB19460998FFF7F4FEBC
:10A1B8000998FFF787FE03468DF81B3003AB194655
:10A1C8000998FFF7D1FE0590059B002B03D09DF859
:10A1D8001B30022B06D0059B002B24D19DF81B3089
:10A1E800032B20D19DF82330032B13D19DF81B306E
:10A1F800022B01D1032300E002238DF813309DF8D0
:10A20800133019460998FFF72FFE9DF84F30013398
:10A218008DF84F30079B002B05D09DF82320079B16
:10A228001146099898470F9B01330F930F9B032BF7
:10A2380083D99DF84F30002B4CD001238DF84E3038
:10A248006B461A4601210020FFF75AFE002311939E
:10A2580014E0119B9B0014AA134453F8502C119B33
:10A268009B0014A90B4453F8443C9A4203D00023A2
:10A278008DF84E3005E0119B01331193119B002B93
:10A28800E7D09DF84E30002B03D000238DF84F30D7
:10A2980020E0002311931AE0119B9B0014AA134499
:10A2A80053F8502C119B9B0014A90B4443F8442CE1
:10A2B800119B9B0014AA134453F8482C119B9B0034
:10A2C80014A90B4443F84C2C119B01331193119B97
:10A2D800002BE1D09DF84F30002B7FF428AF00BF52
:10A2E80015B05DF804FB00BF083C002008B5064B1C
:10A2F8001B68002B03D105495120FDF740FF024B95
:10A308001B68984700BF08BD643C0020381803004C
:10A3180082B00190019B044A934201D1034B00E0B3
:10A328000023184602B0704700200040643C00201B
:10A3380000B587B001900091019B002B03D118490B
:10A348007720FDF71CFF0198FFF7E2FF0590059BBA
:10A35800002B1ED000238DF813300020FDF7C8FE17
:10A36800059B1B79002B03D001238DF8133005E0E2
:10A37800059B009A1A60059B01221A710020FDF7BF
:10A38800CBFE9DF81330002B03D011230393039BBE
:10A3980002E000230393039B184607B05DF804FB13
:10A3A8003818030000B585B00190019B002B03D13C
:10A3B8000A499B20FDF7E3FE0198FFF7A9FF0390E8
:10A3C800039B002B05D0039B00221A60039B0022ED
:10A3D8001A7100BF05B05DF804FB00BF3818030010
:10A3E80082B003468DF807309DF8073003F18043AB
:10A3F80001221A6000BF02B070474FF08043D3F8C3
:10A4080018341B0C03F00103002B14BF0123002395
:10A41800DBB21846704782B003468DF8073000BF9C
:10A4280002B0704700B587B04FF400410020FCF738
:10A4380067F90590059B0493049B002B04D0404AC0
:10A4480035210498FDF77AF9FCF7F0F83D48FFF755
:10A4580015FC0590059B0393039B002B04D0384AF9
:10A468003A210398FDF76AF9FFF72EFCFFF7C5FFBD
:10A47800034683F00103DBB2002B02D00820FFF76C
:10A48800AFFF00F06BFD0590059B0293029B002B2C
:10A4980004D02B4A46210298FDF750F900F05EF8E7
:10A4A80000F086F800F0A6F9034683F00103DBB25A
:10A4B800002B14D0244A254BD31ADB081B0443F085
:10A4C800010323491846FCF7F3FB03230193019B7F
:10A4D800002B04D01A4A50210198FDF72FF900F0FB
:10A4E800FBF9034683F00103DBB2002B14D0164AB4
:10A4F800164BD31ADB081B0443F001031549184611
:10A50800FCF7D6FB03230093009B002B04D00C4AD6
:10A5180057210098FDF712F900F04AF80A4A0B4B48
:10A52800D31ADB081B0443F003030B491846FCF756
:10A53800BFFB00BFFCF7BAFC0346002BFAD1FEE7CD
:10A54800141A03001FA40200F80B0300C00B030039
:10A55800501A0300881A0300D01A030000B583B00C
:10A568000023ADF804300223ADF802300DF10203E8
:10A5780001AA19214EF2C20004F098FF094A0A4BB9
:10A58800D31ADB081B0443F003009DF804301A4675
:10A598009DF805300549FCF7AAFB00BF03B05DF83C
:10A5A80004FB00BFF80B0300C00B0300941B03005F
:10A5B80000B583B0564A574BD31ADB081B0443F047
:10A5C800030355491846FCF773FB514A514BD31AFC
:10A5D800DB081B0443F0030350491846FCF768FBEB
:10A5E8004EF2F003ADF8063009E0BDF80630184623
:10A5F80000F0A0F8BDF806300133ADF80630BDF81C
:10A6080006304EF2F3029342EFD9414A414BD31A36
:10A61800DB081B0443F0030341491846FCF748FBD9
:10A628004EF2E003ADF8063009E0BDF806301846F2
:10A6380000F080F8BDF806300133ADF80630BDF8FB
:10A6480006304EF2E3029342EFD9314A314BD31A26
:10A65800DB081B0443F0030332491846FCF728FBC8
:10A668004EF2E80000F066F84EF2EF0000F062F8F3
:10A67800274A284BD31ADB081B0443F003032A4953
:10A688001846FCF715FB4FF2D013ADF8063009E079
:10A69800BDF80630184600F04DF8BDF80630013315
:10A6A800ADF80630BDF806304FF2DF129342EFD90D
:10A6B800174A184BD31ADB081B0443F003031B4942
:10A6C8001846FCF7F5FA4FF2E013ADF8063009E04A
:10A6D800BDF80630184600F02DF8BDF806300133F5
:10A6E800ADF80630BDF806304FF2E1129342EFD9CB
:10A6F800074A084BD31ADB081B0443F003030C4931
:10A708001846FCF7D5FA00BF03B05DF804FB00BF9C
:10A71800F80B0300C00B0300C81B0300D81B030081
:10A72800F81B0300241C0300441C03006C1C0300DA
:10A73800941C030000B5ADF2144D02460DF106035A
:10A748001A804FF6FF73CDF80C340DF10A0340F26E
:10A75800FF321A800DF10A0203A90DF106031B88C6
:10A76800184604F0F1FECDF80C04DDF80C34002B8B
:10A778001ED11C4A1C4BD31ADB081B0443F00300F0
:10A788000DF106031A880DF10A031B881749FCF717
:10A79800AEFA144A144BD31ADB081B0443F0030027
:10A7A8000DF10A031A8803AB1946FCF7CFFA0DE03E
:10A7B8000C4A0D4BD31ADB081B0443F003000DF1C0
:10A7C80006031B881A460A49FCF780FA00BFFCF703
:10A7D8006DFB0346002BFAD100BF0DF2144D5DF856
:10A7E80004FB00BFF80B0300C00B0300E41C0300CC
:10A7F800081D030000B585B04FF6FF7303934EF2B2
:10A80800EF03ADF80A301D4A1D4BD31ADB081B04B1
:10A8180043F003031B491846FCF74AFABDF80A003F
:10A8280040F247130093184B0022402104F0D8FE51
:10A838000390039B002B0CD0104A114BD31ADB0852
:10A848001B0443F0010311491846FCF731FA0023B1
:10A858000FE0BDF80A3040F24711184600F018F82A
:10A86800034683F00103DBB2002B01D0002300E094
:10A878000123184605B05DF804FB00BFF80B030080
:10A88800C00B03007C1E0300341D0300DC1E030004
:10A8980010B489B003460A46ADF806301346ADF841
:10A8A80004304FF6FF730793BDF804301B0A9BB2C0
:10A8B8008DF81B30BDF804308DF81A30054B03AC09
:10A8C8000FCB07C423700123184609B05DF8044B69
:10A8D800704700BF081F030008B500F003F80346DF
:10A8E800184608BD00B5FFB04EF2EF03ADF8F631DB
:10A8F8003A4A77AB07CA83E80700394A65AB11467D
:10A908004822184605F01AFD55AB4022002118468A
:10A9180005F03DFD4023549365AB02337C934623F9
:10A928007B9354AB55AA7B997C9805F05CFA7A9096
:10A938007A9B002B01D000234CE04CAB2022002155
:10A94800184605F024FD20234B9377AA16A84BAB95
:10A9580001934CAB00930C23224900F0D0FA7A9073
:10A968007A9B002B01D0002334E002AB1846502319
:10A978001A46002105F00BFD02AB1B4A1A6002AB18
:10A988001A4A5A6002ABBDF8F6211A814B98549BBB
:10A998004CAA02A9019355AB00930346002000F08E
:10A9A800B3F97A90124A134BD31ADB081B0443F00D
:10A9B8000300BDF8F6217A9B002B01D10E4B00E075
:10A9C8000E4B0F49FCF793F97A9B002B01D000231B
:10A9D80000E0012318467FB05DF804FB641F030004
:10A9E800701F0300EC1F03007052464DE82203005D
:10A9F800F80B0300C00B0300181F0300201F0300FF
:10AA0800281F030000B583B01F4B0193019B02224E
:10AA18001A61019B02225A61019B1C4A9A61019B9F
:10AA28001B4ADA61019B4FF400721A62019B0022F3
:10AA38009A62019B00225A62019B0022DA62019B02
:10AA4800124A9A64019B134ADA64019B10221A6520
:10AA5800019B00229A65019B00225A65019B0022F6
:10AA6800DA65019B07330C49184605F0C3FC019BC6
:10AA78000A49184605F0BEFC019B20229A7100BFC6
:10AA880003B05DF804FB00BF6C3C0020B81F030056
:10AA9800E43C0020E43E0020C41F0300C81F03005C
:10AAA80000B589B003900291019200230693039B9D
:10AAB800DB680593039B1B690493049A059B9A42E0
:10AAC80005D9049A059BD31A013B079307E0039B1A
:10AAD8009A680499059BCB1A1344013B0793039B7F
:10AAE8009A68059BD31A079A934228BF134607937F
:10AAF800079A019B934228BF13460793039B5A6802
:10AB0800059B1344079A0299184605F017FC069A04
:10AB1800079B13440693029A079B13440293019AD6
:10AB2800079BD31A0193059A079B13440593039B2C
:10AB38009B68059A9A4201D100230593039B059AC5
:10AB4800DA60019B002BB5D1069B184609B05DF869
:10AB580004FB00B589B0039002910192039BDB6866
:10AB68000793039B9A68079BD31A0693069A019B3F
:10AB78009A420ED9039B5A68079B1344019A02997B
:10AB8800184605F0DBFB079A019B1A44039BDA6021
:10AB98001AE0069B0593039B5A68079B1344059A82
:10ABA8000299184605F0CAFB019A069BD31A059329
:10ABB800039B5868029A069B1344059A194605F0A8
:10ABC800BDFB039B059ADA6000BF09B05DF804FB82
:10ABD80086B00190019B1B690493019BDB6803937A
:10ABE800049A039B9A4208D8019B9A68039BD21A3D
:10ABF800049B1344013B059304E0049A039BD31A76
:10AC0800013B0593059B184606B0704700B589B00F
:10AC1800039002910192029B0693039B5A1C1346D0
:10AC28005B001344DB001F4A13440593059B5B69D3
:10AC3800012B17D0012B02D3022B23D029E0059832
:10AC4800FFF7C6FF0490049A019B9A4202D20023A0
:10AC5800079321E0019B0793019A06990598FFF74E
:10AC680078FF19E00598FFF7B3FF0490019A049B59
:10AC7800934228BF13460793079A06990598FFF74A
:10AC880068FF09E0019A06990598FFF709FF079000
:10AC980002E00023079300BF079B184609B05DF840
:10ACA80004FB00BF6C3C002008B5FFF7ABFE00BFFB
:10ACB80008BD82B001900091019B002B02D148F29F
:10ACC800105308E0019B1B68009A9A4202D048F290
:10ACD800405300E00023184602B0704784B0039048
:10ACE80002910192039B002B02D148F2105307E016
:10ACF800029A019B9A4202D048F2115300E00023C5
:10AD0800184604B07047000090B58FB002AFF860E5
:10AD1800B9607A603B600023FB62BB68BB622B4969
:10AD2800B86AFFF7C6FF78627B6A3B623B6A002B12
:10AD380001D03B6A46E0BB6A5B68FB61FB695B79F3
:10AD48005B001A46796C386CFFF7C8FF78627B6A3B
:10AD5800BB61BB69002B01D0BB6933E07B68002B6A
:10AD680002D148F210532DE0194B7B6100233B615F
:10AD78007B69002B02D148F2035323E0FB68002BC8
:10AD880016D13B69002B13D03B6907330733DB0827
:10AD9800DB00ADEB030D02AB0733DB08DB00FB6226
:10ADA800FB6A002B02D148F215530BE0FB6AFB60EB
:10ADB8003B6C00937C693B687A68B968F868A0477F
:10ADC80078627B6A18463437BD4690BD7052464D4E
:10ADD80075FC020082B00190019B002B02D148F261
:10ADE800015308E0019B1B68044A934202D048F2D1
:10ADF800025300E00023184602B070476E524648DE
:10AE080000B585B001900091019B002B02D148F25A
:10AE1800015318E0009B002B02D148F2105312E0B6
:10AE2800019B0393039B009A5A60009B1B6801983F
:10AE380098470290029B002B01D0029B03E0039BE2
:10AE4800034A1A600023184605B05DF804FB00BFEA
:10AE58006E52464800B587B0039002910192039B59
:10AE680005930598FFF7B6FF0490049B002B01D0CB
:10AE7800049B13E0029B002B02D148F210530DE013
:10AE8800019B002B01D1002308E0059B5B685B68F0
:10AE9800019A0299039898470490049B184607B0B2
:10AEA8005DF804FB00B587B0039002910192039B03
:10AEB80005930598FFF78EFF0490049B002B01D0A3
:10AEC800049B18E0029B002B02D148F2135312E0B6
:10AED800019B1A68059B5B68DB689A4202D248F2BC
:10AEE800145308E0059B5B689B68019A02990398D4
:10AEF80098470490049B184607B05DF804FB00B51A
:10AF080089B00390029101920093039B0793002359
:10AF1800069302990798FFF773FF0590059B002B8E
:10AF280001D0059B16E0009A01990798FFF792FF58
:10AF38000590059B002B01D0059B0BE00B9A0A9905
:10AF48000798FFF7AFFF0590059B002B01D0059BE5
:10AF580000E00023184609B05DF804FB00B585B091
:10AF6800134A144BD31ADB080293134B01221A70AD
:10AF78000023039310E0039BDB000E4A1344019364
:10AF8800019B1B6898470090009B002B01D0009BF9
:10AF98000AE0039B01330393039A029B9A42EAD384
:10AFA800054B02221A700023184605B05DF804FB11
:10AFB800C00B0300B80B0300F43E0020084B1B78BD
:10AFC800DBB2022B04D0064B1B78DBB2012B01D17C
:10AFD800012300E0002303F00103DBB218467047A9
:10AFE800F43E00206B4618467047000008B5FFF78E
:10AFF800F9FF0246034B9A4201D2012300E00023E5
:10B00800184608BD00E0002080B584B000AF786025
:10B0180039600023FB60FFF7E9FF0346002B0DD0E2
:10B028002D4A2E4BD31ADB081B0443F001032C498D
:10B038001846FBF73DFE48F2195349E0FFF7BEFFFB
:10B04800034683F00103DBB2002B02D04FF4054323
:10B058003EE0244B1B68002B06D0234B1B68234A79
:10B06800934201D1002333E07B68002B02D048F2E1
:10B0780017532DE03B68002B02D048F2175327E006
:10B08800184B1B4A1A601B4B3B603B68002B0DD1C9
:10B0980084B06B460733DB08DB00FB60FB68002BE2
:10B0A80002D148F2155313E0FB683B600D4B1B6857
:10B0B8003968184604F090FEB860BB68002B06D1CA
:10B0C800094B0A4A1A60074B1B680B4A1A60BB688F
:10B0D80018461037BD4680BDF80B0300C00B0300AF
:10B0E800D01F0300F83E0020FC3E00206572E54BAF
:10B0F800003F0020043F00206169614D00B585B024
:10B108000190019B08330393039805F0F7FA002395
:10B11800184605B05DF804FB00B587B003900291AE
:10B128000192039B08330593019A0299059805F04B
:10B138000BFB0023184607B05DF804FB00B587B089
:10B14800039002910192039B083305930599029895
:10B1580005F0AAFB019B20221A600023184607B0BD
:10B168005DF804FB82B003468DF807309DF8073080
:10B1780003F01F0205499DF907305B09012000FA19
:10B1880002F241F8232000BF02B0704700E100E05E
:10B1980082B0034600918DF807309DF90730002BE7
:10B1A8000CDA009BDAB20C499DF8073003F00F0364
:10B1B800043B5201D2B20B441A7609E0009BDAB282
:10B1C80006499DF907305201D2B20B4483F8002397
:10B1D80000BF02B0704700BF00ED00E000E100E0F2
:10B1E80000B583B003460A468DF8073013468DF83C
:10B1F80006309DF80630072B03D908496B20FCF769
:10B20800BEFF9DF806209DF9073011461846FFF746
:10B21800BFFF00BF03B05DF804FB00BF04200300BC
:10B2280000B583B003468DF807309DF907301846FE
:10B23800FFF798FF00BF03B05DF804FB84B00390EC
:10B2480002910192039B029A02F5A872019943F8B0
:10B25800221000BF04B0704782B001900091019B9A
:10B26800009AC3F8042300BF02B0704782B001906F
:10B278000091019B009AC3F8082300BF02B07047F1
:10B2880082B001900091019BD3F80423009B1340E6
:10B29800184602B0704782B001900B46ADF80230F4
:10B2A800BDF80230019A13441B68184602B0704773
:10B2B80084B001900B46ADF80230BDF80230019A17
:10B2C800134400221A60BDF80230019A13441B6827
:10B2D8000393039B00BF04B0704782B00190019BA9
:10B2E800D3F80435184602B07047000000B583B0A3
:10B2F80001900091009BB3F5805F04D306494FF499
:10B30800BA70FCF73CFF019B009AC3F8082500BF00
:10B3180003B05DF804FB00BF3C20030082B001903D
:10B328000B468DF803309DF80320019B13441A4601
:10B338000123136000BF02B0704782B001900091F2
:10B34800019B009AC3F8442300BF02B0704782B043
:10B3580001900091019B009AC3F8482300BF02B0F6
:10B368007047000000B587B0039002910192029BDC
:10B37800002B03D131495120FCF701FF019B002B21
:10B3880003D12E495220FCF7FAFE039B5B7919463C
:10B398002B4A019B42F82130039B5B791946294AC5
:10B3A8000B465B000B4413441B78002B03D0082387
:10B3B8000593059B3DE0039B93F90420029B9B7832
:10B3C80019461046FFF70CFF039B93F90430184603
:10B3D800FFF726FF039B1A68029B1B881946104635
:10B3E800FFF784FF039B5B791946029B1879154A7E
:10B3F8000B465B000B441344013302461A70039B4F
:10B408005B791946029BD8780E4A0B465B000B44C1
:10B418001344023302461A70039B5B791946094AA2
:10B428000B465B000B44134401221A70002305935A
:10B43800059B184607B05DF804FB00BF74200300A5
:10B44800083F00200C3F002000B583B00190019B0D
:10B458005B7919460F4A0B465B000B4413441B7873
:10B46800012B03D00C498220FCF789FE019B1B6845
:10B4780000211846FFF752FF019B5B791946054AE0
:10B488000B465B000B44134402221A7000BF03B042
:10B498005DF804FB0C3F00207420030000B587B062
:10B4A80001900091019B5B7919462B4A0B465B0082
:10B4B8000B4413441B78002B03D128499420FCF734
:10B4C8005EFE019B9B791A46009B934203D3234956
:10B4D8009520FCF754FE4FF48032009B02FA03F3E8
:10B4E8000493009B9BB250339BB29B00ADF80E3087
:10B4F800019B1B6804991846FFF729FF019B1B68ED
:10B5080004991846FFF7BCFE0346002B1CD0019B8C
:10B518001B6804991846FFF7A9FE019B1B68BDF834
:10B528000E2011461846FFF7B6FE0346002B0BD037
:10B53800019B1B68BDF80E2011461846FFF7B8FEA0
:10B548000D230593059B02E000230593059B1846F0
:10B5580007B05DF804FB00BF0C3F00207420030017
:10B5680000B58BB00390029101928DF80330039BD4
:10B578005B791946484A0B465B000B4413441B7819
:10B58800002B03D14549B420FCF7F9FD039B9B79B7
:10B598001A46029B934203D34049B520FCF7EFFDBE
:10B5A8004FF48032029B02FA03F30693029B9BB28C
:10B5B80050339BB29B00ADF81630039B1B6806996D
:10B5C8001846FFF7C4FE039B1B6806991846FFF749
:10B5D8004DFE019B23F07F430193039B5B79194642
:10B5E8002D4A0B465B000B44134401331B78002B98
:10B5F8002CD0039B1B68019A02991846FFF71EFE80
:10B60800039B1B681846FFF768FE0990099A019B7F
:10B61800D31A0893099A019B9A4205D2089B03F111
:10B62800FF1303F57F430893039B5B7919461A4A76
:10B638000B465B000B44134402331B781A46089BE5
:10B6480093420ADA0D230793079B21E0039B1B68AB
:10B65800019A02991846FFF7F1FD9DF80330002B77
:10B668000DD0039B1B68BDF8162011461846FFF73E
:10B678001FFE039B1B6806991846FFF7EDFD039B09
:10B688001B6806991846FFF758FE00230793079B87
:10B6980018460BB05DF804FB0C3F00207420030033
:10B6A80000B589B00390029101924FF4803306935C
:10B6B8004FF4A073ADF81E300023059330E00699CF
:10B6C8000398FFF7DDFD0346002B1ED0BDF81E30A2
:10B6D80019460398FFF7DFFD0346002B15D006999E
:10B6E8000398FFF734FE06990398FFF7BFFDBDF8EE
:10B6F8001E3019460398FFF7DBFD2D4A029B52F8CE
:10B708002330059AD2B210469847069B5B000693F1
:10B71800BDF81E300433ADF81E30059B0133059388
:10B72800059A019B9A42CAD34FF48073ADF81E3034
:10B7380001210398FFF7A4FD0346002B14D0BDF8A0
:10B748001E3019460398FFF7A6FD0346002B0BD0C1
:10B75800BDF81E3019460398FFF7AAFD144A029B4C
:10B7680052F82330042098474FF48273ADF81E3006
:10B7780002210398FFF784FD0346002B14D0BDF87F
:10B788001E3019460398FFF786FD0346002B0BD0A1
:10B79800BDF81E3019460398FFF78AFD044A029B3C
:10B7A80052F823300520984700BF09B05DF804FB24
:10B7B800083F002008B5042200210248FFF770FF67
:10B7C80000BF08BD0040024082B003468DF8073034
:10B7D8009DF8073003F01F0205499DF907305B0902
:10B7E800012000FA02F241F8232000BF02B070479E
:10B7F80000E100E082B003468DF807309DF807307D
:10B8080003F01F0206499DF907305B09012000FA81
:10B8180002F2203341F8232000BF02B0704700BF76
:10B8280000E100E082B0034600918DF807309DF9F1
:10B838000730002B0CDA009BDAB20C499DF8073070
:10B8480003F00F03043B5201D2B20B441A7609E00D
:10B85800009BDAB206499DF907305201D2B20B4477
:10B8680083F8002300BF02B0704700BF00ED00E07E
:10B8780000E100E082B00190019B1B0B5BB218460F
:10B8880002B0704700B583B003460A468DF807300A
:10B8980013468DF806309DF80630072B03D9084962
:10B8A8006B20FCF76CFC9DF806209DF907301146CB
:10B8B8001846FFF7B7FF00BF03B05DF804FB00BFF1
:10B8C800C420030000B583B003468DF807309DF906
:10B8D80007301846FFF778FF00BF03B05DF804FB98
:10B8E80000B583B003468DF807309DF90730184638
:10B8F800FFF780FF00BF03B05DF804FB82B0019042
:10B908000B468DF803309DF80330019A1344012249
:10B918001A6000BF02B0704784B001900B46ADF8C2
:10B928000230BDF80230019A134400221A60BDF8B3
:10B938000230019A13441B680393039B00BF04B0B1
:10B94800704782B001900B46ADF80230BDF8023066
:10B95800019A13441B68002B14BF01230023DBB298
:10B96800184602B0704782B001900091019BD3F84D
:10B978000022009BDB431A40019BC3F8002200BF52
:10B9880002B0704782B001900091019B009AC3F801
:10B99800042300BF02B0704782B001900091019B60
:10B9A800009AC3F8082300BF02B0704782B0019024
:10B9B800019B0522C3F8002500BF02B0704782B082
:10B9C8000190019B0022C3F8002500BF02B0704718
:10B9D80084B0039002910192039B029AC3F8082550
:10B9E800039B019AC3F80C2500BF04B0704782B0CE
:10B9F8000190019BD3F80835184602B0704782B011
:10BA08000190019BD3F80C35184602B0704782B0FC
:10BA180001900091019B009AC3F8242500BF02B051
:10BA2800704784B00190019BD3F8C4340393019B01
:10BA3800039AC3F8C424039B184604B0704782B025
:10BA480001900B468DF803309DF80320019BC3F845
:10BA5800882500BF02B0704782B00190019BD3F8DF
:10BA68001835DBB2184602B0704782B001900B4619
:10BA78008DF803309DF80320019BC3F81C2500BFF7
:10BA880002B0704782B001900091019B009AC3F800
:10BA9800002200BF02B0704700B583B00190019B3F
:10BAA8001B681F2B04D905494FF4F370FCF767FB9B
:10BAB8004FF0A043184603B05DF804FBFC200300D8
:10BAC80000B585B00190084611461A4603468DF820
