:020000022000DC
:106000000000012079630200616302006363020003
:10601000656302006763020069630200000000001C
:106020000000000000000000000000006B630200A0
:106030006D630200000000006F63020071630200E4
:10604000317C020073630200497E0200BD860200BB
:106050007363020073630200CD7C0200736302006D
:1060600073630200736302007363020073630200D0
:1060700073630200736302007363020073630200C0
:1060800073630200D96D0200736302007363020040
:10609000756E020073630200736302007363020093
:1060A0007363020073630200736302007363020090
:1060B0007363020073630200000000000000000030
:1060C0007363020073630200736302007363020070
:1060D0003583020073630200736302000000000056
:1060E00000000000000000000000000000000000B0
:1060F00000000000000000000000000000000000A0
:10610000000000000000000000000000000000008F
:10611000000000000000000000000000000000007F
:10612000000000000000000000000000000000006F
:10613000000000000000000000000000000000005F
:10614000000000000000000000000000000000004F
:10615000000000000000000000000000000000003F
:10616000000000000000000000000000000000002F
:10617000000000000000000000000000000000001F
:10618000000000000000000000000000000000000F
:1061900000000000000000000000000000000000FF
:1061A00000000000000000000000000000000000EF
:1061B00000000000000000000000000000000000DF
:1061C00000000000000000000000000000000000CF
:1061D00000000000000000000000000000000000BF
:1061E00000000000000000000000000000000000AF
:1061F000000000000000000000000000000000009F
:10620000364937480A1A02D0072291438D4635494C
:1062100035480A1A06D00722914381F309880222E1
:1062200082F3148831483249324A00F045F8324846
:106230003249334A00F040F832483349334A00F0DB
:106240003BF833483349344A00F036F83348344990
:10625000344A00F031F834483449354A00F02CF81B
:1062600034483549354A00F027F835483549002289
:1062700000F02DF834483549002200F028F8344861
:106280003449091A082903DB002202600430016046
:10629000314A90471F482049884205D0026804309F
:1062A00003B4904703BCF7E700208646EC46002085
:1062B00000212A4A9047FEE7884207D0521A05D0AB
:1062C000037801300B700131013AF9D170478842EF
:1062D00002D002700130FAE7704700000000012090
:1062E00000E000200000012000000120D4AA0200EC
:1062F000D0300020A8340020D8630200D863020008
:106300003CA50200D4AA0200D0300020D0300020EA
:10631000CCA50200CCA50200CCA50200CCA50200B1
:10632000CCA50200CCA50200CCA50200CCA50200A1
:10633000D4AA0200ACAE0200A8340020A834002089
:10634000A8340020763F0020783F0020783F0020CE
:10635000783F0020785F0020A1630200A57E020044
:10636000FEE7FEE7FEE7FEE7FEE7FEE7FEE7FEE705
:10637000FEE7FEE7704700BF1048804710484FF027
:106380000701884385460F4880470F48016841F45C
:1063900070010160BFF34F8FBFF36F8FFFF730BF06
:1063A0000A480B490B4A884207D0521A05D0037895
:1063B00001300B700131013AF9D170477563020069
:1063C000000001206179020088ED00E0CCA5020008
:0863D000D0300020D030002085
:1063D8007047000007B5044B0093044A402300F0BF
:1063E80032F803B05DF804FBF9630200A934002019
:1063F8002DE9F84389461446B2B10F4B0F4E0325D9
:10640800002743F00108224609EB0701002001F0AC
:106418002FFE0744241A48B933782BB14FF47A4039
:10642800C047013D02D13570BDE8F88301233370C0
:10643800002CE8D1F8E700BFD0A50200A83400205E
:10644800704701F049BEF0B595B01C46164608469F
:106458000D4601F04CF91A9B0D93CDE90864002410
:106468002346082205A928460A948DF82C400C9446
:1064780001F05BF9079B0293BDF81830ADF80C30BA
:10648800BDF81A30ADF80E309DF814308DF8114073
:1064980003F00302012A1DD1BDF81440059EC3F381
:1064A800C203C4F383148DF81030A20008230EA988
:1064B800284601F03AF9C6F3952608AB0093224620
:1064C80002AB0EA9304600F055FB284601F013F93F
:1064D80015B0F0BD022AF8D1BDF81640C3F3C203C7
:1064E800A4098DF810300827082C264628BF08264E
:1064F8003B4632460EA9284601F017F9A41B08AB03
:1065080002AA31460EA8374400F098FB002CEBD1C4
:10651800DBE7000008B5FFF794FF0421034800F00B
:1065280097FA034B01225A7108BD00BFBCA50200AF
:10653800D0300020037813F0040216D003F00303D0
:10654800012B03D0022B09D0012070470A6800886C
:106558000232C0F3831002440A60F5E70B684288F0
:10656800023303EB92130B60EEE71046704700000E
:106578002DE9F04F484C87B00F460546861C002091
:10658800019200F0DBFD23683B60D4E9012313444A
:10659800226801339B1A04F21C4704F5836A04F24B
:1065A8001448B34219D3019A0023002A6CD001225F
:1065B80062F3010343F0040365F389132168A268B9
:1065C8000A4003320E44002044F82230266000F0CE
:1065D800B7FD012007B0BDE8F08F0121384600F073
:1065E800D1FD504600F0E4FD404600F0E1FD0DF11C
:1065F80018096068D4F808B049F8100D00EA0B00D3
:10660800033004EB80004946FFF794FF029BB0B9C2
:106618000BEA030204EB8202D16803919A1C01334E
:1066280003EA0B0B04EB8B0C01F00303012B029222
:10663800DCF80CB020D0022B04D083460BE00BEA28
:106648000300DDE7BDF80E309B0903334FEA1B4B0F
:1066580002EB93030293404600F0ADFD08B1029BA4
:1066680063605946384600F08DFDD4E90123134490
:10667800226801339B1A94E7BDF80C30C3F38313E7
:106688004FEA1B4B1344E5E7022262F3010343F090
:10669800040365F39F5391E7BC3500200B4B0C486E
:1066A800FF2210B59A600022C3F81824C3E900221B
:1066B800C3F8142483F8202400F0D2FF044610B94C
:1066C800044801F005F9204610BD00BFBC35002084
:1066D80050A50200F4A5020030B50A4C71B10A4A6F
:1066E8000A49121BD20800239A4201D1002030BD6A
:1066F80031F82350854202D00133F5E7034654F8B8
:106708003300F4E76CA50200BCA50200D0300020DD
:10671800094B013903EBC000032909D8DFE801F070
:106728000A020406042070470079704740797047D0
:1067380000207047022070476CA50200034BD3E984
:106748000030C31A58425841704700BFBC3500207A
:106758002DE9F04385B0FFF7F1FF0646002840F029
:10676800F9807D4DC5F81804BFF34F8F6868AC6891
:1067780004AF47F8100D2040033005EB8000394680
:10678800FFF7D8FE009B18B1D5F81824002A5FD06F
:1067980004EA0302991C013305EB8202234005EB4E
:1067A8008303D268DB68029302F00303022B019291
:1067B800009162D1BDF8063068484FEA9318B8F1E5
:1067C800500FC14628BF4FF0500969F38F1309F1E4
:1067D8000801ADF8063000F05BFF0746002800F01E
:1067E800A48000F084FF01A900230822384600F0A5
:1067F80091FF009924EA01060136B600B14535D962
:106808005FFA89F97EB3F6B2A9EB06092140033194
:106818005FFA89F4B146524E05EB810108234A46D6
:10682800384600F077FF36B109F1080322463146B1
:10683800384600F06FFF009B08F1030803EB98034C
:106848000093D5F81834002B4BD1D5F810445BE0F1
:106858002A689A4204D86A60304605B0BDE8F083D9
:1068680004EA030088E73E493446D7E7214003316C
:1068780008234A4605EB8101DAE7012B55D1BDF81B
:1068880004303648C3F38311062928BF062161F373
:10689800891302318900ADF8043000F0F9FE07468B
:1068A800002842D000F023FF0023082201A938461F
:1068B80000F030FF0026BDF80420C2F38312B31C99
:1068C80096424FEA8303BCD200994A1C2140033107
:1068D800009205EB81010422384600F01BFF0136C7
:1068E800E9E7384600F007FFFFF728FF80F00100CE
:1068F800C6B2B1E7E3685B7923B1236839461B6800
:1069080020469847E3681C68002CF3D1384600F00D
:10691800F2FE204600F012FCD5F818340BB9009BA3
:106928006B60002000F00CFCDEE7D5F8104454B989
:106938000C4B0D480D49C01AC008000440F0020075
:1069480000F06EF8D0E7236820469B689847E36814
:106958001C68ECE700267FE7BC35002050A5020044
:10696800C83500206CA50200A4A5020000A60200FC
:106978002DE9F74F284C80460F46924601A901227F
:1069880018469B46D4F80890FFF7F2FD88B3019D9E
:106998000026A91C5E4506EB010234D100211F48E0
:1069A80000F0D0FB80F310006A1C02EA090204EB35
:1069B8008202000405EA0903033340EA1840D06064
:1069C80014F8232068F3C50204F8232034F82320A0
:1069D80066F3891224F8232054F82320012167F351
:1069E8009F2244F8232061F301026FF3820204F826
:1069F800232094F820341BB1FFF7AAFE0028FBD10E
:106A080003B0BDE8F08F09EA020204EB82025AF8EB
:106A18002630D3600136BDE7BC350020D8390020C8
:106A280000231A46FFF7A4BF13B502AC012344F8AC
:106A3800042D2246FFF79CFF02B010BD07B5CDE933
:106A4800002302236A46FFF793FF03B05DF804FBB7
:106A580030B50F49D1F81024002314463CB9C46856
:106A6800237152B9C1F810042260184630BDE46899
:106A780025799D4206D02468F0E7D2681168216024
:106A88001060F2E701330A2BE7D14FF0FF33ECE750
:106A9800BC350020094A38B50123D2F8104482F8E1
:106AA80020341D4604B938BDE3685D71236820466B
:106AB8005B689847E3681C68F4E700BFBC350020B2
:106AC800037A052B10B50C460FD0437A23B1084A38
:106AD8000849204600F0C9FB0749204600F0C5FBDD
:106AE8002046BDE8104000F0B5BB002AF8D0F3E717
:106AF8004BA6020050A6020070A60200C38873B518
:106B080004460D4633B1144A00921449144A2846E3
:106B180000F0ABFB217A05291CD0637A4BB1A08821
:106B2800FFF7F6FD0F4B104953F82020284600F0D8
:106B38009CFB227A0D4BA08853F822600021FFF7B6
:106B4800CBFD0B4903463246284602B0BDE87040EB
:106B580000F08BBB02B070BD4BA602005BA6020022
:106B680053A6020018A6020050A6020080A6020042
:106B780073A602002DE9F04385B01F460C9D002343
:106B880006460C46904695F80C902B7329463846D5
:106B9800FFF7B4FFB8F1060F09D8DFE808F00412D0
:106BA800181F283340003146284600F05EFB0022BB
:106BB80029463846FFF784FF85F80C9005B0BDE8F4
:106BC800F08322683146284600F04FFBEFE7D4E90E
:106BD80000233146284600F048FBE8E7A368009305
:106BE8003146D4E90023284600F03FFBDFE7E3689D
:106BF8000193A36800933146D4E90023284600F0A6
:106C080034FBD4E723690293E3680193A3680093F4
:106C18003146D4E90023284600F027FBC7E763691B
:106C2800039323690293E3680193A36800933146B1
:106C3800D4E90023284600F018FBB8E708292DE915
:106C4800F84F80460E4617461C463AD8002593F85A
:106C58000C901D7319461046FFF750FFDFF884A00B
:106C6800DFF884B0AE422ED918F8052059462046E0
:106C780000F0FBFA0135082DF4D11849DFF86CB0A3
:106C8800204600F0F2FA4FF0000A564520D918F8CD
:106C98000A507E2D03D8284603F0B2FA00B92E25F3
:106CA8002A465946204600F0E0FA0AF1010ABAF1EC
:106CB800080FEAD1012221463846FFF701FF84F880
:106CC8000C90BDE8F88F5146204600F0CEFAD1E787
:106CD8000349204600F0C9FAE7E700BF46A60200CC
:106CE80044A6020042A602003CA6020048A60200F2
:106CF8001FB50021039001AA44F20100CDE901115A
:106D080000F004F805B05DF804FB000010B572B699
:106D1800FFF7C0FEFFF71CFD0028FBD1104B114CFC
:106D28001149E41AE408240444F00100FFF778FE4E
:106D38000E4B1B68DB0700D500BE0D4944F002006E
:106D4800FFF76EFEBFF34F8F0A490B4BCA6802F478
:106D5800E0621343CB60BFF34F8F00BFFDE700BF76
:106D68006CA50200A4A50200DFA60200F0ED00E079
:106D7800EBA6020000ED00E00400FA05024B4FF418
:106D88003C6043F00103184700A7020038B50C4BDC
:106D98000C4C4FF40032C3F8802001254FF48033A7
:106DA800C4F84833C4F808336560FFF7E7FF064BBB
:106DB800A56000241C60FFF7E1FF044B1C7038BD80
:106DC80000E100E000100140943B0020853B0020DA
:106DD800F8B51F4B1F491B680025C1F84051C1F881
:106DE8004451C1F84851C1F84C51C1F80051C1F89B
:106DF80004514BB3D1F8044517490968641A24F0C3
:106E08007F442F461A68A24209D8A41A15441A7C4E
:106E1800DE691AB11F74D3E905209047AEB90F4B4C
:106E28000F4A197813788B4205D10133DBB2022B54
:106E380008BF0023137012780A4B43F822500A4BFC
:106E48004FF48012C3F80021F8BD3346DAE700BFDB
:106E5800983B002000100140943B0020903B00200C
:106E6800913B0020883B002000E100E02DE9F74F2E
:106E78009E4A9F49137809789E4D99423CD0013328
:106E8800DBB2022B08BF002313709B4912789B4B7F
:106E98000F6853F822003B1823F07F4300220B6051
:106EA8002B6816461446944613B942B12B6006E087
:106EB800196881420ED902B12B60091A19604FF086
:106EC80001082B68DFF83CA200930027BEB9DFF861
:106ED8003CB260E0401A0C44D968C3F800C0D3F84B
:106EE8001CE031B13A1922F07F42C3E90121DE6189
:106EF8001E4601227346D7E70026B046E1E734462E
:106F0800F6697D4A63681268DFF804C2A068991AB6
:106F180021F07F41614500F2A580014421600122F2
:106F280022742A680023C4E90133E361002A40F08F
:106F3800A2802C60CAE75A1C9BF80210D2B2914278
:106F48008BF8002004BF00228BF80020182202FBD7
:106F580003B32A6819799C68022974D003297ED062
:106F6800012918D1217CB1B9DA6862601A69A26076
:106F78005A699B69A361624BE2601B78002BC0D001
:106F88006160BEE79C4200F093809946DB69002B64
:106F9800F8D1002323749BF800309BF801209A4213
:106FA800C9D12B682FB9009A934202D1B8F1000FCA
:106FB80043D0002B79D0D3F800A0524D4E4BD5F8D2
:106FC80004751C68DFF84C813E1B98F8003026F0E9
:106FD8007F4603369BB94FF48033C5F84433C5F870
:106FE8000433494B4FF400324FF00109C3F88021B4
:106FF8001A60C5F80090FFF7C1FE88F80090B24506
:107008002CBF5444A41924F07F44C5F84045D5F852
:107018000435DB1B23F07F43E41B033324F07F4458
:10702800A3420AD9D5F80435C5F84035FFF7A6FEBE
:10703800354B4FF40032C3F80021314B00221A704F
:1070480003B0BDE8F08F13469146A0E71174D269EA
:107058000123002AFAD1002B9DD02A609BE7002348
:107068001946F6E7D31A23F07F43834234BFC31A85
:107078000023236053E721681368994213D8591AEB
:107088001160E26155E7091AD8691A4638B1034612
:1070980018688842F7D3401A1860184613462160CA
:1070A800E061DC6112E71346F2E7FFF76FFEC4E721
:1070B8004C450DD1D3692B6053B90F48019201217A
:1070C800CAF8081003600E4B1970FFF757FE019AB3
:1070D800E1692368C9F81C1011B1086803440B6002
:1070E8002B689A4218BF012753E700BF903B002046
:1070F800913B0020983B0020943B0020883B0020D7
:10710800843B00200010014000E100E0783A0020B4
:10711800FEFF7F00853B002072B6024A13680133E8
:10712800136070479C3B0020034A1368013B1360BF
:1071380003B962B6704700BF9C3B0020FFF7ECBF65
:10714800FFF7F2BF50E8002F0B4640E8003C9CF0E8
:10715800000FF7D11046704750E8003F43EA01029C
:1071680040E8002C9CF0000FF6D11046704750E81C
:10717800002F02EA010340E8003C9CF0000FF6D122
:107188001046704750E8003F03EB010240E8002C2E
:107198009CF0000FF6D11046704750E8003FA3EB73
:1071A800010240E8002C9CF0000FF6D11046704711
:1071B8000121FFF7D1BF0021FFF7D9BF10B590B16A
:1071C800D0E9012301689B1ADBB20A60013BDBB2FC
:1071D800FF2B026802D10020107110BD11684C1CF1
:1071E80014600B70F2E70E20F7E738B5044600206C
:1071F800FFF7A4FF226863681168994213D9481EF3
:10720800106011F8015CE368218A01FB0535A36869
:1072180011791B1ADBB2994200D213710020FFF7D3
:107228008FFF284638BD0025F8E738B50546002009
:107238000C46FFF783FF2A681368591C1160E96838
:10724800641A298AB4FBF1F41C700020BDE83840A8
:10725800FFF776BF826810B504462AB14369016812
:10726800006998470023A36010BD0EB403B50399C5
:1072780029B102AA04AB42F8043D00F06BF802B051
:107288005DF804EB03B07047826830B40468551C9D
:107298008560A154D0E901329A4202D330BCFFF78D
:1072A800D9BF30BC704700002DE9F84F9946DDE999
:1072B8000A431746824688460A460126BA420FD232
:1072C8004E4538BF4E4613F0010B01D164B9002476
:1072D8000125B9F1010F1AD909F1FF397D43F8E702
:1072E800B2FBF7F20136E9E79B070ED5B9F1000FBB
:1072F8000CBF30252025A642EAD2013C294650463B
:10730800FFF7C2FF002CF6D1E1E72025F3E7B8FB31
:10731800F5F39F42E2D9DFF83890B8FBF5F3504611
:1073280019F8031005FB1388FFF7AEFFB5FBF7F557
:10733800002DF2D1BBF1000F02D00CB1A64201D34F
:10734800BDE8F88F20215046013CFFF79DFFF4E788
:1073580006A702002DE9F74F054690460E4600297C
:1073680000F03A8116F8011B002958D0252940F071
:10737800D180002702E047F001071646324612F88E
:10738800013B2D2BF7D0302B04D02B2B05D147F008
:107398000407F2E747F00207EFE700242A2B06F17B
:1073A80001021BD1D8F80030191D1B68C8F800105D
:1073B8001C44164633782E2B1CD101364FF0000A98
:1073C800314611F8012BA2F13000092814D80A23FC
:1073D80003FB0A23A3F1300A0E46F1E712F8013C39
:1073E800A3F130010929E5D80A2101FB0434303C16
:1073F8001646D3E74FF0000A324612F8011B01F097
:10740800FB0068281646F8D0692916D054D85829A0
:1074180070D00ED825297DD03378002BA2D12B7BB4
:10742800002B00F0D980284603B0BDE8F04FFFF7E5
:1074380011BF632968D06429EED1D8F80020D2F8AA
:107448000090111D89EAE972C8F80010A2EBE972F0
:107458004FF0010B092A61DCD34538BFD3462CB164
:10746800B9F1000F01DB790700D5013CBA0702D555
:10747800BAF1000F04D0FB0702D4002C54D1002429
:10748800B9F1000F58DAC9F100092D212846FFF794
:10749800FBFE07F00302022A05D1BAF1000F02D160
:1074A800002C4DD10024CDE9004753460A22494615
:1074B8002846FFF7F9FEAFE7732954D016D870298C
:1074C800AAD1D8F800301A1DC8F800203021284663
:1074D8001C68FFF7D9FE78212846FFF7D5FE002261
:1074E8000823CDE9003221461022E1E775292FD083
:1074F800782991D1D8F800100A1DC8F80020CDE9E4
:107508000047534610222CE0D8F800301A1D19788D
:10751800C8F800202846FFF7B7FE7DE70A230BF1DD
:10752800010B92FBF3F295E7A345A9D22021284647
:10753800013CFFF7A9FEA0E77807AAD52B21A5E70C
:10754800A345B0D230212846013CFFF79DFEA7E7AE
:10755800D8F80010CDE900470A1DC8F800205346A6
:107568000A220968A4E7D8F800301A1DC8F80020D4
:10757800F907D3F8009012D54F46A7EB090B17F877
:10758800011B41B9A345BFF447AF20212846013C60
:10759800FFF77AFEF6E72846FFF776FEEDE7B9F142
:1075A800000F17D0484602F093FF0746BC4200D9A7
:1075B80054B909F1FF3919F8011F00293FF42CAF1C
:1075C8002846FFF761FEF6E720212846013CFFF731
:1075D8005BFEEBE74F46E9E703B0BDE8F08F2DE926
:1075E800F047B0F806904479D2F800A09DF82080C2
:1075F80009FB04F4043C06460AEB0300A0420F46CC
:1076080088BFA4EB030A191DC2F800A0B1FBF9F565
:1076180009FB15114DB9A9EB0104544528BF54467F
:10762800BAF1000F04D1BDE8F0873668013DF1E7F3
:1076380004317B1970182246B8F1000F0ED00146AC
:107648001846AAEB040A02F0C5FED145254436685F
:107658004C464FF0000128BF5446E1E71946F0E7D1
:10766800FFF7ACBDF8B546790146721E0546002302
:1076780093422D6803D30024A64202D8F8BD0133F3
:10768800F6E70F682846FFF7D0FD01343946F3E7DF
:107698002DE9F843068ACD1C0746FFF7A6FD043EF0
:1076A80035440446B5FBF6F5F0B14FF48073EDB2FE
:1076B8008380C680013D076081464FF00008A845D9
:1076C80012D23846FFF791FD064648B16379013377
:1076D800637108F10108C9F8000007608146EEE708
:1076E8002046FFF7BFFF34462046BDE8F883012156
:1076F8000430FFF747BD10B5012104460430FFF7F9
:107708004CFD10F0FF0F04D12046BDE81040FFF7F4
:10771800A9BF10BD1FB504AC44F8042D0022009287
:107728002246FFF75CFF04B010BD1FB504AC44F857
:10773800042D012200922246FFF751FF04B010BD2C
:1077480008B50020FFF7FAFCF1EE103A23F09F038A
:10775800E1EE103ABFF35F8F054B4022C3F8842156
:107768000020FFF7EDFC20BF40BF20BF08BD00BFD1
:1077780000E100E0026813685268934291BFD01A92
:1077880080680130801888BFC01A70470368816814
:107798001A685B688B4234BF01330023D31A5842FE
:1077A80058417047F8B5044600200D46FFF7C6FC5F
:1077B8002046FFF7EBFF10B1237C002B3CD1226859
:1077C800A66853685168B14234BF01310021516045
:1077D80030B11168A068814234BF013100211160C5
:1077E800E2686068511E072920D8DFE801F004101C
:1077F8001F141F1F1F182A78C2542046FFF7BAFF0C
:1078080023689A68824200D29860002415E02A888A
:1078180020F81320F1E72A6840F82320EDE7D5E99E
:10782800006700EBC300C0E90067E6E7294602FBF2
:10783800030002F0CFFDE0E704240020FFF780FCFE
:107848002046F8BD036818685B68C31A5842584157
:10785800704770B5054600200C461646FFF76EFCCB
:107868002846FFF7EFFF002830D129680B682EB9AA
:107878000A68A868824238BF561C0E60EA686968C0
:10788800501E07281CD8DFE800F0040C1B101B1B37
:107898001B14CB5C237000240020FFF751FC20460A
:1078A80070BD31F813302380F5E751F82330236099
:1078B800F1E701EBC301D1E90023C4E90023EAE7BA
:1078C80003FB0211204602F085FDE4E70524E3E707
:1078D800836800225A609A60C3E90422DA601A6059
:1078E800704700000C4B1B78062B10D10B4B1B6804
:1078F8001A070CD10A4B186800F0F003302B08D097
:1079080000F0E000A0F140035842584170470020C1
:1079180070470120704700BFE00F00F0E40F00F04F
:10792800E80F00F0094B1B78062B0CD1084B1B689D
:107938001A0708D1074B186800F0F000A0F13003CF
:107948005842584170470020704700BFE00F00F0D0
:10795800E40F00F0E80F00F008B5FFF7C3FF28B107
:107968007D4B7E4A1B68C3F304231360FFF7DAFFDD
:1079780010B17B4B7B4A1A60FFF7B4FF28B17A4BF2
:107988007A4A1B68C3F342331360FFF7CBFF20B179
:10799800774AD36823F08073D360FFF7A3FF40B121
:1079A8004FF080430022C3F80C21C3F81021C3F81C
:1079B8003825FFF7B7FF10B16E4B03221A60FFF7A7
:1079C800B1FF40B16C4B05221A6001229A67002270
:1079D8009A603F225A60694B1B78062B50D1684B3E
:1079E8001B6819074CD1674B1B6803F0F003502B39
:1079F80046D14FF08052644BD2F80414C3F82015D6
:107A0800D2F80814C3F82415D2F80C14C3F82815B2
:107A1800D2F81014C3F82C15D2F81414C3F8301582
:107A2800D2F81814C3F83415D2F81C14C3F840154A
:107A3800D2F82014C3F84415D2F82414C3F8481512
:107A4800D2F82814C3F84C15D2F82C14C3F85015E2
:107A5800D2F83014C3F85415D2F83414C3F86015AA
:107A6800D2F83814C3F86415D2F83C14C3F8681572
:107A7800D2F84014C3F86C15D2F84424C3F8702522
:107A8800FFF730FF28B1414B414A1B6803F04F0311
:107A98001360FFF727FF48B14FF08043D3F8002465
:107AA800D20744BF6FF00102C3F80024394B1B68AA
:107AB800062B08D1384B1B68062B01BF374A1368C1
:107AC80043F480631360364AD2F8883043F4700375
:107AD800C2F88830BFF34F8FBFF36F8F4FF010237A
:107AE800D3F80022002A03DBD3F80432002B2FDA64
:107AF8002C4B0122C3F80425D3F80024002AFBD01C
:107B08004FF010221521C2F80012D3F80024002AE1
:107B1800FBD04FF010231522C3F80422214B1A463C
:107B2800D3F800140029FBD00021C3F80415D2F8BB
:107B38000034002BFBD0BFF34F8F19491A4BCA688A
:107B480002F4E0621343CB60BFF34F8F00BFFDE741
:107B5800164B174A1A6008BD24030010403501402F
:107B680074C007400DF0ADBA440200103C05004057
:107B7800F0ED00E0A005004010560040E00F00F0D6
:107B8800E40F00F0E80F00F000C0004058020010B9
:107B9800E40E004030010010340100103C17004092
:107BA80000ED00E000E001400400FA05D8300020B4
:107BB8000090D003054A13792BB901211060117187
:107BC8005371184670478520704700BFA03B0020BE
:107BD80037B5114B00221A601B680193019B4FF0C7
:107BE80080430222C3F804230C4AD06840F0807313
:107BF800D3600B4B1C6844F0010119605D6859683B
:107C0800491BB1F50A5FFAD31C60064BD06001220C
:107C18001A6003B030BD00BF04010040F0ED00E081
:107C2800001000E008000040154B07B51A687AB14B
:107C380000221A601B680093009B4FF080430122CA
:107C4800C3F808230F4B587910B95A711B68984725
:107C58000D4B1A6882B100221A601B680193019BC0
:107C68004FF080430222C3F80823064B1B6801200B
:107C780003B05DF804EB184703B05DF804FB00BFE0
:107C880000010040A03B00200401004000F18040BA
:107C980000F5C040002382B0036003680193019B94
:107CA80002B07047800000F1A040D0F8003723F4FC
:107CB8004033C0F80037D0F8003743EA0141C0F834
:107CC800001770472DE9FF470024584A584E594D70
:107CD800019401211368A2F5C040012B80B206D19E
:107CE800D6F804330B4202D0FFF7D0FF0C4304321E
:107CF800AA424FEA4101EDD14F4B1B68012B0AD133
:107D08004FF4BE70FFF7C2FF4FF0A04344F00044A9
:107D1800D3F81035019314F0FF0F1AD0474F002500
:107D28000126344210D0AB0003F1804303F5C04371
:107D3800D3F81005D3F8101557F82530C0F30420F0
:107D4800C1F3014103B198470135082D4FEA4606B2
:107D5800E7D1002C66DA00224FF0FF33CDE9022389
:107D6800DFF8D8900127002634464FF0A04809EBE9
:107D7800060393F95020531C45D0D2B222F0C00517
:107D8800E90804A8084402F0070310F804CC07FA2D
:107D980003F31CEA030F36D009EB050C92099CF992
:107DA80030C059F82CA0BAF1000F0AD1032A2AD101
:107DB8000DF1080E1EF801C04CEA030C0EF801C0C4
:107DC80001E0032AF4D005F5E07110F80C0C58F81E
:107DD80021101842C1F3014105D0022913D1032A09
:107DE8000BD1114604E003290DD1032A05D1022144
:107DF8002846FFF757FF0134E4B2BAF1000F02D06A
:107E080011462846D0470136042EB0D154B14FF060
:107E1800A043019AD3F81035934203D00193029BF3
:107E28000393A0E704B0BDE8F08700BF00610040FD
:107E380000600040206100407C610040A83B0020B9
:107E4800014B1B68184700BF043C002038B50A4B9B
:107E580098420D460CD10020FFF770F9074B1C79AA
:107E680014B901221D601A710020FFF769F90CB9D5
:107E7800002038BD1120FCE700200040043C002011
:107E8800034B984201BF034B00221A601A717047D6
:107E980000200040043C002070470000F7B54FF474
:107EA80000410020FEF7FAFB08B1FEF721FFFEF7BC
:107EB80031FB2548FFF77EFE08B1FEF719FFFFF7F3
:107EC80087FE4FF08043214CD3F818342049DB0358
:107ED8005EBF204B01221A601F4BE41AE4082404F9
:107EE80044F003042046FEF79BFD00F0F7F808B1C4
:107EF800FEF7FEFE0023ADF8043002AB022223F8A1
:107F0800022D192101AA4EF2C20001F07DFF9DF851
:107F180005309DF804201149114D124F2046FEF7F7
:107F28008DFD45F0010539462046FEF779FDFEF73F
:107F38000FFC0028FBD141F288364FF47A40A8475D
:107F4800013EFAD1EFE700BFA17E0200A4A502001E
:107F580056A70200080000406CA502006AA70200AC
:107F680050A702009DA702000369C1688B429DBF0C
:107F78008268D21802F1FF3203F1FF3394BF501A1E
:107F8800581A70472DE9F041D0E902670446F61BFC
:107F98004068964288461546384405D902F01AFAD0
:107FA8003D44E560BDE8F0813246AD1B02F012FAAF
:107FB8002A4608EB0601606802F00CFAF1E72DE9A1
:107FC800F843C5680646894617464FF000083469E5
:107FD800B3687068A54228BFE418013C621B5C1BAB
:107FE800BC4228BF3C46944228BF14464946284410
:107FF800224602F0EFF9B3682544AB4208BF0025DA
:108008003F1BA044A144F560E1D14046BDE8F88398
:1080180010B5114C114AA2610223C4E90433104B74
:10802800E361A2644FF400730E4A2362E264002302
:1080380010220D49A362E01D6362E362A3656365D4
:10804800E365226502F022FA0849204602F01EFA8A
:108058002023A37110BD00BF0C3C0020BBA7020069
:10806800943C0020843C0020C4A70200C8A702005A
:10807800F8B5184C182300FB033503FB00402544D2
:10808800C46A012C0F46164611D003D3022C1BD00C
:1080980000240AE02846FFF767FF864205D83246E3
:1080A80039462846FFF76EFF34462046F8BD284675
:1080B800FFF75AFF8642344628BF0446224639460F
:1080C8002846FFF75FFFF0E72846BDE8F840FFF7CE
:1080D80076BF00BF0C3C0020FFF79ABFF8B50A4FE7
:1080E8000A4C0B4DE41B0121E40829700026A64226
:1080F80003D102232B700020F8BD57F8363098477B
:108108000028F9D10136F2E764A502006CA5020047
:10811800943E0020054B1A78022A04D01878431E92
:108128005842584170470120704700BF943E0020D4
:1081380070B51B4B6A469A4206460D460CD2194B3F
:1081480019481A49C01AC008000440F00100FEF797
:1081580067FC48F2195070BDFFF7DCFFB8B1144C4A
:10816800236823B1134B1A68134B9A4212D09EB955
:1081780095B912481249206001F0E8FF0028EAD1B9
:108188000C4B0D4A1A6023680E4A1A60E3E74FF455
:108198000540E0E70020DEE748F21750DBE700BFC4
:1081A80000E000206CA50200A4A50200CFA70200F1
:1081B800A43E00209C3E00206572E54B983E0020BE
:1081C800A03E00206169614D0023435082B04358AE
:1081D8000193019B02B07047F0B547791B4B1C4EC9
:1081E80043F827207D00EB19F35C6BBB90F9043052
:1081F8008C78002BA8BF03F1604CDAB2BABF02F04A
:108208000F0EDFF850C00CF5614C4FEA4414E4B28D
:10821800B4BF0CF80E408CF800435B09012402F04F
:108228001F02DFF834C004FA02F24CF82320036876
:108238000A88C3F80825EB19F2180879F454C978A4
:10824800507091700020F0BD0820FCE7AC3E002083
:10825800A83E002014ED00E000E100E003680122E0
:108268001A604379024A03EB43030221D154704751
:10827800A83E002008B500684FF480338B40C0F852
:108288004833D0F804231A4201D1002008BD5031E8
:10829800890089B2C0F808334358002BF5D0FFF79E
:1082A80093FF0D20F2E700002DE9F04106464FF458
:1082B800803400681C4D8C40C0F84843C0F808431F
:1082C80096F805E04FEA4E0C0CEB0E072F4422F00F
:1082D8007F4297F8018001F5A87740F82720B8F188
:1082E800000F11D0D0F80485F4446544A8EB0207C8
:1082F800904538BF07F1FF17AA7838BF07F57F47C1
:10830800BA4201DD0D200CE03BB15031890089B241
:10831800FFF75AFF3368C3F8044333680020C3F8F3
:108328004443BDE8F08100BFA83E00202DE9F0419C
:10833800234EDFF89480234F00254FF48034D6F87D
:10834800043305F150018900234289B20ED005EBB0
:1083580008039B001B684BB1C6F848433046C6F873
:108368000843FFF731FF3B68E8B298470135042D11
:108378004FEA4404E3D1124CD4F80433DA070BD59E
:10838800D4F8003143B120464FF48071FFF71CFF49
:108398000C4B28461B689847D4F804339B070DD527
:1083A800D4F8043153B106484FF48271FFF70CFF3B
:1083B800044B05201B68BDE8F0411847BDE8F08173
:1083C80000400240AC3E0020509000100023435073
:1083D80082B043580193019B02B070472DE9F047E2
:1083E8000D78089E9DF824A004460F469946002D56
:1083F8005ED1D0F82431D2F800803BB14FF49271AD
:10840800FFF7E4FF012363613B7017E0D0F81C31EC
:1084180053B34FF48E71FFF7D9FFD0F824311BB155
:108428004FF492712046EBE713689E4212D919F86F
:108438000330C0F81C35136801331360B04535D1DB
:10844800D4F8043193B34FF482712046FFF7BEFF8E
:10845800002504E00123BAF1000F03D0C3612846C8
:10846800BDE8F0874361E9E7D0F80831002BE5D093
:108478004FF48471FFF7AAFFD0F82431002BCFD135
:1084880013689E42DAD9D0F8181509F80310136852
:1084980001331360721E934205D10223C0F80032E3
:1084A80001232362CAE79E42FAD1C7E70125D6E72E
:1084B8004FF49271FFF78AFF4FF48E71FFF786FF32
:1084C8004FF48471FFF782FFBAE700002DE9FF47F8
:1084D8000C4605461F4620463B4B03934FF48271DA
:1084E80016469DF83080FFF771FF4FF49271FFF741
:1084F8006DFF4FF48E71FFF769FF4FF48471FFF73A
:1085080065FF0023C4F800326B6385F82E30012321
:108518002362A3606A6B97421DD9B35CC4F81C350B
:108528006B6B01336B632B68E3B905F1340A05F112
:108538002E09039B002B1FDC95F82E3053BB00201F
:10854800039B002B15DC0023C4F800350523C4F871
:10855800003503200DE0B8F1000F01D0E361E2E738
:108568006361E0E740F28623AB60AB68C4F804338C
:10857800002004B0BDE8F087CDE9007833465246C4
:1085880049462046FFF72AFF0028D5D0039B013B28
:108598000393CEE7D4F8C434C4F8C434002BCED047
:1085A80013F0010F14BF4FF40240032048F20122D8
:1085B80013F0020F18BF104613F0040F48F20223FD
:1085C80018BF1846BCE700BFA08601002DE9FF4789
:1085D8000C4605461F462046354B03934FF48271DF
:1085E8009246FFF7F3FE4FF49271FFF7EFFE4FF458
:1085F8008E71FFF7EBFE4FF48471FFF7E7FE00235F
:10860800012F2E686B6385F82E3008BF02224FF0C9
:1086180001030CBFC4F80022C4F8003223622360AF
:10862800AEB905F1340905F12E08039B002B18DCBF
:1086380095F82E301BBB0020039B002B0EDC00237B
:10864800C4F800350523C4F80035032006E040F2DD
:108658008623AB60AB68C4F80433002004B0BDE8DF
:10866800F087CDE9007653464A4641462046FFF753
:10867800B5FE0028DCD0039B013B0393D5E7D4F873
:10868800C434C4F8C434002BD5D013F0010F14BF80
:108698004FF40240032048F2012213F0020F18BFE2
:1086A800104613F0040F48F2022318BF1846C3E718
:1086B800A0860100F0B52C4C2C4894F82C3089B0D9
:1086C80004F134020193A36A0093636A04F12E0152
:1086D800FFF784FE2746E0B994F82EC0266ABCF15D
:1086E800000F1DD1217B8B1E012B19D8626AA3694B
:1086F8009A4215D1E26963696262C6F3401603299A
:10870800A36284F82C6006D1009618492046FFF72A
:10871800DDFE09B0F0BD15492046FFF757FFF8E721
:10872800134D0FCD03AC0FC42B682360BCF1000FB1
:1087380017D00E4AD2F8C434C2F8C43499070CD5FD
:1087480001238DF80830002387F82F307307E0D411
:10875800D7E9003102A89847DBE75A07F3D5022387
:10876800EFE78DF808C0EEE7B03E0020003000408B
:10877800BC3E00202DE9F84F0579334C4FF03C08FA
:1087880008FB05F804EB08069B4696F82D30814651
:108798000F469246002B52D12C490068FFF756FB32
:1087A80000284ED139687B7B86F8383001F5E072B5
:1087B8004FF0A043B060C6F804B086F82F0086F8E2
:1087C800300040F20C6644F808A043F822607A684A
:1087D80002F5E07C43F82C60D9F80030C3F808159E
:1087E800C3F80C25BA68C3F82425BAF1000F1ED0C7
:1087F8001B0B59B200293A7BB4BF154E01F16046F4
:10880800DBB2B8BF03F00F074FEA4212A8BF06F564
:108818006146D2B2B4BFF25586F8002303F01F03B5
:10882800012202FA03F349090A4A42F821303C239B
:1088380003FB0544012384F82D30BDE8F88F082098
:10884800FBE71120F9E700BFB03E0020BD8602001B
:1088580014ED00E000E100E0026803790521C2F8A8
:108868000015044A3C2101FB0323022283F82D2032
:10887800704700BFB03E002003680A490279C3F878
:108888000813D3F8001221F00301C3F800120021E5
:10889800C3F80015044B3C2101FB0233012283F885
:1088A8002D20704786420400B03E002070B5047940
:1088B8001A4D3C2363430646EB5863B103681B0B10
:1088C8005AB20121520903F01F0301FA03F32032BF
:1088D800134941F822303046FFF7CEFF3068FFF7E2
:1088E800CFFA3C2303FB045393F838307BB9306844
:1088F800D0F808354FF0A04203F5E073022142F8A2
:108908002310D0F80C3503F5E07342F823103C230C
:1089180003FB0454002384F82D3070BDB03E0020C2
:1089280000E100E02DE9F74F2E4E90F80480D0F8D2
:1089380000E02D4BCEF808333C2404FB08648A463B
:1089480094F82F30154603F0FF0B33B1A368CEF827
:108958000433112003B0BDE8F08F82F00403C3F3A1
:10896800800384F82F3022628C46BCE80F0004F1A3
:108978000C070FC7DCF800303B60DAF80430A3625C
:10898800DAF80C2062629AF80110CEF888159AF885
:108998000010C8EB0819012906EB89091AD0B9B9E2
:1089A800C5F340153C2101FB0861484681F82C506D
:1089B80000957146FFF78AFD3C2303FB08F806EB98
:1089C800080256F80830002BC4D182F82F30C1E7CE
:1089D8000125E7E784F82CB071464846FFF7F6FD15
:1089E800EAE700BFB03E0020864204001FB50378C6
:1089F8008DF8003003798DF8043043798DF805300F
:108A080083688DF80630C3688DF8073003690293D0
:108A180043690393054A064B684653F8213052F8D8
:108A28002110984705B05DF804FB00BFEC3E00201C
:108A3800F43E0020024B4FF4807043F001031847C6
:108A4800F0A702002DE9F04791460778324A42F82C
:108A58002790324A42F827304B7B80460C4663B356
:108A68000868496882008B0002F1A04203F1A04324
:108A780040F20C65C2F800570126C3F800574FF0C2
:108A8800A04506FA00F006FA01F1C5F80805C5F890
:108A9800081540F20D61C2F80017C3F80017FFF778
:108AA800C9FF4FF0000AD5F81025636822FA03F3CE
:108AB800DB070FD5BAF1000F1FD1B9F1000F3B4604
:108AC800174A214608F1040008BF0022BDE8F04714
:108AD800FFF750BE236806FA03F3C5F80C35FFF715
:108AE800A9FF236806FA03F3C5F808350AF1010A55
:108AF800FFF7A0FFBAF1090FD5D1636801254FF040
:108B0800A04605FA03F3C6F80C35FFF793FF636830
:108B18009D40C6F80855D0E7F43E0020EC3E002002
:108B2800F5890200F0B503681C7E1A68E4B227B222
:108B380096684FEAC70C06EB0C0256F83760517975
:108B48001779927912F0010F4FEA510587B001F0B9
:108B5800010138D0002936D1D3F800E09EF80CE0A6
:108B6800013474452FDAD3F800E00CF10804DEF87C
:108B780008C0A4449CF805C0B5EB5C0F23D11A6863
:108B880091680A1951F804C01C7E517992F804E0E2
:108B98009279013411F0010F4FEA4212E4B20CBF8E
:108BA8000321022102F020021C768DF804100C30FB
:108BB80001A98DF80550CDE9027ECDE9046CFFF7D7
:108BC800B1FE07B0F0BD52014FF0000C02F02002D8
:108BD800E646EAE7034608461A68126822B11A68A8
:108BE8001B6851681B681847704700002DE9F84F4B
:108BF8000568DFF88CB004460E464FF000090020E7
:108C0800FEF79CFA16B923681B6843B90022294667
:108C18006068FEF71EFE60B3C5F8009000260020CD
:108C2800FEF78EFA56B32B681B6923BB2F1D102243
:108C38003946686901F098FB80B104F10C0A504686
:108C480004F10808FFF732FE23465A4639464046E3
:108C5800FFF7F8FE5046FFF7FFFD6F6185F81890A3
:108C68002046FFF75FFF014640B12068FFF7B2FFDB
:108C7800C5E70126D3E72B681F69D8E7BDE8F88F59
:108C88008D8C020010B50C46017871B92268137EEC
:108C980010680133007BDBB2984207D9137620466F
:108CA800FFF740FF014608B910BD03212068FFF710
:108CB80091FF20460121BDE81040FFF797BF000053
:108CC800F8B50C4A0346044608300D46FFF7BAFECD
:108CD800064660B904F10C00FFF7BEFD276895E869
:108CE8000F003C4644F8046B84E80F007C61304672
:108CF800F8BD00BF8D8C020010B504460C30FFF79C
:108D0800D5FD236800221A6010BD37B502AB0546B1
:108D180043F8041D40681946FEF744FD044618B997
:108D280001462846FFF762FF204603B030BD000029
:108D3800014B1980704700BFFC3E00202DE9F0412F
:108D4800324E0446306886B00F46002855D0636816
:108D580022781A70636862785A70638862682C4D4A
:108D6800DFF8C4801B0A937063686288DA706388CE
:108D7800C0F8088006AA043322F80C3D02232B8091
:108D880004F10C030093D4E9011300F08FF9414674
:108D9800002834D12B889BB2022BFBD02B889BB2A6
:108DA8006BBBA3681B7863B3012F2CD1194B06AAA0
:108DB80018689B88ADF81430062322F80A3D049001
:108DC800022330682B8004AB81600092194600F0C2
:108DD8006DF9A0B92B889BB2022BFBD02B889BB2D4
:108DE8006BB99DF8103053B99DF8140040F000405D
:108DF80040F4803006B0BDE8F0810748FAE707483C
:108E0800F8E70748F6E70748F4E700BF003F002007
:108E1800FC3E0020F6A7020001100080000002803E
:108E2800016BE97501CF7EF8398D0200014B18609E
:108E3800704700BF003F0020F0B5294B97B003AA48
:108E4800054603F11007164618685968144603C406
:108E58000833BB422246F7D10FAB0893002D3AD016
:108E68002C78002C39D10993F02310228DF81C306E
:108E78003146192310A8ADF81E20ADF828308DF81A
:108E88001D4001F0A7FA214607A8FFF757FF154D27
:108E9800A8421ED1144C22884FF6FF739A4218D16B
:108EA800124B0B930A23ADF8383001214CF2E063E2
:108EB8000BA8CDF830D0CDF834D0ADF80430FFF79A
:108EC8003DFFA84205D10D9A1179537943EA012350
:108ED800238017B0F0BD0648FBE70648F9E700BF56
:108EE800FCA70200016BE975DC30002001000200DC
:108EF80001100080021000802DE9F04F544B81468C
:108F0800188885B04FF6FF7200279042884601976F
:108F18009A467DD0063001F079F90190002879D081
:108F2800B9F1000F78D0B8F1000F75D0D8F8043037
:108F3800002B71D0B8F80030002B6FD0831D02933E
:108F480001238DF80030B9F800301B0A0371019B2A
:108F5800B9F800205A7199F80630002B4CD18DF8D9
:108F68000130B9F802700623ADF802300023DFF8AB
:108F7800E4B01E4699F80610BAF80020002943D13B
:108F880001993B0A8B71019BDF71B9F80450D31E1C
:108F9800AD1BAB42D8BF151FADB2019B290A197290
:108FA8005D7201216846ADF80C20FFF7C7FE5845F1
:108FB800044637D1BDF80C20B8F80030D8F80400C2
:108FC800043A92B29B1B9342ADF80C201EDB029927
:108FD8003044043101F0FEF9BDF80C30B9F8042032
:108FE8001E44B6B21F44B242BFB201D0AB42C1D098
:108FF800A8F80860174C22E0012B11D18DF8013038
:109008000223ADF80230B1E71D46CAE7124C0DE065
:10901800124C14E0104C12E0114C10E0114C0EE010
:10902800114C0CE016B1114B9C42E1D032460021A4
:10903800D8F8040001F0F7F90023A8F808300198DF
:1090480008B101F02DF9204605B0BDE8F08F00BF4A
:10905800DC300020016BE9750310008000000280FD
:1090680001100080041000800210008008000180B8
:1090780010B50446D0E9010398470023237310BDB7
:1090880010B50123044668B1007B984209D02068D6
:109098002373054B8461436100F072F808B1002323
:1090A800237310BD1846FCE77990020037B50446D3
:1090B800012580B1007BA8420BD020682573074D9D
:1090C8004561069D8461009500F072F808B100239F
:1090D800237303B030BD2846FBE700BF7990020038
:1090E80038B5436904460D460BB180699847042397
:1090F80084F8253094F82430012B03D115B90223C4
:1091080084F8243038BD000010B590F8273013F0EB
:10911800FD0F044626D190F82620B22A15D0B32A8E
:1091280023D0B12A26D113B9806800F0B7FEE068D1
:1091380000F0B4FEB22384F826304FF4FA620E48E9
:10914800214600F06FFF002010BD13B9806800F0C1
:109158009BFEE06800F098FEB32384F8263042F6C0
:10916800E062ECE7012380F889310449BDE810404A
:1091780000F0D6BD0120E7E711910200E990020056
:1091880010B590F82530032B04460FD0036998607A
:10919800B123C384012380F8283080F82430FFF7F6
:1091A800B3FF10B9032384F8253010BD0120FCE774
:1091B800F7B590F82470089D022F04460FD190F857
:1091C8002570032F0BD0C0E907351288009500F0F1
:1091D800BDFD10B9032384F8253003B0F0BD01208C
:1091E800FBE770B5002205462B1A9BB2994201D8BD
:1091F800104670BD15F8013B534003F00F04DBB275
:1092080083EA04131E0986EA430344EA031386EA41
:10921800122282EAC302E7E770B5012A0E46054624
:1092280090F8561004D1013101F003016C6E03E08F
:10923800022AFBD1846E002141EA4211C9B2217091
:109248003EB313B195F85A3033B195F85530013320
:1092580003F0030385F85530237895F8552043EA41
:1092680082032370002385F85A30330AF11C637097
:10927800A67089B22046FFF7B4FFA319020ADA7074
:109288001871721D2146284692B2BDE8704000F060
:10929800F5BB61F07F012170E7E72DE9F04F1F462C
:1092A80085B0023B00259BB204468B46914601954A
:1092B800A8462E460095AA460293BBF1040F07D193
:1092C80094F85430012B03D04FF0080384F854303D
:1092D80094F85430013B0A2B00F24581DFE813F083
:1092E8000B001A002D00CC00E700E10043011E012D
:1092F800C30058009300BBF1000F4FF00003256F27
:109308001A460CBF022101212046AC4605B0BDE833
:10931800F04F6047BBF1010F01D10523D6E700F0FC
:10932800AFFE0323E06684F85430204600F0BAFB11
:10933800002800F0E280062327E0BBF1010FECD003
:10934800042FF8D999F8003099F80280039303F0B4
:109358000302009299F8012048EA022809EB070263
:10936800C3F3411612F8021C12F8012CC3F3810A48
:10937800484642EA012302990193FFF732FF039B13
:10938800DB0905460CBF0A230B2384F8543094E705
:10939800019BAB42CFD1B8F1000FCCD008F1050347
:1093A8009F42C8D1B31E012BC5D994F8563001335A
:1093B80003F003039A450BD0092384F854300023A3
:1093C8001A461946204605B0BDE8F04FFFF724BFFE
:1093D80094F85530009A934201D00923D5E7012E1D
:1093E80001D10523D1E73A4684F856A04946A06E34
:1093F80000F0F0FF00230422A4F8627084F85830CB
:1094080084F85420DCE7B01E434294F857204341C7
:109418009A42E2D1019BAB42E3D1052FDDD8B8F1E6
:10942800000FDAD1022E0AD1012384F85A3040F213
:109438000933A4F85430032384F856303DE7BAF1D1
:10944800000FCAD1032EC8D094F85530009A934221
:10945800C3D1012EC5D0012384F85430256F53465B
:109468005246022150E70323204684F8543005B0C1
:10947800BDE8F04F00F016BBBBF1010F3FF44DAF54
:10948800012384F85430B4F86230A26E94F857106F
:10949800256F053B03329BB209B1042134E706214D
:1094A80032E7022384F854300122002389E700F0D0
:1094B800E7FD636CC01A41F26F7398422BD894F899
:1094C8005820032A1CD10121002384F85A1040F2A5
:1094D8000531A4F8541084F8562084F85830022234
:1094E80019462046FFF798FE10B1062384F8543039
:1094F80094F85430082B3FF4E0AE05B0BDE8F08F87
:109508000132022384F8582084F8543000220123C1
:10951800B4F86010E5E74FF00803E7E794F85A302D
:1095280013B9012384F8593094F85930012123B92B
:10953800256F84F854101A46E6E640F20533A4F87D
:109548005430032384F85630002384F85A1002223A
:1095580019462046FFF760FE082384F8543000239C
:1095680084F85930C9E7012184F85410256F002385
:10957800E1E7000038B500230D4680F854300D4966
:10958800044600F04BFA90B940F20133A4F8543085
:10959800032384F8563004F5C673636604F2862301
:1095A800256784F85A0084F85900A36638BD01205D
:1095B800FCE700BFA392020010B490F85430012BCE
:1095C800024611D181B1022380F85430002380F87B
:1095D800583080F857300A24A2F86010C4651A463B
:1095E8005DF8044BFFF718BE01205DF8044B704787
:1095F80010B590F85430012B044612D1032280F89C
:109608005420002280F8573080F8582000F038FDA8
:1096180041F27073E066E3652046BDE8104000F053
:1096280041BA012010BD00000123A0F87221064AAA
:1096380080F87410C0F87421A0F8703100F174013A
:109648001A46006900F060BC0101C80004228221AA
:10965800FFF7EABF38B50446154680F87410194676
:10966800753000F0B7FE6A1C064BC4F8743192B22C
:10967800A4F8702104F174012069BDE8384000F0B5
:1096880043BC00BF0201C80090F87531012B06D118
:10969800B0F8702100F17401006900F035BC022BAC
:1096A80006D1B0F8722100F17401006900F052BCD3
:1096B8007047000038B5044600690023C568C360D8
:1096C80000F06EFC2369DD6060B1B4F876315A1E93
:1096D800A4F876213BB105484FF47A72214600F090
:1096E800A1FC022038BD0120FCE700BFF99602006A
:1096F80037B583888DF805301A0A04468DF804209A
:109708000120AA2594F88831552B59D027D8222B27
:109718006DD003D8112B63D003B030BD332B3FD0AD
:10972800442BF9D194F8762094F8773043EA022351
:1097380080228DF800206288B2F5C87F39D9B3F548
:10974800C87F3BD804238DF80130552384F888312D
:1097580002226B4689212046FFF77CFFDCE7882B35
:109768004BD00AD8662B2DD0772BD5D161882046CF
:10977800FFF7A0FF70B9112309E0AA2B4CD0BB2B2F
:10978800CAD164212046FFF795FF18B9332384F81E
:109798008831B7E70128BFD1AA2384F88831BBE70D
:1097A800442384F88831042284212046FFF73CFFB3
:1097B800B2E7B3F5C87F01D90323C4E76623E6E718
:1097C8006623EEE794F8761094F87730628843EAD7
:1097D80001239A4202D984F8885193E77723D6E780
:1097E800222384F88831022201AB8121B3E7882340
:1097F80084F8883102228121D7E794F8742094F8FC
:10980800753084F8885143EA0223A2889A42FFF40B
:1098180079AFA380002075E750B9022384F8793125
:1098280000230146D4F884511A462046A84773E716
:109838000023F3E713B50023ADF8043090F889311D
:10984800993B0A2B0ED8DFE803F0060D0D0D0D0D20
:109858000D0D320F2800A22380F8893104228221BD
:10986800FFF7E2FE02B010BD90F8743003F0080371
:1098780080F8743043B1A32380F88931022201AB08
:109888008821FFF7E7FEEDE7022280F87921D0F87A
:1098980084411A460121A047E4E7A12380F88931D1
:1098A800014642F6E062054800F0BCFBDAE7012316
:1098B80080F87931FFF71CFFD4E700BF3D9802001C
:1098C80070B590F87931013B0446042B62D8DFE883
:1098D80003F0070B15560300BDE87040FFF7AABF59
:1098E800BDE87040FFF704BF032380F879310422F4
:1098F80082212046BDE87040FFF796BE90F8783187
:10990800022B21D190F874305B060ED590F8763092
:1099180090F8772052EA032207D08388934204D331
:10992800042380F879318021E3E700F0A9FBE36E96
:10993800C01AE36D984215D2214641F28832164882
:10994800BDE8704000F06EBB012BEED1042380F817
:109958007931B0F88021D0F87C318021BDE87040A1
:10996800FFF778BE022384F87931D4F884510023B4
:109978001A4601212046AC46BDE8704060470223E4
:1099880080F87931D0F88451B0F8723100F174025E
:109998000021EFE770BD00BF5596020090F87431C2
:1099A800012B0DD190F87531012B09D1022380F8D4
:1099B8007531B0F8722100F17401006900F0CABA7B
:1099C800022B01D1FFF77CBF7047000010B4D1B162
:1099D80002291CD8B0F876315A1EA0F876213BB17E
:1099E80001460C484FF47A725DF8044B00F01ABB3C
:1099F8000222D0F8844180F87921A4461A4604212D
:109A08005DF8044B6047014632220348ECE75DF8F5
:109A1800044B704791960200A599020038B50023BF
:109A280080F879310446BB23C0F8841180F8883166
:109A3800006923780371104BC36094F82850C82339
:109A4800012DA4F876310ED094F88931012B10D16C
:109A5800992384F889310523204684F87931FFF762
:109A68002FFF002038BD00F02FFA0028ECD0284640
:109A7800F8E70123F0E700BFD599020010B590F888
:109A88007931013B012B4FF0010309D880F8783177
:109A9800C0F87C11A0F88021FFF712FF002010BD4C
:109AA8001846FCE708B590F87931013B012B06D838
:109AB800022380F87831FFF703FF002008BD01205A
:109AC800FCE738B5018FC38E448F5B1A05469AB2FE
:109AD800C9B994422CBF00200120A342B8BF144644
:109AE8002B6B85F88F011944224605F5C87000F0E4
:109AF80071FC2B8F611C23442B87284689B2BDE853
:109B08003840FFF759BD94422CBF04200220E4E7F7
:109B18002DE9F74F1D464FF0000A01F001030446F6
:109B2800894616465746019301F0040B16B137785B
:109B380007F0070A019B13B917F0F80F05D00622A2
:109B480084F82C20012284F84C2094F82C20013A27
:109B5800072A00F2D980DFE802F0040ED73B80D450
:109B6800C0A60023256D1A4619462046AC4603B008
:109B7800BDE8F04F604719F0020F0BD0218FE28E3D
:109B880091420FD2BAF1070F03D1082284F82C2092
:109B9800CCE70DB10622F9E7204603B0BDE8F04F47
:109BA800FFF78FBF042284F82C200022A2864FF4EE
:109BB8008072A4F84A20BBF1000FB7D12046FFF706
:109BC80017FD10B1062384F82C3003B0BDE8F08FE0
:109BD800BBF1000FDED0002DDCD094F84C20032A16
:109BE80009D1BAF1040FD5D02046FFF701FD0028AE
:109BF800D0D10423E7E7972222FA0AF2D30794F890
:109C08004A10C2D5454A12F81A00884204D002EB1D
:109C18004A0252788A42B8D184F84AA01EB906226C
:109C280084F82C2086E71AF0030814D1A38EE06B81
:109C3800013D2A46711C184400F0CCFBA38E01227A
:109C48001D4484F82C20226CABB2A386256D1380AA
:109C58004146E26B89E7052298E7B4F83A8008F1B3
:109C68000102954201D0072290E7A08E216C42198B
:109C78000988013A8A4204DD032284F84C20042230
:109C880084E7002ECBD0E36B42461844711C00F0E9
:109C9800A1FBA38E84F84A7098440423A4F8348066
:109CA80084F82C308AE7012D03D994F84B20012A37
:109CB800D9D094F84820511C84F84810002A7FF421
:109CC80069AF2287A286022284F82C202046FFF75B
:109CD800F8FE00287FF45EAF77E7022284F82C2094
:109CE80094F84920511C84F84910002A7FF452AF97
:109CF800072184F88F11A28601212046FFF75CFC1A
:109D0800E7E7019B03B915B1012384F82C30002340
:109D1800256D94F84C101A4627E700BF0CA80200DE
:109D280038B5002380F82C300D4607490446FFF764
:109D380021FC012330B984F82C30A3882565063B23
:109D4800638738BD1846FCE7199B02002DE9F843E4
:109D5800DDF820800446164699460F46E1B1DAB18F
:109D680090F82C50012D17D1022380F82C3000F0E8
:109D780087F9002260642763E6862287C4E90F9882
:109D8800A286A4F8482084F84B2084F84C5020463A
:109D9800BDE8F843FFF795BE0120BDE8F883000051
:109DA800014B1980704700BF043F002037B5134CA2
:109DB80002232380124B83600546FFF761F930B117
:109DC8004FF6FF7003B030BD012000F063F923881F
:109DD8009BB2022BF8D023889BB2012BF0D02846E7
:109DE800FFF724F802A8002300F8043DFFF724F841
:109DF800044B984208BF0020E4E700BF043F00205E
:109E0800A99D0200016BE97530B51D4687B0EAB11E
:109E1800E3B11B88D3B1ADF80400ADF806100024F7
:109E280003A901A8ADF80830ADF80C308DF80A4048
:109E38000492ADF81440FFF75FF8064B984203D13F
:109E4800BDF814302B80204607B030BD4FF6FF70A8
:109E5800FAE700BF016BE975094B18684FF0A0439A
:109E680000F5E072032143F8221001228240C3F872
:109E78000825044A126802F5E07243F82210704778
:109E8800743400207034002038B102682AB10123EC
:109E980093404FF0A042C2F80835704738B10268C5
:109EA8002AB1012393404FF0A042C2F80C35704705
:109EB800044B1A680146D2E9022308B9104618472C
:109EC8000121FBE7083F00201FB54FF0CD630024B8
:109ED8001B201A218DE81B00094C227807238DF8D6
:109EE8000C3012B10748FEF707FF69460548FEF730
:109EF800E7FE012310B9237004B010BD1846FBE734
:109F08000C3F002018A802000D4B10B518600D4B2F
:109F18000D4819601A710D4960225A710C4A0A607D
:109F2800002401229C710A730C61C1E90143FEF708
:109F3800ECFE18B121461120FFF7BAFF002010BD32
:109F4800083F0020643F002018A80200503F00206E
:109F5800B99E02000D4B10B518600D4B0D481960E5
:109F68001A710D4961225A710C4A0A6000240122B3
:109F78009C710A730C61C1E90143FEF7C6FE18B172
:109F880021461120FFF794FF002010BD083F002054
:109F9800643F002018A80200503F0020B99E02002C
:109FA8000020704713B5044601460C48FEF762F9D5
:109FB8001CB1012C0FD002B010BD094B1A68002A41
:109FC800F9D01A680192074A1C60019B106802B018
:109FD800BDE810401847044B1C70ECE738A8020095
:109FE800703F00206C3F0020753F002010B5094CE1
:109FF800227872B90849094A094808230B80FEF7F4
:10A00800EBF808B1FCF774FE0548FEF727F90123C1
:10A01800237010BD743F002078340020AD9F0200EB
:10A0280038A8020008B5114B1860114B1960F421CB
:10A03800B2FBF1F101290AD822B10E4B900143F08D
:10A04800010398470020BDE80840FFF7ABBF0A4B63
:10A058000A48D3F8042501230A440021FEF724F90D
:10A0680018B1BDE80840FCF743BE08BD703F0020AA
:10A078006C3F002030A802000040024038A80200CF
:10A08800034BD3F804354FF47A705843000B7047EC
:10A098000040024038B58200114C0023012A237089
:10A0A8000ADC044638B10F4D45F001054FF47A40FB
:10A0B800A847013CFAD138BD0B4B0C48D3F804151E
:10A0C80001230A441946FEF7EFF808B1FCF710FE21
:10A0D800237813B100232370EDE7FDF731FBF7E791
:10A0E800753F002030A802000040024038A8020056
:10A0F8000020704710B5FFF7AFFEFFF777FF0E4857
:10A10800FFF754FE0D4A0E4B9B1ADB081B0443F065
:10A1180003030446024648B90A491846FCF784FC7A
:10A1280021462046BDE81040FEF702B81846064909
:10A13800FCF77AFC032010BD803400206CA50200D7
:10A14800A4A502006AA8020040A8020000207047E7
:10A158007F2805D8034B185C034B5B5C184070479D
:10A168000020704794A8020014A90200A0F161031E
:10A17800192B98BF20387047A0F14103192B98BFBD
:10A18800203070477F2805D8034B185C034B5B5C75
:10A19800184070470020704794A8020014A90200D4
:10A1A800A0F16103192B98BF20387047A0F1410333
:10A1B800192B98BF203070477F299ABF0170012062
:10A1C8006FF02E0070475AB10A787F2A0AD800B17A
:10A1D8000260002119605960501A18BF01207047A9
:10A1E800002070476FF02E007047000008B5034B41
:10A1F8005B689B681B68984708BD00BF90340020C7
:10A2080008B50921FFF7F2FF08BD000038B5214B5A
:10A21800214A9B1A102B3BD9044600F089F904F116
:10A22800130020F00F021D4B196869B34B689A425E
:10A238000CD04FF0FF34002513E041B103680B60E8
:10A24800044644F8042B00F074F91BE00846016842
:10A25800124B1960F4E7086850B143689342ECD098
:10A2680001469A42F7D2A3423CBF1C460D46F2E78C
:10A2780055B16B689B1A6B60A31AEC18EA5000F092
:10A2880058F90434204638BD00F053F90024F9E7A2
:10A298000024F7E7785F0020783F0020A4340020EE
:10A2A80000285AD038B504462C4A90423BD32C4A51
:10A2B800904238D800F03CF9211F32D054F8040CF1
:10A2C800284B1A68A2B18A421AD344F8042C206099
:10A2D800244B196000250844904225D12A4623685A
:10A2E80045682B442360036844F8043CAAB918E085
:10A2F8001C4B1960002344F8043C206011E01A4606
:10A308001368E3B19942FAD844F8043C2060EAB1F2
:10A31800116013B108448342E1D05368D0188142D8
:10A3280004D000F006F938BD2A46DFE721680B445F
:10A33800536054F8043C1360F3E71160EDE7002321
:10A3480044F8043C2060002AF7D11346054D2960E3
:10A35800002BE6D015461A46BDE77047783F002027
:10A36800785F0020A434002092B370B4134640EA0A
:10A37800010212F0030F17D05A1E10D004780B7880
:10A388009C420CD1431C4C1C024418462146934263
:10A3980005D00133013406780D78AE42F5D0007847
:10A3A8000B78C01A70BC70470F2BE5D904680A688F
:10A3B8009442E1D1041D0A1D20461146043B042B9A
:10A3C800DAD90434043206680D68AE42F4D0D3E713
:10A3D80000207047844640EA010313F0030F18D1A8
:10A3E8008446202A0BD32DE9F007B1E8F807A0E846
:10A3F800F807A2F12002202AF7D2BDE8F007042AC4
:10A4080007D351F8043B40F8043BA2F10402042AA4
:10A41800F7D2002A05D011F8013B00F8013B013AB8
:10A42800F9D1604670478446002A2DD010F0030FFA
:10A4380004D000F8011B013A26D0F7E7C9B241EA77
:10A44800012141EA0141202A12D3A2F120022DE97B
:10A45800F0030B460C460D460E460F4688468946C5
:10A46800A0E8FA03203AFBD2BDE8F00320320BD073
:10A47800042A05D340F8041B043A05D0042AF9D26B
:10A4880000F8011B013AFBD160467047024610F004
:10A49800030F16D111F0030F13D12DE9F0004FF07F
:10A4A80001374FF0803351F8044BA4EB070525EA38
:10A4B80004051D4002D142F8044BF4E7A1F1040160
:10A4C800F0BC11F8013B02F8013B002BF9D17047B1
:10A4D80000F1010110F0030F11D010F8012B002A30
:10A4E80023D010F0030F0AD010F8012B002A1CD03B
:10A4F80010F0030F03D010F8012B002A15D02DE916
:10A5080070004FF001324FF0803350F8044BA4EB49
:10A51800020525EA04051D4000D1F6E7A0F1040074
:10A5280070BC10F8012B002AFBD1A0EB010070478A
:04A5380070477047B1
:10A53C00443F00202C3F00200500000004000000D8
:04A54C00010000000A
:10A55000EC340020B4350020BC350020F434002059
:04A5600018000000DF
:08A56400FDA00200F9A00200B5
:10A56C0025A70200000000002BA70200000000003D
:10A57C0032A7020000000000E8A702000000000063
:10A58C00ECA702000000000036A70200000000004B
:10A59C003BA702000000000011A60200000004040A
:10A5AC001FA702000000000016A702000000000018
:10A5BC00D8A5020000000000E4A50200D030002065
:10A5CC00000000000338FDD870470000DD63020076
:10A5DC0049640200D96302007274745F6C6F675F28
:10A5EC006261636B656E6400E03900207F000000DF
:10A5FC00603A00204261636B656E647320666C7513
:10A60C007368656400617070000000004BA6020066
:10A61C0094A6020053A602009CA60200A4A6020067
:10A62C00ACA60200B4A60200BCA60200C4A602009E
:10A63C00202530327800202020007C002563001B70
:10A64C005B306D002573001B5B313B33316D002596
:10A65C00734C6F67732064726F707065642028256B
:10A66C00642925730D0A003C25733E2025733A207E
:10A67C000000000000000000E5A60200CCA60200CD
:10A68C00D4A60200D9A602001B5B313B33306D000F
:10A69C001B5B313B33326D001B5B313B33336D0045
:10A6AC001B5B313B33346D001B5B313B33356D0031
:10A6BC001B5B313B33366D001B5B313B33376D001D
:10A6CC007761726E696E6700696E666F00646562B1
:10A6DC00756700466174616C206572726F7200530D
:10A6EC00797374656D2072657365740000000000E9
:10A6FC00000000000338FDD8704730313233343558
:10A70C00363738394142434445467077725F6D673E
:10A71C006D7400636C6F636B00434C4F434B00478D
:10A72C0050494F5445005052530055415254005516
:10A73C0041525445000000000000000000000000E1
:10A74C00000000000338FDD8704752756E6E696EBC
:10A75C0067206170706C69636174696F6E0054720C
:10A76C0075737420583A2046572076657273696F5A
:10A77C006E202866726F6D20636F70726F636573E5
:10A78C00736F7220554944293A2025327825327846
:10A79C000052756E6E696E67206170706C696361D2
:10A7AC0074696F6E2056657273696F6E2032005437
:10A7BC0065726D696E616C00525454005345474785
:10A7CC00455200537461636B206F766572666C6FD3
:10A7DC00772064657465637465642E00525443007D
:10A7EC00545749000338FDD8704701000002F1C2EC
:10A7FC00D27600000447656E417574684170706CC8
:10A80C00000400040102FFFF01020000103F0020C1
:10A81C003CA50200000000000030004000000000D9
:10A82C00000000000338FDD87047000000400240D3
:10A83C00240004004661696C7572653A20436D64AE
:10A84C004C69625F4F70656E4170706C69636174C6
:10A85C00696F6E28293A20307825303458005375AA
:10A86C0063636573733A20436D644C69625F4F7028
:10A87C00656E4170706C69636174696F6E28293AFA
:10A88C002030782530345800202020202020202013
:10A89C002068282828282020202020202020202044
:10A8AC0020202020202020204810101010101010E4
:10A8BC0010101010101010108484848484848484EC
:10A8CC0084841010101010101081818181818101FD
:10A8DC00010101010101010101010101010101015C
:10A8EC0001010110101010101082828282828202EB
:10A8FC00020202020202020202020202020202022C
:10A90C00020202101010102000070320041702018D
:10A91C000857104080000000C8AA02008CA9020051
:10A92C00A0AA020053756E004D6F6E005475650041
:10A93C005765640054687500467269005361740071
:10A94C00000000004A616E00466562004D617200B5
:10A95C00417072004D6179004A756E004A756C0049
:10A96C0041756700536570004F6374004E6F76003D
:10A97C004465630000000000414D00504D00000094
:10A98C00C4AA0200C0AA0200C0AA0200C0AA020007
:10A99C00C0AA0200C0AA0200C0AA0200C0AA0200FB
:10A9AC00C0AA0200C0AA0200FFFFFFFFFFFFFFFFCB
:10A9BC00FFFFFFFFFFFF000000AA020030A902000A
:10A9CC003CAA020050A9020084A90200E4A90200DA
:10A9DC0094AA0200F0A90200256D2F25642F257979
:10A9EC0000000000256120256220256520255420CB
:10A9FC002559000053756E646179004D6F6E64616A
:10AA0C00790054756573646179005765646E65737C
:10AA1C006461790054687572736461790046726977
:10AA2C00646179005361747572646179000000008F
:10AA3C004A616E75617279004665627275617279F0
:10AA4C00004D6172636800417072696C004D6179F0
:10AA5C00004A756E65004A756C79004175677573AF
:10AA6C00740053657074656D626572004F63746F2A
:10AA7C00626572004E6F76656D6265720044656347
:10AA8C00656D62657200000025483A254D3A2553E4
:10AA9C000000000059A1020075A1020081A1020072
:10AAAC008DA10200A9A10200B5A10200C1A1020062
:10AABC00CFA10200000000002E00000043000000A7
:08AACC00504F534958000000EF
:10AAD40000000000FF0000000090D003FFFF000012
:10AAE40030009001FA00000074340020703400201B
:10AAF400603400200000000000000000000000009E
:10AB04000000000000000000000000000000000041
:10AB14000000000000000000000000000000000031
:10AB24000000000000000000000000000000000021
:10AB34000000000000000000000000000000000011
:10AE640000000000300000000000000000000000AE
:10AE74001200000014000000000007410000000060
:10AE8400E03000200000000000000000000000008E
:10AE940024A9020024A9020024A9020024A9020072
:08AEA40024A90200783F002000
:0400000320006379FD
:00000001FF
