:020000040000FA
:080FF8000000070000E0070003
:020000040007F3
:100000000000012079030700610307006303070074
:10001000650307006703070069030700000000008D
:100020000000000000000000000000000531070093
:100030006D030700000000006F0307007103070055
:10004000730307007303070073030700817D070034
:1000500073030700730307007303070073030700AC
:10006000730307007303070073030700730307009C
:10007000730307007303070073030700730307008C
:10008000FD4D0700B9350700730307007303070030
:10009000730307007303070025720700730307004B
:1000A000730307007303070073030700730307005C
:1000B0007303070073030700000000000000000046
:1000C000730307007303070073030700730307003C
:1000D0005177070073030700730307000000000057
:1000E0000000000000000000000000000000000010
:1000F0000000000000000000000000000000000000
:1001000000000000000000000000000000000000EF
:1001100000000000000000000000000000000000DF
:1001200000000000000000000000000000000000CF
:1001300000000000000000000000000000000000BF
:1001400000000000000000000000000000000000AF
:10015000000000000000000000000000000000009F
:10016000000000000000000000000000000000008F
:10017000000000000000000000000000000000007F
:10018000000000000000000000000000000000006F
:10019000000000000000000000000000000000005F
:1001A000000000000000000000000000000000004F
:1001B000000000000000000000000000000000003F
:1001C000000000000000000000000000000000002F
:1001D000000000000000000000000000000000001F
:1001E000000000000000000000000000000000000F
:1001F00000000000000000000000000000000000FF
:10020000364937480A1A02D0072291438D463549AC
:1002100035480A1A06D00722914381F30988022241
:1002200082F3148831483249324A00F045F83248A6
:100230003249334A00F040F832483349334A00F03B
:100240003BF833483349344A00F036F833483449F0
:10025000344A00F031F834483449354A00F02CF87B
:1002600034483549354A00F027F8354835490022E9
:1002700000F02DF834483549002200F028F83448C1
:100280003449091A082903DB0022026004300160A6
:10029000314A90471F482049884205D002680430FF
:1002A00003B4904703BCF7E700208646EC460020E5
:1002B00000212A4A9047FEE7884207D0521A05D00B
:1002C000037801300B700131013AF9D1704788424F
:1002D00002D002700130FAE77047000000000120F0
:1002E00000F80020000001200000012010D70700C6
:1002F000CC570020285C0020D8030700D803070053
:10030000749D070010D70700CC570020CC57002061
:10031000A89E0700A89E0700A89E0700A89E0700A9
:10032000A89E0700A89E0700A89E0700A89E070099
:1003300010D707006CDB0700285C0020285C002039
:10034000285C0020B4A40020B4A40020B4A40020A1
:10035000B4A40020B4C40020A1030700E5330700C3
:10036000FEE7FEE7FEE7FEE7FEE7FEE7FEE7FEE765
:10037000FEE7FEE7704700BF1048804710484FF087
:100380000701884385460F4880470F48016841F4BC
:1003900070010160BFF34F8FBFF36F8FFFF730BF66
:1003A0000A480B490B4A884207D0521A05D00378F5
:1003B00001300B700131013AF9D170477503070024
:1003C00000000120354F070088ED00E0949E0700F3
:1003D000B8570020CC5700207047000007B5044BE9
:1003E0000093044A402300F032F803B05DF804FBA8
:1003F000F9030700295C00202DE9F84389461446DB
:10040000B2B10F4B0F4E0325002743F001082246DF
:1004100009EB0701002003F0B5FF0744241A48B98F
:1004200033782BB14FF47A40C047013D02D135708B
:10043000BDE8F88301233370002CE8D1F8E700BF52
:10044000B09E0700285C0020704703F0CFBFF0B5D6
:1004500095B01C46164608460D4601F064FD1A9BF1
:100460000D93CDE9086400242346082205A92846F7
:100470000A948DF82C400C9401F07EFD079B0293AA
:10048000BDF81830ADF80C30BDF81A30ADF80E30AC
:100490009DF814308DF8114003F00302012A1DD19C
:1004A000BDF81440059EC3F3C203C4F383148DF852
:1004B0001030A20008230EA9284601F05DFDC6F306
:1004C000952608AB0093224602AB0EA9304600F0F9
:1004D00027FC284601F02BFD15B0F0BD022AF8D10B
:1004E000BDF81640C3F3C203A4098DF810300827E5
:1004F000082C264628BF08263B4632460EA9284629
:1005000001F03AFDA41B08AB02AA31460EA83744FD
:1005100000F06AFC002CEBD1DBE7000008B5FFF728
:1005200094FF0421064800F065FB002803DA054922
:10053000412000F0EBFD044B01225A7108BD00BFC1
:10054000549E0700C49E0700CC570020037813F088
:10055000040216D003F00303012B03D0022B09D0B1
:10056000012070470A6800880232C0F383100244F9
:100570000A60F5E70B684288023303EB92130B60C5
:10058000EEE71046704700002DE9F04F89B00646AF
:10059000871C08A80023484C00F8113D0D46009226
:1005A00000F046FD23682B60D4E90123DFF81081B9
:1005B0001344226801339B1AA8F1040BA8F108091F
:1005C000BB421AD3009A0023002A6DD0012262F3A5
:1005D000010343F0040366F389132168A2689DF8C0
:1005E0000F000A4003320F4444F82230276000F025
:1005F0004FFD012009B0BDE8F08F0121404600F019
:1006000072FE584600F088FE0DF1200A484600F0C0
:1006100083FE60684AF8100DA5682840033004EB9B
:1006200080005146FFF792FF02460498002AF4D159
:1006300005EA000304EB8303811CDB6805930130AA
:10064000054004EB850503F00303012B0491ED68DD
:1006500023D0022B08D0194901924FF4BF7000F04B
:1006600055FD019A154607E0BDF816309B09033386
:100670002D0C01EB93030493484600F050FE08B1A3
:10068000049B63602946404600F02DFED4E9012317
:100690001344226801339B1A92E7BDF81430C3F368
:1006A00083132D0C0B44E6E7022262F3010343F0AF
:1006B000040366F39F5390E73C5D0020369F0700DC
:1006C000586D00200D4B0E4840F2FF3241F21801E8
:1006D00010B59A6000225A5041F21401C3E9002279
:1006E0005A5003F581531A7001F0D6FB044610B935
:1006F000044801F051FD204610BD00BF3C5D0020C4
:100700002C9E0700909F070030B50A4C71B10A4A31
:100710000A49121BD20800239A4201D1002030BDA1
:1007200031F82350854202D00133F5E7034654F8EF
:100730003300F4E7A49D07002C9E0700B857002063
:10074000094B013903EBC000032909D8DFE801F0A8
:100750000A02040604207047007970474079704708
:100760000020704702207047A49D0700034BD3E987
:100770000030C31A58425841704700BF3C5D00200A
:100780002DE9F04387B0FFF7F1FF0646002840F05F
:100790000681844D41F21803E850BFF34F8F68681B
:1007A000AC68DFF8188206AF47F8100D2040033020
:1007B00005EB80003946FFF7C9FE029B18B1D8F857
:1007C0000020002A61D004EA0302991C013305EBE2
:1007D0008202234005EB8303D268DB68049302F0B6
:1007E0000303022B0392029167D1BDF80E306E48CD
:1007F0004FEA9318B8F1500FC14628BF4FF0500987
:1008000069F38F1309F10801ADF80E3001F05CFBBC
:100810000746002800F0AD8001F085FB03A9002306
:100820000822384601F092FB029924EA01060136BB
:10083000B600B1453AD95FFA89F9A6B3F6B2A9EB89
:100840000609214003315FFA89F4B146574E05EBA2
:10085000810108234A46384601F078FB36B109F198
:10086000080322463146384601F070FB029B08F12E
:10087000030803EB9803029341F21803EB58002B93
:100880004FD141F21003EC585EE02A689A4204D836
:100890006A60304607B0BDE8F08304EA0300033025
:1008A00005EB800086E741493446D2E72140033119
:1008B00008234A4605EB8101D5E7012B59D1BDF844
:1008C0000C303948C3F38311062928BF062161F390
:1008D000891302318900ADF80C3001F0F5FA0746B2
:1008E000002846D001F01FFB0023082203A9384648
:1008F00001F02CFB0026BDF80C20C2F38312B31CC0
:1009000096424FEA8303B7D202994A1C2140033131
:10091000029205EB81010422384601F017FB0136F3
:10092000E9E7384601F003FBFFF720FF80F0010004
:10093000C6B2AEE7E3685B7923B1236839461B682A
:1009400020469847E3681C68002CF3D1384601F034
:10095000EEFA06A800F8114D00F06AFB41F2180308
:10096000EB580BB9029B6B609DF8070000F090FB01
:10097000DAE741F21003EC5854B90D4B0D480E491B
:10098000C01AC008000440F0020000F087F8CBE76E
:10099000236820469B689847E3681C68ECE70026BC
:1009A00077E700BF3C5D00202C9E0700485D0020DB
:1009B000A49D0700B49D07009C9F0700546D002074
:1009C0002DE9F74F2F4D80460F46914601A9012290
:1009D00018469B46D5F808A0FFF7D6FD00283DD065
:1009E000019C0026A11C5E4506EB010240D10021BE
:1009F000254800F042FC80F3100B244B244A4FEAB8
:100A000018499B1AB9EBD30F04D3224940F2A31023
:100A100000F07CFB631C03EA0A0305EB830349EA4D
:100A20000B42DA6004EA0A030333012115F823209C
:100A300068F3C50205F8232035F8232066F38912F0
:100A400025F8232055F8232067F39F2245F823201B
:100A500061F301026FF3820205F823200E4B1B782D
:100A60001BB1FFF78DFE0028FBD103B0BDE8F08F6E
:100A70000AEA020205EB820259F82630D3600136F9
:100A8000B1E700BF3C5D0020586D00202C9E0700A0
:100A9000A49D0700369F07005C6D002000231A46C6
:100AA000FFF78EBF13B502AC012344F8042D224694
:100AB000FFF786FF02B010BD07B5CDE90023022382
:100AC0006A46FFF77DFF03B05DF804FB1FB5CDE973
:100AD0000123069B039301AA0323FFF771FF05B0CF
:100AE0005DF804FB1FB5CDE90023069B0293079B2D
:100AF00003936A460423FFF763FF05B05DF804FB28
:100B00007FB5CDE90123089B0393099B04930A9BBE
:100B1000059301AA0523FFF753FF07B05DF804FB17
:100B20002DE9F3478046304CD01C8A46174601A970
:100B300000228008A568FFF727FD002840D0DDF8D7
:100B40000490A66809F10200019001362840361A87
:100B5000B6000330B74204EB80003BD83A4651461A
:100B600009F058F80021214800F087FB80F31000BD
:100B700009F101032B4004EB83034FEA184242EAD8
:100B80000040D86005EA0903033304EB830214F83C
:100B9000231068F3C50104F8231034F823106FF311
:100BA0008F1124F82310518867F38F11518014F8A6
:100BB0002320022161F301026FF3820204F8232053
:100BC0000B4B1B781BB1FFF7DBFD0028FBD102B0FC
:100BD000BDE8F0873246514609F01CF8BA1B0AEB13
:100BE000060104F10C00BBE73C5D0020586D0020BD
:100BF0005C6D002030B541F210030F49CA58002344
:100C0000144644B9C46823715AB941F210054851D9
:100C10002260184630BDE46825799D4206D02468DC
:100C2000EFE7D268116821601060F2E701330A2B08
:100C3000E6D14FF0FF33ECE73C5D002038B541F2E0
:100C40001002094B9C5803F58152012313701D4675
:100C500004B938BDE3685D71236820465B68984736
:100C6000E3681C68F4E700BF3C5D0020037A052BB5
:100C700010B50C460FD0437A23B1084A08492046E4
:100C800000F0F8FB0749204600F0F4FB2046BDE8E1
:100C9000104000F0DDBB002AF8D0F3E7E79F070023
:100CA00037AC070009A00700C38873B504460D469A
:100CB00033B1144A00921449144A284600F0DAFB72
:100CC000217A05291CD0637A4BB1A088FFF738FD43
:100CD0000F4B104953F82020284600F0CBFB227A16
:100CE0000D4BA08853F822600021FFF70DFD0B4942
:100CF00003463246284602B0BDE8704000F0BABB59
:100D000002B070BDE79F0700F49F0700EC9F07004B
:100D1000B49F070037AC070018A007000CA007001D
:100D20002DE9F04385B01F460C9D002306460C4676
:100D3000904695F80C902B7329463846FFF7B4FF80
:100D4000B8F1060F09D8DFE808F00412181F28339D
:100D500040003146284600F08DFB002229463846E7
:100D6000FFF784FF85F80C9005B0BDE8F08322689A
:100D70003146284600F07EFBEFE7D4E900233146F8
:100D8000284600F077FBE8E7A36800933146D4E9F2
:100D90000023284600F06EFBDFE7E3680193A368B9
:100DA00000933146D4E90023284600F063FBD4E7E2
:100DB00023690293E3680193A36800933146D4E961
:100DC0000023284600F056FBC7E7636903932369B5
:100DD0000293E3680193A36800933146D4E90023AA
:100DE000284600F047FBB8E708292DE9F84F804670
:100DF0000E4617461C463AD8002593F80C901D73F2
:100E000019461046FFF750FFDFF884A0DFF884B0E2
:100E1000AE422ED918F805205946204600F02AFB8C
:100E20000135082DF4D11849DFF86CB0204600F0E8
:100E300021FB4FF0000A564520D918F80A507E2DA4
:100E400003D8284608F0FCFD00B92E252A4659464D
:100E5000204600F00FFB0AF1010ABAF1080FEAD1AF
:100E6000012221463846FFF701FF84F80C90BDE8C7
:100E7000F88F5146204600F0FDFAD1E7034920469D
:100E800000F0F8FAE7E700BFE29F0700E09F0700E5
:100E9000DE9F0700D89F0700E49F070012F00303BE
:100EA00010B511D1094C22604C1CE400A4B22244BC
:100EB000074C2260074A1370074A1370074A1080D4
:100EC000074A1846118010BD0720FCE7006E00207D
:100ED000FC6D0020F86D0020086E0020046E0020DC
:100EE000066E00202DE9F3472B4D2B888B420646DA
:100EF0000C4617464BD302A84FF0000800F8018DAE
:100F000000F096F8254B264A18781178CBB225497F
:100F100009888B4238BF0133C0B238BF5FFA83F80B
:100F200040452ED092F800801378DBB2994286BFFC
:100F30000133DBB2002313709DF8070000F0A8F81E
:100F40004FF6FF73984524D0DFF860A0DAF8003040
:100F50004FEAC80903EB090243F83870A6B19CB107
:100F6000114B28881B68224608FB0030314608F0E8
:100F700051FEDAF800304B4400209C8002B0BDE8FE
:100F8000F0874FF6FF78D7E700209080F6E709203A
:100F9000F4E70420F2E700BF046E0020086E002092
:100FA000F86D0020066E0020FC6D0020006E002011
:100FB000F8B5124C124D264622782B789A4200D171
:100FC000F8BD23780F48104A078812680F48DBB233
:100FD00019B202EBC10C006852F83120BCF80410C1
:100FE00003FB070090470A4A23781288DBB29A4233
:100FF00086BF0133DBB200233370DDE7086E0020CB
:10100000F86D0020046E0020006E0020FC6D0020B2
:10101000066E0020EFF30583C3F308032BB9EFF34B
:101020001480C04300F001007047012070470000A9
:1010300070B50446FFF7EEFF012803D010494320A6
:1010400000F064F8EFF3108672B60E4A9068012340
:1010500098B993600C4B0D4DD3F880102940116066
:10106000C3F88050D3F8841051604FF0FF32C3F8BA
:101070008420207006B962B670BD2370FAE700BF05
:101080007DA007000C6E002000E100E0FC06FFBD23
:1010900010B50446FFF7BEFF012803D009495120CF
:1010A00000F034F8084B9A685AB154B9EFF3108144
:1010B00072B6064A18681060586850609C6001B9A2
:1010C00062B610BD7DA007000C6E002000E100E0BC
:1010D00030B53AB11368DB430B4C0144884204D16C
:1010E000D84330BD4FF0FF33F6E710F8012B5340E3
:1010F000082213F0010F14BF25460025013A85EAA6
:101100005303F6D1EAE700BF2083B8ED07B5ADF889
:10111000000001916A46002144F2020002F036F913
:1011200003B05DF804FB10B561B1B2FBF3F403FB4F
:101130001424A4B244B9C0E9001484608281C3813C
:10114000204610BD0E20FCE70920FAE782B050E8E7
:10115000022FC188B2EB324F4FF0000317BF92B29B
:1011600041EA014142EA014104E04268B2EB324FF8
:1011700008BF012340E80212002AE8D18DF80730A9
:101180009DF80730002B0CBF1120002002B07047E3
:1011900037B550E8013F9DB2C48925448489A542F2
:1011A00028BF2D1B0489A54202BFBFF32F8F002249
:1011B00007E0C5EA030540E80154002CE9D14FF0EF
:1011C00001028DF803200193019B9DF803200B6021
:1011D00002F0FF0322B10B880068184403B030BD51
:1011E0001846FBE70A884B889A4209D150E8012F3C
:1011F000C2EA024240E80123002BF7D101207047E8
:101200000020704737B550E8023F1FFAA3F5C488A5
:10121000A54202BFBFF32F8F00220DE0C4892544F1
:101220008489A54228BF2D1BC3EA054540E8025426
:10123000002CE8D14FF001028DF803200193019BAF
:101240009DF803200B6002F0FF0322B14B88006879
:10125000184403B030BD1846FBE70A884B889A4211
:1012600009D150E8022FC2EA224240E80223002BB3
:10127000F7D1012070470020704750E8002F0B463F
:1012800040E8003C9CF0000FF7D11046704750E852
:10129000002F42EA010340E8003C9CF0000FF6D129
:1012A0001046704750E8003F43EA010240E8002C36
:1012B0009CF0000FF6D11046704750E8002F02EA6C
:1012C000010340E8003C9CF0000FF6D11046704747
:1012D00050E8003F03EA010240E8002C9CF0000FB8
:1012E000F6D11046704750E8003F03EB010240E89A
:1012F000002C9CF0000FF6D11046704750E8003FDC
:10130000A3EB010240E8002C9CF0000FF6D1104640
:1013100070470121FFF7BBBF0121FFF7C3BF0021C9
:10132000FFF7CBBF0021FFF7D3BF000010B5044685
:10133000002834D003681BB91A49FF20FFF7E6FEE6
:10134000636823B917494FF48070FFF7DFFEA36885
:1013500023B9144940F20110FFF7D8FEE36823B91E
:1013600010494FF48170FFF7D1FE238A23B90D494C
:1013700040F20310FFF7CAFED4E9012321689B1A4B
:10138000DBB20A60013BDBB2FF2B226802D10020F6
:10139000107110BD1168481C10600B70F2E70E2030
:1013A000F7E700BFDEA0070037B5054620B91349AF
:1013B0004FF49270FFF7AAFE02A8002400F8014D36
:1013C000FFF736FE2A686B68116899420ED9481EED
:1013D000106011F8014CEB68298A01FB0434AB68FA
:1013E00011791B1ADBB2994238BF13719DF80700BF
:1013F000FFF74EFE204603B030BD00BFDEA0070061
:1014000037B50C46054620B9104940F24710FFF7A2
:101410007DFE24B90D494FF4A470FFF777FE02A8B2
:10142000002300F8013DFFF703FE2A681368591CEA
:101430001160EA68A41A2A8AB4FBF2F41C709DF8C1
:101440000700FFF725FE03B030BD00BFDEA0070098
:1014500010B5044618B906493120FFF757FEA268B7
:101460002AB163692168206998470023A36010BDF1
:1014700031A107000EB433B5059D044618B91249D1
:101480004220FFF743FE63691BB90F494320FFF772
:101490003DFE23681BB90C494420FFF737FE636803
:1014A0001BB909494520FFF731FE3DB102AA06AB41
:1014B00042F8043D2946204600F06EF802B0BDE82F
:1014C000304003B0704700BF31A10700826830B4DC
:1014D0000468551C8560A154D0E901329A4202D3B8
:1014E00030BCFFF7B5BF30BC704700002DE9F84FA6
:1014F0009946DDE90A431746824688460A46012690
:10150000BA420FD24E4538BF4E4613F0010B01D1FF
:1015100064B900240125B9F1010F1AD909F1FF3985
:101520007D43F8E7B2FBF7F20136E9E79B070ED5FA
:10153000B9F1000F0CBF30252025A642EAD2013CAC
:1015400029465046FFF7C2FF002CF6D1E1E72025DF
:10155000F3E7B8FBF5F39F42E2D9DFF83890B8FB28
:10156000F5F3504619F8031005FB1388FFF7AEFF9B
:10157000B5FBF7F5002DF2D1BBF1000F02D00CB195
:10158000A64201D3BDE8F88F20215046013CFFF769
:101590009DFFF4E77AA107002DE9F74F0E4690462C
:1015A000054620B9AC494FF4A270FFF7AFFD6B6957
:1015B00023B9A9494FF4A370FFF7A8FD2B6823B9FD
:1015C000A54940F24710FFF7A1FD6B6823B9A24976
:1015D0004FF4A470FFF79AFD002E00F03A8116F840
:1015E000011B002958D0252940F0D180002702E0B6
:1015F00047F001071646324612F8013B2D2BF7D073
:10160000302B04D02B2B05D147F00407F2E747F02D
:101610000207EFE700242A2B06F101021BD1D8F8BC
:101620000030191D1B68C8F800101C44164633789A
:101630002E2B1CD101364FF0000A314611F8012B38
:10164000A2F13000092814D80A2303FB0A23A3F1CE
:10165000300A0E46F1E712F8013CA3F130010929E6
:10166000E5D80A2101FB0434303C1646D3E74FF09D
:10167000000A324612F8011B01F0FB0068281646EA
:10168000F8D0692916D054D8582970D00ED82529F9
:101690007DD03378002BA2D12B7B002B00F0D9809A
:1016A000284603B0BDE8F04FFFF7D2BE632968D0EB
:1016B0006429EED1D8F80020D2F80090111D89EAF3
:1016C000E972C8F80010A2EBE9724FF0010B092A89
:1016D00061DCD34538BFD3462CB1B9F1000F01DB33
:1016E000790700D5013CBA0702D5BAF1000F04D042
:1016F000FB0702D4002C54D10024B9F1000F58DAB2
:10170000C9F100092D212846FFF7E0FE07F003028A
:10171000022A05D1BAF1000F02D1002C4DD10024CC
:10172000CDE9004753460A2249462846FFF7DEFE28
:10173000AFE7732954D016D87029AAD1D8F8003051
:101740001A1DC8F80020302128461C68FFF7BEFE8D
:1017500078212846FFF7BAFE00220823CDE900329F
:1017600021461022E1E775292FD0782991D1D8F8A8
:1017700000100A1DC8F80020CDE90047534610228A
:101780002CE0D8F800301A1D1978C8F80020284637
:10179000FFF79CFE7DE70A230BF1010B92FBF3F2AE
:1017A00095E7A345A9D220212846013CFFF78EFEEC
:1017B000A0E77807AAD52B21A5E7A345B0D2302111
:1017C0002846013CFFF782FEA7E7D8F80010CDE9D4
:1017D00000470A1DC8F8002053460A220968A4E7FA
:1017E000D8F800301A1DC8F80020F907D3F8009087
:1017F00012D54F46A7EB090B17F8011B41B9A345BA
:10180000BFF447AF20212846013CFFF75FFEF6E713
:101810002846FFF75BFEEDE7B9F1000F17D0484609
:1018200008F076FA0746BC4200D954B909F1FF39ED
:1018300019F8011F00293FF42CAF2846FFF746FE98
:10184000F6E720212846013CFFF740FEEBE74F4634
:10185000E9E703B0BDE8F08F8AA1070070B50D4637
:101860001646044618B908495520FFF74FFC1DB924
:1018700005495620FFF74AFC25602B683146204673
:10188000BDE87040184700BFDAA107002DE9F0411C
:10189000DDF818800E4617461D46044618B9224941
:1018A0008820FFF733FC1FB91F498920FFF72EFC62
:1018B00023681BB91C498A20FFF728FC1DB91A4967
:1018C0008B20FFF723FC63685A68B5FBF2F302FB39
:1018D00013531BB114498E20FFF718FCB20703D035
:1018E00011499120FFF712FCBB0703D00E4992204B
:1018F000FFF70CFCE3689E4204D36B1E226933445D
:10190000934203D908499320FFF700FC2368CDF8E0
:101910001880D3F80CE03A462B4631462046F44670
:10192000BDE8F041604700BFDAA107002DE9F041B2
:101930000D4616461F46044618B919499E20FFF762
:10194000E5FB23681BB916499F20FFF7DFFB1EB993
:101950001349A020FFF7DAFB63681B68013B2B42A9
:1019600003D00F49A320FFF7D1FBE3689D4207D3C3
:1019700063681B686A1E03FB06232269934203D92E
:101980000749A820FFF7C2FB2368D3F810E03246CE
:101990003B4629462046F446BDE8F041604700BF7B
:1019A000DAA107002DE9F04108B10368C3B90E4E72
:1019B0000E4B14229B1B0024B3FBF2F3374602FBB1
:1019C00003F5A54201D1002008E03B5930190BB9BD
:1019D0001434F6E7DB6998470028F9D0BDE8F081B8
:1019E000DB69BDE8F0411847B8570020CC5700200C
:1019F000014B43600020704740A207000846704733
:101A000000207047024B1868003018BF0120704753
:101A1000186E002008B50248FFF784FC002008BDBE
:101A2000186E002008B510461A4608F0F3F800209A
:101A300008BD00002DE9F041804686B013480E46EF
:101A400015461F46FFF765FC044630B1112018E02B
:101A500006EB043000F08CFD0134A542F8D10B48B0
:101A6000FFF760FCD8F8083000246BB1022268460A
:101A70008DF80020CDE90146CDE90345059798474B
:101A8000204606B0BDE8F0811846FAE7186E00203F
:101A90002DE9F041804686B012480F4616461D4695
:101AA000FFF737FC0446D8B9AA083146384600F09B
:101AB00077FD0C48FFF736FCD8F8083073B10122E7
:101AC0008DF800200C9A05926846CDE90147CDE9D2
:101AD00003659847204606B0BDE8F0811846FAE74E
:101AE0001120F8E7186E002029DF704728DF7047C3
:101AF00070B503689D6886B004460E466DB1142229
:101B00000021684608F0AFF8A36805932379019691
:101B10002BB1012B0DD06846A84706B070BD01233C
:101B20008DF8003023690293E3680393636904939B
:101B3000F1E702238DF80030E3681B030293F5E719
:101B40000846704700207047024B187A003018BFD3
:101B50000120704708700020034B187A0122B0FA68
:101B600080F05A74400970470870002008B510468C
:101B70001A4608F04FF8002008BD000008B51422EE
:101B80000021044808F06FF80348FFF7DFFA00204F
:101B900008BD00BF08700020F86F002010B5094C88
:101BA000094B43602046FFF7B4FB48B905F020FB22
:101BB0001C2320744FF4EE7204490548FFF7B3FA72
:101BC000002010BD087000206CA207001C6E0020D1
:101BD000F86F002070B5234D234E2B7A2C463BB96D
:101BE00022492348FFF70EFB306008B9686070BDDA
:101BF0000223237233681A7972B1012A22D018465F
:101C00000321FFF775FF002323726360174918480B
:101C1000BDE87040FFF721BBD3E90520121A142A52
:101C200028BF1422D3E903159208012A014438BFC2
:101C300001222844FFF758FF50B11128DFD10123BA
:101C40002372D4E7D3E903021044FFF74FFFF3E711
:101C5000237C002BCBD10146BDE87040022000F070
:101C600009B800BF08700020207000201C70002000
:101C7000F86F002038B5831E012B43D8224C237AFD
:101C8000002B3FD0022B09D103282ED01F4B1B68FD
:101C90000022E2601A793AB1012A20D0637C6BBB42
:101CA000BDE83840FFF796BFD3E905128D1A142D11
:101CB00094BF521914329A619142EFD102284FF029
:101CC000000308BF19462372104B18BF0D21186876
:101CD000FFF70EFF0E490F48FFF7BFFADEE71A695C
:101CE00001321A615B699A42E7E7E3680133082B26
:101CF00001D8E360D2E70023E360DFE7BDE83840C6
:101D000005F066BA38BD00BF0870002020700020C2
:101D10001C700020F86F002000F0FD03012B08D19B
:101D2000044B00225A74421E504250411874FFF76F
:101D300051BF70470870002010B5064C201DFFF7FA
:101D4000E8FA28B9637C1BB9BDE81040FFF742BF31
:101D500010BD00BF087000202DE9F34180460D46FC
:101D60000F4801A916461F46FFF712FA0446A8B10C
:101D70001C22002107F077FF2D0B0123237101A9FD
:101D8000C4F80080A760E56066610548FFF72AFA9D
:101D9000FFF7D2FF002002B0BDE8F0810420FAE78F
:101DA000F86F00202DE9F74381468846104801A9C5
:101DB00017461E46FFF7ECF90446B0B11C2200217D
:101DC00007F051FF00250A9BA36001A92571C4F803
:101DD0000090C4E9037866610548FFF703FAFFF74E
:101DE000ABFF284603B0BDE8F0830420FAE700BF4C
:101DF000F86F00202DE9F74F99469DF83030019398
:101E000088461746054618B92249B620FFF77EF9DD
:101E1000EA8895F805B00BFB02FBABF1040BCB4550
:101E200003D81C49C420FFF771F93E68B5F806A035
:101E300006EB09025A4509F1040188BFABEB09061C
:101E4000B1FBFAF43E600AFB141144B9AAEB010796
:101E5000B74228BF37462EB903B0BDE8F08F2D68D2
:101E6000013CF2E7019A043108EB0403681872B1EF
:101E700001463A461846F61B07F0CCFEB2453C44F4
:101E80002D6857464FF0000128BF3746E3E73A4632
:101E90001946F0E798A20700FFF748BAF8B5467967
:101EA0000146721E0546002393422D6803D3002489
:101EB000A64202D8F8BD0133F6E70F682846FFF7BF
:101EC0009FFA01343946F3E72DE9F843068ACD1C21
:101ED0000746FFF769FA043E35440446B5FBF6F5BC
:101EE000F0B14FF48073EDB28380C680013D07608E
:101EF00081464FF00008A84512D23846FFF754FA41
:101F0000064648B163790133637108F10108C9F8E5
:101F1000000007608146EEE72046FFF7BFFF34462A
:101F20002046BDE8F88301210430FFF7DCB910B585
:101F3000012104460430FFF7E1F910F0FF0F04D14E
:101F40002046BDE81040FFF7A9BF10BD30B585B0F1
:101F5000144604AA002542F8044D0095FFF74AFFF5
:101F6000039BA34203D00349F620FFF7CFF805B047
:101F700030BD00BF98A2070030B585B0144604AA52
:101F8000012542F8044D0095FFF734FF039BA3425F
:101F900004D003494FF48070FFF7B8F805B030BDA6
:101FA00098A20700026813685268934291BFD01A42
:101FB00080680130801888BFC01A704738B50C4659
:101FC000054618B904497720FFF7A0F8AB68A3428B
:101FD0008CBF601C002038BDEBA2070038B504465A
:101FE00018B907498A20FFF791F8236820461D6831
:101FF0005968FFF7E3FF431B5842584138BD00BF03
:10200000EBA207002DE9F3410D46044618B92E490D
:102010009520FFF77BF81DB92B499620FFF776F83E
:1020200002A8002300F8013DFFF702F82046FFF761
:10203000D5FF804610B1237C002B3BD1276820467A
:102040007E687968FFF7BAFF7860B8F1000F05D0B5
:10205000276820463968FFF7B1FF3860E26860689A
:10206000531E072B20D8DFE803F004101F141F1F96
:102070001F182B7883552046FFF794FF23689A6832
:10208000824200D29860002415E02B8820F8163098
:10209000F1E72B6840F82630EDE7D5E9002300EBA7
:1020A000C600C0E90023E6E7294606FB020007F068
:1020B000B1FDE0E704249DF80700FEF7E9FF2046A4
:1020C00002B0BDE8F08100BFEBA2070010B50446E6
:1020D00020B9064940F20A20FFF718F8236818686B
:1020E0005B68C31A5842584110BD00BFEBA20700FD
:1020F0002DE9F3410C469046054618B92549D920EB
:10210000FFF704F81CB92349DA20FEF7FFFF02A805
:10211000002300F8013DFEF78BFF2846FFF7D6FFAE
:10212000002834D12F683E68B8F1000F04D1396817
:102130002846FFF743FF3860EA686968531E072B9B
:102140001FD8DFE803F0040F1E131E1E1E178B5D41
:10215000237000249DF80700FEF79AFF204602B086
:10216000BDE8F08131F816302380F2E751F82630CF
:102170002360EEE701EBC601D1E90023C4E90023A7
:10218000E7E706FB0211204607F044FDE1E70524DE
:10219000E0E700BFEBA20700836800225A609A6064
:1021A000C3E90422DA601A607047000038B50D46B2
:1021B000044618B909495020FEF7A8FF1DB9074980
:1021C0005120FEF7A3FF2B686A686360934208BF43
:1021D0000023256008BF636038BD00BF3CA3070033
:1021E00010B5044618B90B496320FEF78FFF23682A
:1021F0001BB908496420FEF789FF636843B1226870
:10220000916852680B449342636004BF002363608B
:1022100010BD00BF3CA307000D4930B5A1F5947275
:102220000225914201D800200EE08B1ADB1093FBAF
:10223000F5F302EBC30452F83330834205D802D2DF
:1022400004F10802EDE7606830BD2146E9E700BF10
:10225000E4A4070008B5FFF7DFFF024B002808BF22
:10226000184608BDA8A307002DE9F04F0022C9B009
:102270004B780C781B0443EA0463CC7823438C78B6
:1022800043EA042308AC0431A3500432402AEFD1BE
:10229000234638AD996B1E464FEAF14282EA7142FD
:1022A00082EA9122716A366853F8044F31440A4435
:1022B0004FEAB44181EAF41181EAD4010A449D4213
:1022C000DA63E7D1036D0093436D0193836D02934D
:1022D000C36D0393036E0493436E0593836E06935D
:1022E000DDE905ECC36E009CDFF8AC900793DDE9F7
:1022F0000381DDE901659B4600274FEAF12383EA6C
:10230000B11383EA716A59F827301A4608AB53F8BB
:1023100027301A44134653442CEA010201EA0E0AFC
:1023200082EA0A021A444FEA743A86EA05035A44DA
:102330008AEAB40A06EA050B234083EA0B038AEA19
:10234000B45A01379A44402F02EB0803E346524443
:10235000A8461AD1009F1744019A07652244426596
:10236000029A32448265039A2A44C265049A1A4446
:10237000059B02660B444366069B73448366079B7A
:102380006344C36649B0BDE8F08FF44635468E46D7
:10239000264619461446B0E7A0A8070030B5E0B1BC
:1023A0000F4A104900240025C0E91245C0E9141263
:1023B0000D4C0E4A0E4DC0E916420E4AC0E91852A5
:1023C0000D4A826602F17452A2F523020023A2F69E
:1023D00092420364C266184630BD0E20FCE700BF7F
:1023E00085AE67BB67E6096A72F36E3C3AF54FA5A6
:1023F0007F520E518C68059BABD9831FF8B50446FC
:10240000F0B10AB90020F8BDD1B10D468E180027F1
:10241000B542F7D0236C15F8012BE2540133402B61
:102420002364F5D121462046FFF71EFFD4E91201AF
:1024300010F5007241F10003C4E912232764E7E7B5
:102440000E20E0E72DE978480D46164604460028A0
:1024500000F08480002900F08180026C8021372AFE
:1024600002F1010381544FF000024DD8382B46D1C0
:10247000D4E91223206C0821E1FB002322FA01F1A8
:10248000934684F83F2084F83E10110C120E84F815
:102490003C201A0A9C4684F83B3084F83A201A0CF7
:1024A0001B0E84F83D10C4E912BC214684F8392083
:1024B00084F838302046FFF7D7FE691E7EB300232C
:1024C000E26EDA4001F8012FA26EDA400A71626E04
:1024D000DA400A72226EDA400A73E26DDA400A7458
:1024E000A26DDA400A75626DDA400A76226DDA4032
:1024F0000833202B0A77E3D10020BDE87888E25426
:102500000133B3E7E25401333F2BFBD92146204688
:10251000FFF7AAFE3822002107F0A5FBA8E7182341
:10252000226DDA4001F8012F626DDA400A71A26D66
:10253000DA400A72E26DDA400A73226EDA400A74F7
:10254000626EDA400A75A26EDA400A76E26EDA400E
:10255000083B13F1080F0A77E2D1CDE70E20CCE754
:10256000024AD2F80034002BFBD0704700E0014053
:102570000A4908B50223C1F80435BFF36F8FBFF3D2
:102580004F8FC1F80805FFF7EBFF0023C1F80435B2
:10259000BFF36F8FBFF34F8F08BD00BF00E0014056
:1025A0000E4B10B50124C3F80445BFF36F8FBFF382
:1025B0004F8F01EB8204401AA14208D1074B002241
:1025C000C3F80425BFF36F8FBFF34F8F10BD4318BF
:1025D00051F8042B1A60FFF7C3FFEDE700E001405C
:1025E0000023C0E902328B881A44B1F90630026137
:1025F0001A44C0E9001142610888003018BF012068
:1026000070474268118838B50346002937D0148ACC
:1026100002F1100141602CB9C2680168FFF7E0FFC8
:10262000204638BD9078118900F03005302D14D146
:10263000947C04F03004302C0FD190881969091A69
:1026400019610021908AB2F91620084419690144E1
:102650001961114459610120E3E700F0F004202CD6
:1026600007D150894143002DECD198680130986022
:10267000E8E700F0C000802808BF0421F3E708461F
:10268000CFE770B5456804460E4663681A88B242C3
:1026900004D19B7803F00F03082B07D12046FFF7E6
:1026A000B0FF6368AB42F0D1002070BD0120FCE7B1
:1026B00043681A44426011B101399A4201D10120A4
:1026C000704713F8010B01F8010FF6E7836810B5A6
:1026D00004460BB9002010BD03680122984700286A
:1026E000F8D0A368013BA360F5E72DE9F3410F465D
:1026F0000DF107018046FFF7E9FF064620B90026E5
:10270000304602B0BDE8F0819DF80740220613D59F
:1027100004F07F0407250DF107014046FFF7D6FFBF
:102720000028ECD09DF8072002F07F03AB401C434B
:10273000130605F1070501D43C60E1E7232DEAD13A
:10274000DDE770B54568AA7802F00F06082E86B05E
:1027500003461FD103691C6800260CB906B070BD82
:10276000236862689D68267329466846FFF738FF2C
:102770006368049304F10C030593AB7803F0C00382
:10278000802B08BF231D684608BF0493FFF7D9FFBD
:10279000A468E2E712F0C0011CD102F0300010285A
:1027A0000AD15A691170072EEC68186909D10146DF
:1027B000204600F017F8D1E79006F4D55B69198040
:1027C000CCE72A89214614B107F024FAC6E707F0BE
:1027D0004AFAC3E78029C1D100690021920601604D
:1027E000BCD5EBE77FB50A4601466846FFF7F8FE21
:1027F00030B16846FFF7A5FF6846FFF702FFF7E72D
:1028000007B05DF804FB000030B5044685B01546FE
:10281000A9B90268114B9A4211D0102D06D82A4648
:1028200069462046FFF7F0FF05B030BD102269462B
:102830002046FFF7E9FF0028F6D0103DEDE7A3683A
:10284000AB4201D20020EFE723682A462046984792
:102850000028F7D0A3685D1BA560E5E7B126070057
:10286000F7B50E4601A907461546FFF73EFFA8B18A
:10287000019A0123D3184FF0000404D2B17801F07B
:10288000C001802901D1204608E031899942FAD35C
:1028900029463846FFF7B8FF019BEC5403B0F0BD62
:1028A00073B50E4601A905461446FFF71EFFB8B1E1
:1028B000019BB3F5803F07D202229A1804D2B17867
:1028C00001F0C001802901D1002009E03189914245
:1028D000FAD321461A4621F8023B2846FFF794FF17
:1028E00002B070BD10B5034C82600022C0E9004107
:1028F000C26010BDB12607002DE9F04F824685B0B9
:102900000D464FF000084FF0000900240DF10F01B3
:102910005046FFF7DBFEF8B19DF80F1001F07F0283
:102920005FFA82FB4FF0000CCDE900BC009AA4F1E5
:10293000200CC4F1200322FA03F302FA0CF71F4320
:102940001346A34048EA03080B0649EA070904F1C5
:10295000070404D4C5E9008905B0BDE8F08F462C12
:10296000D4D10020F8E773B50D4669461446FFF749
:10297000C3FF68B12B89082B0CD1DDE90056C4E9EF
:102980000056DDE90023B34206BFAA420120002021
:1029900002B070BD042B05D1DDE9000120600546C1
:1029A0000026EEE7022B03D10098208085B2F7E7DE
:1029B000012B05D1DDE90001207000F0FF05EFE7F4
:1029C0000020E5E737B50D4669461446FFF794FF4A
:1029D00030B12A89082ADDE9003103D1C4E9003188
:1029E00003B030BD042A18464FEAE37108D12360D2
:1029F0001A460B468B4206BF824201200020EFE7B9
:102A0000022A04D11BB223801AB2D317F2E7012A9B
:102A100003D15BB223705AB2F7E70020E0E7F7B5C5
:102A20000C46002119702170116001A90746154656
:102A30001E46FFF75AFE30B9BB6813B90123337045
:102A4000002003B0F0BD01990029F7D0CB0801F0B8
:102A500007012B602170F4E713B5044605291FD840
:102A6000DFE801F0030F151E1E1C012201A92046FC
:102A7000FFF7CAFE18B19DF90430002BF5DB02B058
:102A800010BD082200212046FFF7BEFEF7E701A98E
:102A9000FFF72BFE0028F2D0019AF3E70422F1E7BA
:102AA0000020ECE773B50D4601A90446FFF71DFEB3
:102AB000064618B90026304602B070BD94E80F00F3
:102AC00085E80F0001998A42F4D3A960A3685B1AD4
:102AD000A360F0E72DE9F0415468A37813F0C00E2D
:102AE00088B006468C46154604D0BEF1400F68D02B
:102AF000002444E003F00F025C4903F03003102B84
:102B000051F822701DD006D8002BF1D12A69214638
:102B1000B847044633E0202B17D0302BE8D16B693F
:102B200021881980072A09D171462289286907F06E
:102B30009AF86B682969D868FFF754FE2A696968B2
:102B40003DE06B6901221A70E0E7BCF1020FD5F895
:102B5000148027D1042A25D804A9FFF7A3FF04462F
:102B60000028C5D0069B2BB16968B8F800304A89A7
:102B70009A4208D8059B7360069B002BB8D120466B
:102B800008B0BDE8F08108892A6903FB002204A887
:102B9000B84728B1B8F800300133A8F80030E1E7B1
:102BA0000446E7E7B8F800302969228903FB0212DE
:102BB000618999429CD90133A8F8003021463046FA
:102BC000A6E717693B6807F1040813B9FFF744FF4C
:102BD0009FE7022913D104A9FFF764FF002887D0DB
:102BE0003B686968424604A89847044600283FF4B9
:102BF0007FAF069B002BF3D1059B7360BFE70129D4
:102C00002BD009D305297FF473AF04220DEB020109
:102C1000FFF7FAFD042425E0002401AB1919013463
:102C20000B2C3FF465AF01223046FFF7EDFD002885
:102C30003FF45EAF01AB234413F9013C002BECDB06
:102C40000B4B049301ABCDE90534002307934246B7
:102C50003B68696804A898475BE7082201A9FFF769
:102C6000D3FD08240028EBD142E700BFA0A907004C
:102C7000B12607002DE9F04F91B00446002604A8C4
:102C8000CDE90266FFF7ACFCA3683BBBDDE9053488
:102C900004A89D78FFF7B5FC0028F7D115F0300F98
:102CA00003D1059B1B8803B10134002C00F0A980DF
:102CB0006309002202A9934240F09C8010AA02EB13
:102CC000830304F01F04C4F120044FF0FF3053F8D5
:102CD000383CE040C31A584258410DE00DF103035F
:102CE00001AA0DF102012046FFF799FE38B99DF8BF
:102CF0000330002BCAD1002011B0BDE8F08F01993C
:102D000004A8FFF7BEFC002850D1019BB3427FD33B
:102D1000059D059A937803F00F03082B73D004A840
:102D2000FFF76FFC059B9D42F3D14FF0FF36019FEB
:102D3000B7426DD3089B9DF80290D4F808801D68B7
:102D40004FF0010AA368002D5FD098459CD12B68F5
:102D5000D3F800B0BBF1000F08D04B463A462946E5
:102D60002046D8470028C6D0AD68EBE7D3F808B0B6
:102D7000BBF800309F42F7D16A6859460AA8FFF7AE
:102D80002FFC6B680E9305F10C030F939BF8023038
:102D900003F0C003802B04BF2B1D0E930AAA85F8F5
:102DA0000CA049462046FFF795FEDBE7059B9B7884
:102DB00013F0300F0FD1069A3F2A0CD8510910ABEF
:102DC00003EB810102F01F020123934051F8382CDC
:102DD000134341F8383CE5689DF802201DB104AB6F
:102DE00001992046A84704AA9DF802102046FFF743
:102DF00071FE12E051F8225001357FF47DAF0132AF
:102E000059E7012078E7168891E798457FF43CAFB1
:102E10009DF802102046FFF71FFE00287FF434AF14
:102E200069E770B50C460646154611462046FFF781
:102E3000D9FC2A4621463046BDE87040FFF71ABF4C
:102E4000F0B585B00C46CD68694607461646FFF7D3
:102E500029FE68B1E06858B1A37803F03003202B55
:102E600032462946684605D1FFF7DBFF019B7B60B0
:102E700005B0F0BDFFF7FEFEF8E72DE977480E46F6
:102E80006946FFF739FD88B1DDE90023002502F02E
:102E900001045FEA530C4FEA320B54EA050308D0F1
:102EA0006FEA0B026FEA0C03C6E9002303B0BDE82A
:102EB0007088C6E900BCF9E737B50D466946144687
:102EC000FFF7DBFF68B12B89082B0CD1DDE900018E
:102ED000C4E90001DDE900238B4206BF82420120E4
:102EE000002003B030BD042B03D100982060C1172F
:102EF000F0E7022B04D1BDF90000208000B2F6E714
:102F0000012B04D19DF90000207040B2EFE70020B2
:102F1000E7E713B504220C460DEB0201FFF774FC42
:102F200008B1019B236002B010BD1146FFF7F1BF4D
:102F300013B508220C466946FFF766FC18B1DDE9B7
:102F40000023C4E9002302B010BD1146FFF7F0BF13
:102F500002494FF4F370FEF7D9B800BF0DAA07007D
:102F6000032810B5044603D908494120FEF7CEF8DE
:102F7000074B1C5D1F2C01D9FFF7EAFF01234FF01F
:102F8000A042A340C2F80C3510BD00BFC4A9070081
:102F900009AA0700032810B5044603D908494720A9
:102FA000FEF7B4F8074B1C5D1F2C01D9FFF7D0FFCB
:102FB00001234FF0A042A340C2F8083510BD00BF66
:102FC000C4A9070009AA070008B50020FFF7E2FF1F
:102FD0000120FFF7DFFF0220FFF7DCFF0320BDE841
:102FE0000840FFF7D7BFC20710B504460CD54FF015
:102FF000A0430322C3F84427C3F84827C3F84C274B
:10300000C3F85027FFF7E0FFA3070AD54FF0A0430E
:103010000C22C3F83427C3F83827C3F83C27C3F879
:10302000402710BD38B1054B0360054B43600123B9
:103030000372002070470E20704700BF6B300700FE
:103040004530070069B10B78022B0CD1022804D05F
:1030500003280CBF11200820704703230B700020A9
:1030600070470E2070470820704710B50C4681B19C
:103070000B78042B04D8DFE803F00E05030E0E00D6
:10308000112010BD03F0E0FC0028FAD102232370C8
:10309000F7E70E20F5E70820F3E70000F8B504464F
:1030A00080691649164A10F8025C521A0C230E4623
:1030B000B2FBF3F23DB92069534300229A4205D195
:1030C0000123236013E04FF0FF30F5E7B758AF421C
:1030D00001EB020E06EB020C0ED1471C08D1DEF804
:1030E0000850D4E90223D4E90001A8472060F8BDC4
:1030F000DCF804708742F2D00C32DFE7989D0700BD
:10310000A49D07001EF0040F0CBFEFF30880EFF33F
:103110000980FFF7C3BF00BF30B1036848F24050D9
:103120008B4208BF0020704748F21050704728B10A
:1031300048F21150914208BF0020704748F21050E9
:10314000704700002DE9F0470C4607460F4920461E
:1031500015469846DDE90869FFF7DEFF98B9636810
:103160005A79494652003046FFF7E1FF58B945B158
:10317000089643462A4621463846BDE8F04706F001
:103180004BBB48F21050BDE8F08700BF7052464D6F
:1031900010B5044638B149B141600B68984708B989
:1031A000044B236010BD48F20150FBE748F2105079
:1031B000F8E700BF6E524648F0B448B107680A4EBF
:1031C000B74209D159B16AB14368F0BC5B6818478E
:1031D00048F20150F0BC704748F20250FAE748F25A
:1031E0001050F7E71046F5E76E524648F0B460B16C
:1031F00007680C4EB7420CD171B143681568DC68A2
:10320000A5420CD39B68F0BC184748F20150F0BCB3
:10321000704748F20250FAE748F21350F7E748F2D5
:103220001450F4E76E5246482DE9F0410446174623
:103230009846DDE90656FFF7ABFF60B942463946CE
:103240002046FFF7B9FF30B9324629462046BDE88F
:10325000F041FFF7CBBFBDE8F0810000F8B50A4FA1
:103260000A4C0B4DE41B0121E40829700026A642FC
:1032700003D102232B700020F8BD57F83630984751
:103280000028F9D10136F2E7749D07007C9D070004
:103290002470002038B50C46054618B9084933207B
:1032A000FDF734FF611E29442846884200D938BD05
:1032B00003780A7800F8012B01F80139F5E700BF1F
:1032C0003EAA070070B50D461446064618B90A49CD
:1032D0004520FDF71BFF1DB907494620FDF716FFE6
:1032E000621E3244013DB24200D270BD15F8013F6A
:1032F00002F80139F7E700BF3EAA070038B50D46CE
:103300000446FFF7C7FF29466019BDE83840FFF7BC
:10331000C1BF072808B503460CD8012000FA03F303
:1033200013F0A10F06D0FFF75EFE0020BDE80840B5
:10333000FFF716BE08BD000008B5FDF77FFCFDF7DE
:103340001FFA0028FBD10D4D642445F001054FF410
:103350007A40A847013CFAD1094B1B68DB0700D52E
:1033600000BEBFF34F8F0749074BCA6802F4E06203
:103370001343CB60BFF34F8F00BFFDE7F0AA0700F8
:10338000F0ED00E000ED00E00400FA0507B5074BA2
:10339000074C0092E41AE40824040B46024605494F
:1033A00044F00100FDF792FBFFF7C6FFA49D070064
:1033B000B49D070098AA070008B5064A064B0749BE
:1033C0009B1ADB081B04024643F00100FDF76AFB71
:1033D000FFF7B2FFA49D0700B49D0700CFAA070026
:1033E000012070470022104638B54FF4805101F09B
:1033F000E7F9024608B1FFF7DFFF1748C0F5FC21E7
:1034000001F0DEF901460028F5D11448144CFDF70F
:1034100059F9FDF783F8134B1349E41AE40824041F
:1034200044F003042046FDF739FB4FF080430F487A
:10343000D3F81834DB035EBF0D4B01221A6001F094
:1034400069F805460028D6D101F07CF920460949E3
:10345000FDF724FB284638BD0000070011370700A0
:10346000B49D0700A49D0700F6AA070013330700C8
:103470000800004002AB0700F7B5264B0646264879
:10348000C01AC00800040C463246244940F004002B
:10349000FDF708FBB4F1807F37D321498F20FDF77A
:1034A00035FE6FF07F431F4FA34228BF2346D7F856
:1034B0000455E41A1D44631E942B96BF9634746021
:1034C0007460347B25F07F4598BF963D032C03D96B
:1034D00013497720FDF71AFE04F5A873124A47F83E
:1034E00023504FF4F86042F0010290470F4BA200C6
:1034F000134400221A601B680193019B4FF4803330
:10350000A340C7F8043303B0F0BD952CC9D80449D3
:103510009020C4E7A49D0700B49D070086AB070078
:103520009CAB07000010014080AB07004011014038
:103530001A490A7884B0002A2DD14FF08043A02088
:10354000D3F81834DB035EBF154B01221A60154A0D
:103550000023136012680392039A134A13601268DF
:103560000292029A114A136012680192019A104A5B
:1035700082F811034FF40030106002F1C04202F5EE
:103580003C520C48C2F80835012303600220136046
:10359000C2F804030B7004B0704700BF2C70002009
:1035A0000800004000110140401101404411014059
:1035B00000E100E0081001402B4B2DE9F7431A68A9
:1035C00042B12A490A6801320A6000221A601B6867
:1035D0000093009B2648274BDFF8B080264EC01A88
:1035E000C0080004A8F5882740F00405A7F5A067E7
:1035F000336823B300233360B4003368019307EBCF
:10360000040944444A461D49019B2846A4F58824E0
:10361000FDF748FAA4F2F44319491A784FF48033BD
:103620009340184A2846C2F808334A46FDF73AFA4A
:10363000A4F2FC43196849B14846FFF71DFF124B3D
:1036400004369E42D4D103B0BDE8F083A4F59F6355
:10365000196811B14846FFF70FFFA4F5A06423686D
:10366000002BECD09847EAE70411014028700020B5
:10367000B49D0700A49D07004011014050AB070016
:1036800062AB07000010014048110140D4570020F0
:10369000F8B5114B114E044611483768C01AC008DE
:1036A00000043A460D4640F004000E49FDF7FAF9D1
:1036B0003A7B4FF4803393400B4AC2F808334CB145
:1036C0003668FFF735FF356021463046BDE8F840E3
:1036D000FFF7D2BEF8BD00BFA49D0700F45700203D
:1036E000B49D070050AB07000010014070B5074BB8
:1036F0001C6805460E46A060FFF71AFF26602946A3
:103700002046BDE87040FFF7B7BE00BFF857002065
:10371000034A044B1068D3F8043503EB006070478C
:10372000287000200010014010B5084C4FF40072C2
:10373000FF21204606F097FA20220021A4F1240060
:1037400006F091FA002344F82C3C10BDC0A00020E4
:1037500090F8553013F0FB0F10B508D190F86420A5
:103760002AB1846E74B30C600124204610BD13F09E
:10377000010403D090F8564004B1846D9B07F1D545
:1037800090F85C30002BEDD00F4B026EC3F5FC239C
:103790009A4201D81444E5E70C490D48401AC00884
:1037A00000040C4940F00100FDF786F90424074BA2
:1037B00007480949C01AC008000440F00100FDF79D
:1037C0006DF9D2E70F24F2E700000700A49D07007F
:1037D000F49D070058B1070075B1070030B51F49C7
:1037E0001F4C8A6B85B06D4628465C31FFF77AF82E
:1037F00095E80F0084E80F001A4B1B4AE360002392
:1038000013601A4D1A4A1B49136020462A46FFF7D7
:1038100008FB2B46044660B91748184B1849C01AD4
:10382000C008000440F00100FDF738F9204605B05B
:1038300030BD95F86C213AB195F8724124B1114B25
:1038400005F5BA751D60F1E71C78002CEED09C7967
:10385000002CEBD00B4B0C4A1A60E7E764A0002069
:10386000747300208D3807005470002058700020B9
:1038700050700020C0BA0700F49D0700A49D070007
:1038800018B10700E8730020607000205B68DA68F8
:103890000D4B9A4216D1D0E90131194413F9010BAD
:1038A0000028A1EB0302F9DB084909480B60094B2A
:1038B00009491A60094BC01AC008000440F004000E
:1038C000FDF7F0B8704700BF0CBA07005470002035
:1038D000F49D07005070002053AF0700A49D07001F
:1038E00008B5FFF7BBFC18B10349CB20FDF70EFC70
:1038F000024B01221A7008BD5BAC07002D7000203E
:103900002DE9F043A3B081460F461646984678222B
:103910002023002104A8029306F0A5F900230393B5
:10392000404B1B780BB9FFF7DBFF3F4C3F4B404947
:10393000E41AE408240444F003052846FDF7AEF831
:1039400047B944F002003B49FDF7A8F8132023B023
:10395000BDE8F083B9F1000F05D028463649FDF7E0
:103960009DF81620F3E72A9A3449DFF8F8902846A4
:10397000FDF798F802AB0193CDF800902A9B3049EF
:10398000424604A8FFF750FC002849D1402E47D1F9
:10399000DFF8D48032463946404606F03BF92949E3
:1039A0002846FDF77BF820214046FFF7A7FC4A4652
:1039B000CDE90086029B244903A8FFF7C3FB02461A
:1039C00040B344F00100214944F00404FDF76AF8D3
:1039D0001F492046FDF762F8324641462046FDF772
:1039E0009FF81C492046FDF759F8BDF808204946C4
:1039F0002046FDF795F818492046FDF74FF8324666
:103A000016492046FDF78CF8FCF7BAFE0028FBD1DA
:103A100005209CE728461249FDF740F8012096E76B
:103A20000A2094E72D700020F49D0700A49D070054
:103A300086AE0700AEAE0700C2AE0700D9AE0700E3
:103A400064B90700F4AE0700FC57002005AF07007B
:103A500027AF070032AF070038AF070010AB0700F1
:103A600044AF070084730020A473002043F20403D2
:103A700013B51A68224B9A423FD042F204014458CF
:103A8000E11A4C424C419A4234D142F20403C358E9
:103A900093422FD14FF440531B78142B81BF43F234
:103AA0001403184A1B68B3FBF2F300F5005298BFE9
:103AB00000231278142A82BF42F21402114982585C
:103AC000114888BFB2FBF1F21049A0EB010098BF8A
:103AD00000220F490092C00893424FEA00400D4A6D
:103AE00040F0030018BF0A460B4914BF012400240C
:103AF000FCF7ECFF204602B010BD0024C3E700BF76
:103B0000DBE5B15140420F00F49D0700A49D070082
:103B1000C1AC0700C7AC0700CDAC07002DE9F043EE
:103B2000ABB006460F4690461C4678222023002163
:103B30000CA8039306F097F8294B1B780BB9FFF7F5
:103B4000CFFE2CB13146202204A8FFF7BBFB04AE08
:103B5000244B254C2549DFF8AC90E41AE4082404F2
:103B600044F0040543463A462846FCF7A5FF03AB5C
:103B700001933A46CDF8009043461D490CA8FFF743
:103B800053FB024640B144F001001A49FCF78AFF9A
:103B900000202BB0BDE8F08320223146484606F0D5
:103BA00003F8D8B1144944F00200FCF777FF134939
:103BB0002846FCF773FF202231462846FCF7B0FF69
:103BC0000F492846FCF76AFF202249462846FCF7A1
:103BD000A7FFFCF7D5FD0028FBD1DAE70120D8E7E5
:103BE0002D700020A49D0700F49D070030AD070054
:103BF00064B9070063AD070094AD0700AEAD0700E0
:103C0000C0AD07002E700020064B9B6B10B5064C14
:103C10002BB1FFF7E3FD10B10123237010BD00238A
:103C2000FBE700BF64A00020E473002010B5044649
:103C300058B1B0F5007F0AD8064B00221A70FFF782
:103C400073FD054B01209C6310BD0320FCE704209D
:103C5000FAE700BFE473002064A0002070B5134CA5
:103C60000646E06BA36B42189A420D460BD9104BE7
:103C700010481149C01AC008000440F00100FCF7C8
:103C80000DFF032070BD5C300A462044314605F02C
:103C9000C1FFE36B04F140022B4429463046E36345
:103CA000FDF716FA20640120ECE700BF64A00020B5
:103CB000A49D0700F49D0700D0AD0700014B1878C4
:103CC000704700BFE4730020F7B51A4C94F86C31CC
:103CD00073B3194E194D3368B4F8DA2294F8D80248
:103CE000009304F537712B68FFF70AFE0128074699
:103CF00006D104F5BA7003F0DDF80128074614D0A8
:103D00000F4B104C1049E41AE408240444F002005C
:103D100044F00404FCF7C2FE0C492046FCF7BEFE4A
:103D2000328829682046FCF7FBFE384603B0F0BD18
:103D30001B88FFDE58700020507000205470002057
:103D4000A49D0700F49D070062AE070078AE07004F
:103D5000334BD3E90E329A422DE9F04106460D4627
:103D60000DD0304B30483149C01AC008000440F033
:103D70000100FCF793FE08242046BDE8F0812C4F9B
:103D800097F80080B8F1000F09D002F051FF294BDD
:103D9000306029461868BDE8F041FFF7D9BCFFF74D
:103DA0001DFD80B3FFF790FF0128C6F80080044690
:103DB000C5F8008019D11F4B29461868FFF7C8FCC9
:103DC0000128044611D1034642462868164D414653
:103DD00002F044FF134BED1AED082D0440B11649D3
:103DE00045F00100FCF75AFE0424FFF79DFCC3E7F1
:103DF00002F01EFF11493060024645F00400FCF756
:103E000051FE3C70B8E7074B07480D49C01AC0087F
:103E1000000440F00100FCF741FE0524ACE700BFC0
:103E200064A00020A49D0700F49D0700F3AD0700E7
:103E3000E4730020E87300200EAE070029AE0700EF
:103E400045AE070070B50D461646044620B9074931
:103E500040F2AB20FDF75AF93246294604F17200D0
:103E60000123BDE87040FFF759BE00BF5BAC0700FF
:103E7000037837B50C461146032B2DD8DFE803F045
:103E800015021720D0F8015000222046FDF720F936
:103E900085420AD01448154B1549C01AC0080004C1
:103EA000012240F00400FCF7FDFD012012E00A466B
:103EB00000232146013003B0BDE83040FFF72EBE9D
:103EC00000912346411C40220020FFF719FD431EAC
:103ED0005842584103B030BD40F2CF300549FDF79C
:103EE00015F90020F6E700BFF49D0700A49D070028
:103EF0000DAD07005BAC07002DE9F041A2B0044610
:103F00000E46174600217822984604A820230393E2
:103F10009DF8A05005F0A7FE41220021204605F0A3
:103F2000A2FEB6F894300BB196F896502570032D8A
:103F300035D8DFE805F009020F2C0022414638464B
:103F4000FDF7C6F8C4F80100424639462046FFF79F
:103F50008FFF19E003AB0193631C00933A4643467D
:103F6000144904A8FFF760F90028EDD0FEF772F9B4
:103F7000114A124B12499B1ADB081B04024643F0FC
:103F80000100FCF78FFD002022B0BDE8F081B6F8FB
:103F9000982006F19A01601C05F03CFED4E7074822
:103FA000054B0849C01AC00800042A4640F0010029
:103FB000E7E700BF64B90700A49D0700F49D070070
:103FC00009AC07003AAC07002DE9F047984B1C6894
:103FD000A4B00546894690460A4601462046FFF7AA
:103FE00031FF002800F0228194F85560002E4DD159
:103FF0004FF0010ACDF800A04B462A46214613A8EF
:10400000FFF77AFF58B90524B8F1000F4AD0894864
:1040100002F0ECFDFFF788FB874B9D646AE09DF89A
:104020004C30032B0AD08548854B8649C01AC008FE
:10403000000440F00200FCF731FDE4E7B8F1000FA6
:1040400055D0412213A980487B4F05F0E3FD7C4BFE
:104050007A487E49C7F82CA0C01AC008000440F076
:104060000400FCF71BFD94F892303E6213B194F803
:1040700093300BB96368BB60002249462846FDF7C0
:1040800027F86D4B0124C3E90990C3E7042E10D132
:10409000B8F1000F09D120464146FFF7A1F90128E8
:1040A000044624D0FFF740FB24E0634BB122DA62E0
:1040B000E2E74122002102A805F0D5FD06F0010A41
:1040C0004122002113A806F0020605F0CCFDBAF14A
:1040D000000F40F09680002E40F08C805C4940F24A
:1040E0005730FDF713F8B8F1000F40F08680524BBF
:1040F00001245C61204624B0BDE8F087A36D03F580
:10410000FF5203F6FF731F32C3F30B03D31A42F2BD
:104110000802AA589A4206D24848494B4D49C01A4B
:10412000C00800047FE02846FFF7A0FC70B1434FB1
:10413000434B4949FF1AFF083F0447F00200FCF7D0
:10414000ADFC1EB9454947F0010074E70123009317
:10415000A36D2A46214602A8FFF7CEFE00283FF4B1
:1041600052AFCEB1A36DEA18A9EB03030021009171
:1041700013A82146FFF7C0FE00283FF444AF9DF886
:104180004C304BB12D482E4B3549C01AC0080004A5
:1041900040F00200FCF782FCB8F1000FA7D0BAF1A2
:1041A000000F2AD02846FFF761FC10B12D4802F01D
:1041B0001DFD412202A92C4805F02CFD002E1E4BAE
:1041C00014BFAC22A522DA62A26D5A63002E3FF41E
:1041D00053AF412213A9254805F01CFD94F89230F5
:1041E00023B194F89330002B7FF446AF124B6268F2
:1041F000DA6041E74B462A46B8E70F4BAA22DA625B
:10420000E4E742F20403EA5803F1A34303F547133A
:1042100003F2D7539A423FF471AF0848084B144950
:10422000C01AC008000440F0010004E71724EBE6C0
:10423000E873002088A0002064A00020F49D0700FF
:10424000A49D070047B2070005A3002070AF070038
:104250005BAC0700E9AF070052B0070093B007005E
:10426000D4B007007CA00020C4A2002046A30020F8
:1042700098AF07000122FFF7A7BE0369C1688B4210
:104280009DBF8268D21802F1FF3203F1FF3394BF61
:10429000501A581A70472DE9F041D0E902670446D8
:1042A000F61B4068964288461546384405D905F005
:1042B000B1FC3D44E560BDE8F0813246AD1B05F040
:1042C000A9FC2A4608EB0601606805F0A3FCF1E7AB
:1042D0002DE9F843C5680646894617464FF00008A1
:1042E0003469B3687068A54228BFE418013C621BBA
:1042F0005C1BBC4228BF3C46944228BF144649463A
:104300002844224605F086FCB3682544AB4208BF2A
:1043100000253F1BA044A144F560E1D14046BDE823
:10432000F883000010B5114C114AA2610223C4E9C0
:104330000433104BE361A2644FF480530E4A2362AE
:10434000E264002310220D49A362E01D6362E36270
:10435000A3656365E365226505F0B8FC084920465E
:1043600005F0B4FC2023A37110BD00BFEC73002046
:10437000A6B107007474002064740020AFB1070078
:10438000B3B10700F8B5184C182300FB033503FB45
:1043900000402544C46A012C0F46164611D003D3B1
:1043A000022C1BD000240AE02846FFF766FF864255
:1043B00005D8324639462846FFF76DFF3446204679
:1043C000F8BD2846FFF759FF8642344628BF044609
:1043D000224639462846FFF75EFFF0E72846BDE84B
:1043E000F840FFF775BF00BFEC730020FFF79ABFDE
:1043F00041DF7047014B01221A70704794880020FA
:1044000008B50948094B0A49C01AC008000440F021
:104410000400FCF743FB074B074800221A70BDE875
:10442000084002F013BA00BFB49D0700A49D070026
:10443000BAB1070094880020A544070008B50748D2
:10444000074B0849C01AC008000440F00300FCF7FD
:1044500025FBBDE80840FFF7D3BF00BFB49D0700B0
:10446000A49D0700D6B10700C31E10B50446042B57
:1044700009D8DFE803F00303080F0F0007494FF4E2
:104480007010FFF705F9064B1B6833B12046BDE8F5
:1044900010401847FFF7B4FFF5E710BD3D44070093
:1044A0009888002008B5FCF7C9FBFCF769F90028DB
:1044B000FBD10B4D642445F001054FF47A40A84729
:1044C000013CFAD1BFF34F8F0649074BCA6802F48B
:1044D000E0621343CB60BFF34F8F00BFFDE700BF27
:1044E000D0B1070000ED00E00400FA0508B5064869
:1044F000064B0749C01AC008000440F00400FCF74E
:10450000CDFA002008BD00BFB49D0700A49D0700A0
:10451000CBB30700F8B5714B714C7249E41AE4084B
:10452000240444F0040605463046FCF7B7FA6E4B07
:104530006E4A1D604FF0A0430020C3F8402702F0F0
:104540009BF9074640B900F03FFB012800F0BA8014
:1045500004D3022800F0BE800320F8BD4FF0804352
:10456000D3F8005415F4803547D04FF48032C3F8A7
:1045700000243D465E4B1A6A012A1F4650D05D4911
:1045800044F00300FCF78AFA5B493046FCF786FAF0
:104590004FF4701400F044FC584A20211820FCF716
:1045A0007DFC08B1FEF708FF554B1A6802F0F802CF
:1045B000B02A06D11A68D20742BF1A6802F04E022A
:1045C0001A60FFF793FF0028C6D120464D49FFF738
:1045D0005FF84D4800F008FE0028BDD14B49304639
:1045E000FCF75CFA00F062FCFCF7E2FCFCF7C8F8B0
:1045F0000028F7D1FFF7FCFEF4E7D3F8202502F0FE
:10460000F802A82A0AD1D3F82025D00706D5D3F876
:10461000202502F05602C3F82025ABE70125A9E7C3
:1046200093F8A132032B03D0394944F00200A9E7E3
:1046300043F204031A68374B9A420DD11DB997F81B
:104640006032012B08D07A6B33484FF48051FFF76A
:104650000FFC08B93149E8E702F0D4FA01461DB968
:1046600097F8A132012B06D0BA692D48FFF700FC5C
:1046700008B92C49D9E72C493046FCF70FFA4FF01E
:10468000A043D3F81035D90301D428497DE71C4B4A
:104690001B6813F0B10F01D0254976E702F00CFA40
:1046A00000287FF459AF234D2870234802F0CEF83C
:1046B0002B7823B921494FF4FE70FCF727FD00F059
:1046C00041F801E0FFF79CFE1D4944F00100FCF7B2
:1046D000E5F941E74FF4A0245CE700BFA49D070083
:1046E000B49D0700EAB10700988800200C00030081
:1046F00064A0002001B20700F1B20700748400201A
:104700001C0500403D4407006944070060B30700F2
:104710002FB20700DBE5B151C4A2002081B207002F
:1047200005A30020BCB20700E4B2070014B30700E1
:1047300033B3070094880020F543070070B30700E7
:1047400054B3070070B5184B184C194D1949E41AA9
:10475000E408240444F004064FF480523046FCF789
:10476000A1F9D5F8802014493046FCF79BF94FF0A9
:10477000FF33C5F88030C5F88031C5F88430C5F8FE
:10478000843101F030FC20B10C4944F00100FCF709
:1047900085F9FBF7F5FF0028FBD14FF48050BDE809
:1047A000704000F039B800BFA49D0700B49D070019
:1047B00000E100E0E5B307001BB4070045B40700C3
:1047C000C1F30B0330B52BBBB0F5FE2F22D8000B85
:1047D000013900EB113101254FF08042814201D2B5
:1047E000002030BD00F01F03440905FA03F3032C39
:1047F00005D8DFE804F00206090CC2F800360130E3
:10480000ECE7C2F80436FAE7C2F81036F7E7C2F868
:104810001436F4E70720E4E730B504462C480022BC
:1048200089B0C0F5FE21FFF7CBFF024648B1294809
:10483000294B2A491B1ADB081B0443F00100FCF733
:1048400031F902F0DFF9264B996900220144104644
:10485000FFF7B6FF024648B11E481F4B21491B1AFD
:10486000DB081B0443F00100FCF71CF9EFF30581A2
:104870000023D4E9002083F3148883F3108883F3A2
:10488000118883F31388C1F3080139B982F30888CA
:104890004FF0FF339E46004709B030BDA2F120041F
:1048A0004FF0FF35CDE90033CDE902330493CDE974
:1048B00005504FF08073202269462046079305F08B
:1048C000A9F984F30888AE466FF006031847E3E7BA
:1048D00000000700A49D0700B49D07007AB40700FC
:1048E00064A00020B1B40700014B01221A70704788
:1048F0009C8800202DE9F341284FFA6A7E6ABC6C3F
:10490000AC2A22D17B6B1C44F61A254B254D009610
:10491000ED1AED082D0445F004082346224A2349E8
:104920004046FCF7D3F8FB6AAC2B14D03246214644
:104930001D4805F039F9B8B91D494046FCF7AEF8F5
:104940000024204602B0BDE8F081002CDDD102F049
:104950006FF90446D9E73246A4F58041124805F0C4
:1049600023F90028E8D0E1E73346224611494046C2
:10497000FCF7A2F8FBF704FF0028FBD100F096FA41
:104980002046314601F010FB04460028D9D00A49E0
:1049900045F00100FCF782F8D3E700BF64A00020D7
:1049A000A49D0700B49D070000000700E5B40700C0
:1049B00047B507001AB507007EB507002DE9F04F8F
:1049C0003A4B17463A4A9B1A87B0DB081B040493FC
:1049D000814243F0040305468946039308D13549D3
:1049E0001846FCF75BF80024204607B0BDE8F08FBE
:1049F00003D231494F20FCF789FBC5F30B031BB1F0
:104A00002D495120FCF782FBA9EB05035FEA133B1C
:104A100003D129495420FCF779FB00F001FABBF1DE
:104A2000080F28BF4FF0080B07F6FF784FEA0B334B
:104A30004FEA183805930FB93C46D5E7C34534BF54
:104A4000DA46C2464FF000025146284634BF059E62
:104A50003E4601F063FA04460028C5D12B464A467B
:104A6000164903980096FCF731F8F21C234622F011
:104A700003024946284601F013FA04460028B3D140
:104A80000F4A136BBF1B3544B1441E44166301F03B
:104A9000E3FEA8EB0A0804460028CCD0049B094991
:104AA00043F00100FBF7FAFF9EE700BFB49D07004B
:104AB000A49D070098B50700A7B5070010B607002A
:104AC00064A0002031B607002DE9F04702F0C2F8DB
:104AD000344C354BDFF8ECA03449DAF84850DAF8BA
:104AE0003080DAF83460E41AE408240444F004075F
:104AF00081463846FBF7D2FF42F20403EA5803F13D
:104B0000A34303F5471303F2D7539A4208D0284929
:104B100044F00100FBF7C2FF03252846BDE8F087FB
:104B2000DAF83020B242154405D122493846FBF765
:104B3000B5FF0025F1E7DAB94FF4405338461B784A
:104B4000142B81BF43F214031A681B4BB2FBF3F220
:104B500005F500531B78142B81BF42F2140316494C
:104B6000EB58B3FBF1F398BF00231449FBF7A4FF04
:104B7000A6EB080202F6FF7222F47F62294622F0B9
:104B80000F0209EB0800FFF719FF054628B10C4991
:104B900044F00100FBF782FFBFE7BDE8F04701F0FA
:104BA0005BBE00BFB49D0700A49D070037B8070097
:104BB0005CB8070090B8070040420F00A2B8070099
:104BC000CBB8070064A000202DE9F0475C4B5D4C9A
:104BD0005D4F5E49E41AE408240444F004084046AA
:104BE000FBF75CFFFB6AA52B00F0858009D8012B41
:104BF00020D044F003005649FBF750FF0020BDE8E9
:104C0000F087AA2B00F08280AC2BF2D151494046AC
:104C1000FBF744FF50494046FBF740FFFFF754FFC6
:104C2000054600287BD04D4944F00100FBF736FFD4
:104C3000012620E04A494046FBF730FF7E6AD7F85C
:104C4000489001F0DFFF3D6B464900EB050A404606
:104C5000FBF724FF396B49448A4514BF721B0022BD
:104C60005046FFF7ABFE054668B13F4944F00100EE
:104C7000FBF714FF0026FB6A3C492A4644F001007A
:104C8000FBF71AFF12E001F0BDFF2A463146FCF7A0
:104C90001FFABA6A9042814626D135494046FBF751
:104CA000FDFE0123C7E90793BE612E463148324D10
:104CB00001F09CFF002331482B7001F0CDFD2B78D3
:104CC000814623B92E494FF4D170FCF71FFAB9F190
:104CD000000F2CD196B33B6A012B2FD140462949B6
:104CE000FBF7DCFE02208AE70346274944F0010077
:104CF000FBF7E2FED9E725494046FBF7CFFEFFF779
:104D0000E3FE01260546002DD0D0B4E720494046F9
:104D1000FBF7C4FEFFF7EEFD00260546F3E7FFF7BD
:104D2000E9FD054608B11B497EE70126BEE744F0D0
:104D300001001949FBF7B2FE032060E701205EE79E
:104D4000A49D0700B49D070064A000206AB6070078
:104D500076B707001FB707002DB707004AB707004F
:104D60008BB6070095B60700CBB807008FB70700D2
:104D7000B0B6070088A000209C880020E948070002
:104D8000A7B50700C1B70700C5B607000DB70700F4
:104D900016B7070060B707001DB807000A4AD2F827
:104DA00000347BB109480023D2F80815D940C9075F
:104DB00048BF03F5C07103F1010348BF42F8210069
:104DC000072BF1D1704700BF000001403546526EFD
:104DD00008B50748074B0849C01AC008000440F04E
:104DE0000300FBF75BFEBDE80840FFF7D7BF00BF3D
:104DF000C49D0700A49D070055B9070007B5074BE0
:104E000000221A601B680193019BFBF717FFFBF759
:104E1000B7FC0028FBD103B05DF804FB00010140A2
:104E200070B5194E33784BBB184C1949194B641A9D
:104E3000E408D3F80024240444F00304FAB1D3F8BE
:104E4000045515492A462046FBF72CFE40F616531A
:104E50009D42B8BF1D46A5F54865FFF79FFF2A464E
:104E60000E492046FBF71EFE0D492846FEF73EFC84
:104E70000C4B4FF480321A600123337070BD0A4925
:104E80002046FBF70BFEF7E79D880020C49D070036
:104E9000A49D070000000140E4B80700FDB807002A
:104EA000D14D070000E100E02FB90700034BD3F814
:104EB00000340BB1FFF772BF704700BF0000014024
:104EC0000C4B1B78062B10D10B4B1B681A070CD10F
:104ED0000A4B186800F0F003302B08D000F0E00017
:104EE000A0F140035842584170470020704701200C
:104EF000704700BFE00F00F0E40F00F0E80F00F093
:104F0000094B1B78062B0CD1084B1B681A0708D1DC
:104F1000074B186800F0F000A0F1300358425841E8
:104F200070470020704700BFE00F00F0E40F00F072
:104F3000E80F00F008B5FFF7C3FF28B17D4B7E4AAC
:104F40001B68C3F304231360FFF7DAFF10B17B4B38
:104F50007B4A1A60FFF7B4FF28B17A4B7A4A1B6884
:104F6000C3F342331360FFF7CBFF20B1774AD36816
:104F700023F08073D360FFF7A3FF40B14FF080436D
:104F80000022C3F80C21C3F81021C3F83825FFF71D
:104F9000B7FF10B16E4B03221A60FFF7B1FF40B1AB
:104FA0006C4B05221A6001229A6700229A603F2208
:104FB0005A60694B1B78062B50D1684B1B68190748
:104FC0004CD1674B1B6803F0F003502B46D14FF0D8
:104FD0008052644BD2F80414C3F82015D2F8081498
:104FE000C3F82415D2F80C14C3F82815D2F81014FD
:104FF000C3F82C15D2F81414C3F83015D2F81814CD
:10500000C3F83415D2F81C14C3F84015D2F8201494
:10501000C3F84415D2F82414C3F84815D2F828145C
:10502000C3F84C15D2F82C14C3F85015D2F830142C
:10503000C3F85415D2F83414C3F86015D2F83814F4
:10504000C3F86415D2F83C14C3F86815D2F84014BC
:10505000C3F86C15D2F84424C3F87025FFF730FF6D
:1050600028B1414B414A1B6803F04F031360FFF71F
:1050700027FF48B14FF08043D3F80024D20744BF44
:105080006FF00102C3F80024394B1B68062B08D1CE
:10509000384B1B68062B01BF374A136843F4806303
:1050A0001360364AD2F8883043F47003C2F888306F
:1050B000BFF34F8FBFF36F8F4FF01023D3F8002251
:1050C000002A03DBD3F80432002B2FDA2C4B012209
:1050D000C3F80425D3F80024002AFBD04FF0102297
:1050E0001521C2F80012D3F80024002AFBD04FF09B
:1050F00010231522C3F80422214B1A46D3F80014BA
:105100000029FBD00021C3F80415D2F80034002B8D
:10511000FBD0BFF34F8F19491A4BCA6802F4E06203
:105120001343CB60BFF34F8F00BFFDE7164B174A09
:105130001A6008BD240300104035014074C00740C8
:105140000DF0ADBA440200103C050040F0ED00E067
:10515000A005004010560040E00F00F0E40F00F002
:10516000E80F00F000C0004058020010E40E0040BC
:1051700030010010340100103C17004000ED00E049
:1051800000E001400400FA054C5800200090D003D4
:1051900013681F2B10B5144607D900220830FDF7FD
:1051A00051F908B92023236010BD48F21450FBE7E1
:1051B0000830FDF723B90830FDF7F0B8007800F0AB
:1051C00001007047062810B5044602D1002001F006
:1051D000D3FC044B1B681BB12046BDE810401847A8
:1051E00010BD00BFA088002038B5104B104C1860CF
:1051F000104B1149E41AE408240444F00300FBF7BF
:105200004DFC0020FFF7DEFF0C4801F07DFC054659
:1052100020B90A48BDE8384001F038BA02460849CA
:1052200044F00100FBF73EFC284638BDA088002072
:10523000B49D0700A49D070030BB0700C5510700BF
:1052400043BB07006CDF70476DDF704772DF70474C
:1052500073DF704774DF704775DF704776DF704724
:105260007ADF70477CDF70477DDF70477FDF7047F4
:1052700086DF70478FDF704790DF7047A8DF704789
:10528000AADF7047ADDF7047AEDF7047B0DF704711
:10529000B1DF7047B5DF704762DF704766DF704788
:1052A00013DF70477FB50023CDF80A30ADF80E301C
:1052B0000A4BADF806109B89ADF8083001238DF834
:1052C0000A300DF10603CDE90430054B02A9188818
:1052D000FFF7DAFF07B05DF804FB00BF0E9900206E
:1052E0005258002010B5094B094904460948C01A14
:1052F000C0080004224640F00400FBF7D3FB21461F
:105300000548BDE81040FCF77BB800BFA49D07002E
:10531000BEC00700CC9D0700409E070070B5204E20
:10532000346814F0010432D01E4B984236D01E4B24
:105330001E4D1F4C1F49ED1AED082D0445F00405C4
:105340002846FBF7ABFB22884FF6FF739A4220D02A
:1053500019492846FBF7A2FB3368208843F0040371
:1053600013213360FFF77AFF044680B9134EC82437
:1053700046F001064FF47A40B047013CFAD101F003
:10538000F7FE044618B90E492846FBF787FB20466E
:1053900070BD0C4B1878FFF75DFFF0E70024F6E7CF
:1053A00044990020909D0700A49D0700CC9D070014
:1053B0005258002013BC070030BC0700B0C00700E3
:1053C0003FBC07005058002030B518228DB00DEBBF
:1053D0000200002104F047FC282308932448254BB1
:1053E0002549C01AC0080004012440F004008DF8CB
:1053F00018408DF82D40FBF751FB1623ADF8063011
:105400000023CDF80E30CDF81230ADF816301B4B1E
:1054100002930222062109251A7099701A7103213C
:105420005922D9705A710DF10601FE225819ADF8B2
:105430000C505C709A71FFF717FFB8B9BDF80620E1
:105440001D721119D971BDF80C301A440C4BADF80E
:105450000C2002A906AA1846FFF7F8FE30B9187802
:10546000FFF7F8FE21461878FFF7F2FE0DB030BDC9
:10547000CC9D0700A49D07007DBB0700229900205A
:1054800050580020F0B50388212B8DB0044600F061
:105490006A8132D8122B00F0398107D8102B56D0F0
:1054A00075D8012B00F0AA810DB0F0BD142B00F0CF
:1054B0003982C0F001811A2B00F045821F2BF3D1F5
:1054C000B24BB34DB349ED1AED082D0445F004007D
:1054D000FBF7E4FAB04B04F108011888FFF7BCFEB3
:1054E00004460028E0D00246AC4945F00100FBF735
:1054F000D9FA2046FDF760FFD6E7502B5CD013D8D1
:10550000232B00F0C780C0F01F81242BCCD19F4BF0
:105510009F486289A249C01AC0080004E38940F08C
:105520000400FBF7C9FABFE7522B00F00C82C0F071
:105530006B81552B00F08280562BB5D18379002BDF
:10554000B2D1954B13211888FFF788FE9AE08F4B54
:105550008F4D9449ED1AED082D0445F00400FBF73A
:105560009DFA8D4BA2881A808F4A12681C460AB198
:10557000012090478D492088FFF76EFE02460028E3
:1055800092D08B4945F00100FBF78CFA8CE7824BF7
:105590004FF6FF721A80874B1B685A0704D4FFF737
:1055A00013FF08B1FDF708FF7F4B1B68002B3FF48A
:1055B0007BAF0220984777E77F4FC288BB889A422B
:1055C0007FF472AF7D48724DFBF7EEFE6F4BED1A24
:1055D000ED082D04064628B9794945F00200FBF78D
:1055E0005DFA61E7F422238A76490092024645F08B
:1055F0000400FBF76BFA228A04F11201304604F032
:1056000009FB182200210DEB020004F02CFB0823FB
:105610008DF818306C4B08936C4B0797CDE9093621
:1056200006A8238AADF82C3001F010F800283FF4CA
:105630003BAF31466148FBF7E3FE35E7C288F62A07
:1056400024D8D31E9B0723D0D31F9BB2013B5942C2
:1056500001F0030103F0030302F1FF3458BF4B4292
:10566000E31A9CB2494B4A485949C01AC008000481
:10567000234640F00400FBF71FFA474B21461888E9
:10568000FFF708FE00283FF40FAF33E7F724E9E700
:105690001446E7E73D4B3E484E49C01AC008000497
:1056A00040F00400FBF7FAF9002206A9A088CDE932
:1056B0000622FFF7E1FDE5E7344B354C4649364D10
:1056C000E41AE408240444F004042046FBF7E6F955
:1056D0000023ADF81A300223ADF8183006AA04AB47
:1056E00042F6052128880793FFF7CCFD08B1FDF7A6
:1056F00063FEBDF8102039492046FBF7D3F900239B
:105700001A4685212888FFF7B1FDBBE71F4B204DC6
:105710003349ED1AED082D0445F004052846FBF742
:10572000BDF962892F492846FBF7BCF922892E4929
:105730002846FBF7B7F9A2892C492846FBF7B2F9AE
:10574000E2892B4928461FE7437A827A0F4910489D
:10575000401AC008217A00910004264940F0040054
:10576000FBF7B4F9A0E6094B09482349C01AC00861
:10577000000440F00400FBF791F90CA9002321F884
:10578000183DA088FFF776FD7CE700BFA49D0700C9
:10579000CC9D07004DBF0700525800207CBF07007A
:1057A0004ABE07005CBD070048990020B6C007004C
:1057B00066BD0700449900200E990020409E070016
:1057C00094BD0700B3BD07009D590700E5520700CF
:1057D000D3BD070019BE070088BE0700B0BE070092
:1057E000D3BE0700FABE070010BF070026BF0700A0
:1057F00038BF0700B1BF0700EBBF07005B4B0021BC
:105800001888FFF74BFD3DE78379002B3FF44CAE42
:10581000022B7FF449AE564D0289AB899A427FF440
:1058200043AE837B012B7FF43FAE00230121CDE902
:1058300006338DF81E10018AADF820104B4E418AB8
:10584000ADF82210022200F114018DF81820099100
:10585000ADF81230ADF8102003AB298A30880593DB
:1058600004AAFFF70FFD374660B91846FFF7A6FCFC
:1058700040B940F2FD1306A93088ADF81C30FFF79F
:1058800005FD11E6002306A93888ADF81C30FFF7A6
:10589000FDFC014600287FF407AE18220DEB020044
:1058A00004F0E1F9237D334A8DF81830022B079577
:1058B000089224D0062B10D0012B10D12E4B1A8821
:1058C0002E4B1A80637DD4F816200A93012B0B927D
:1058D00005D12B4801F050F901E0637D0A9306A839
:1058E00000F0B4FE024600283FF4DEAD2548264B0A
:1058F00026491B1ADB081B0443F0010044E6214B38
:1059000021482349C01AC008000440F00400FBF7F6
:10591000C5F8A27D637D43EA0223174A1380174A24
:105920001380DCE7174B18481A49C01AC008000456
:1059300040F00400FBF7B2F800231A461946A0888D
:10594000FFF796FC9EE600231A461946A088FFF74B
:105950009FFC08B1FDF730FD0B480A4B0E49C01AF9
:10596000C008000440F0040039E600BF525800208F
:105970000E9900209D5907004C9900204E99002057
:10598000909D0700A49D0700CC9D070026C007003E
:1059900014C007005AC0070080C0070030B50D468C
:1059A00087B0044620B9464940F28710FBF7AEFBAA
:1059B00025B943494FF4C470FBF7A8FB112200211D
:1059C00001A804F050F92378082B0BD13D4A3E4939
:1059D00013880988013B9BB2138031B32BBB03238F
:1059E00011802370637822788DF805206021012BC7
:1059F0008DF804108DF8063019D034493448401A17
:105A0000C0080004334940F00200FBF755F8637802
:105A10000B2B52D100F0BEFA8DF80700002000F0E9
:105A2000B3FA042101A8FFF73DFC07B030BD062AF8
:105A30001DD0082A01D0032A3FD1D4E90123110A3D
:105A40008DF807208DF80810110C120E8DF80A2021
:105A50001A0A8DF80B308DF80C201A0C1B0E8DF8DD
:105A600009108DF80D208DF80E300B21DAE7E16872
:105A70008DF80710D4E90123080A8DF80800080CF6
:105A8000090E8DF80A10110A8DF80B208DF80C10F4
:105A9000110C120E8DF80E201A0A8DF80F308DF8A9
:105AA00010201A0C1B0E8DF80D108DF809008DF8C2
:105AB00011208DF812300F21B4E70321B2E700BFA7
:105AC0008CBB07004E9900204C990020A49D070034
